:100000000C94EE0B0C940D0C0C940D0C0C940D0C2C
:100010000C940D0C0C940D0C0C940D0C0C940D0CFC
:100020000C940D0C0C940D0C0C940D0C0C940D0CEC
:100030000C940D0C0C940D0C0C940D0C0C940D0CDC
:100040000C940D0C0C940D0C0C940D0C0C940D0CCC
:100050000C940D0C0C940D0C0C940D0C0C945A0C6F
:100060000C940D0C0C940D0C0C940D0C0C940D0CAC
:100070000C940D0C0C940D0C0C940D0C0C940D0C9C
:100080000C940D0C0C940D0C0C940D0C0C940D0C8C
:100090000C940D0C0C940D0C0C940D0C0C940D0C7C
:1000A0000C940D0C0C940D0C0C940D0C0C940D0C6C
:1000B0000C940D0C0C940D0C0C940D0C0C940D0C5C
:1000C0000C940D0C0C940D0C0C940D0C0C940D0C4C
:1000D0000C940D0C0C940D0C0C940D0C0C940D0C3C
:1000E0000C940D0C56166A16A416FA160B17232A32
:1000F000232A232A1D167D179717AA17232A232A96
:10010000E317232A232A111831187618D718F5185F
:100110004319FC195F1AD718232AD718232AF01A73
:10012000232A232A232A232A232A232A232A232A67
:10013000232A232A232A232A232A232A232A232A57
:10014000232A232A232A232A232A232A232A171964
:100150004319FC197618D718F5184B1B232A171CBE
:100160007A1CDD1C421DB11D31185218232A232A86
:10017000232A232A232A232A171C7A1CDD1C421D2A
:10018000B11D391E232A891EA71E232A232A232AAA
:10019000091F232A232A4F1F232A961FFA1F232AC7
:1001A0004320232AF820232A5221C821FD215A2244
:1001B000AD22FF222F23DC239425232A232A57262E
:1001C0007726A126D526232A232A0C27232A232A69
:1001D000D5265F27232A232A232AC727FD27232A58
:1001E000232A232A232A232A3428842987248E2475
:1001F00095249C24A324AA24292A292A2D254D2587
:10020000D72ECA2ED52EC22EC22ED52ED52ED52E05
:10021000D52ED52ED52ED52ED52ED52ED52ECA2ED1
:10022000D52ED52EC22EC22E20203C6D6F64756C4B
:10023000653E2E002020257328290A0020202573E2
:100240002829205F5F4E41544956455F5F0A0020D0
:1002500020556E61626C6520746F20676574206E36
:1002600061746976652066756E63206E616D652EBA
:100270000054726163656261636B2028746F702043
:100280006669727374293A0020204C696E654E7558
:100290006D3A2025640A00202046696C6549643A5D
:1002A00020203078253032580A00202052656C65B5
:1002B0006173653A203078253032580A00457272F1
:1002C0006F723A20202020203078253032580A00E2
:1002D0000A4D0000400200000D0004020303006903
:1002E000706D0304006D61696E0302000C02030867
:1002F000006D61696E2E707900040201FFFFFFFF3F
:100300000004006400006401006C00005A000065F5
:1003100000006A000083000001640100530AC2006B
:100320000040010000DB0004070307005F5F646F0B
:10033000635F5F030500706F7274410304006464BF
:100340007241030B006469676974616C5265616492
:10035000030C006469676974616C577269746503A2
:10036000050064656C6179030300617672030A001D
:1003700006060924092C091F09280311002E2E2F17
:100380002E2E2F6C69622F6176722E707900040711
:10039000000B01FFFF0B01FEFF0B02FDFF0B03FC37
:1003A000FF0B01FBFF0004006400005A0000640121
:1003B000008400005A01006402008400005A020018
:1003C0006403008400005A03006404008400005A9F
:1003D00004006405008400005A050064060053FF11
:1003E0000A180500400300001000040A0308005F1B
:1003F0005F6E616D655F5F0308005F4175746F62DA
:100400006F78030600617070656E64030500636FAA
:10041000756E74030600657874656E640305006983
:100420006E646578030600696E7365727403030079
:10043000706F7003060072656D6F76650304006C63
:100440006973740310000602131A091709080905D5
:10045000092209270937030F002E2E2F6C69622FFE
:100460006C6973742E707900040C0304006C69735A
:10047000740308005F4175746F626F780A3303007C
:10048000420200001200040B0308005F5F6E616D02
:10049000655F5F030A005F5F6D6F64756C655F5F2A
:1004A000030600617070656E64030500636F756E0E
:1004B00074030600657874656E64030500696E64F4
:1004C0006578030600696E736572740304004E6FED
:1004D0006E65030300706F7003060072656D6F76C2
:1004E000650308005F4175746F626F78030E000644
:1004F00001090309030903090309030C06030F009B
:100500002E2E2F6C69622F6C6973742E7079000423
:10051000080A50000243030200130004030306000C
:10052000617070656E640303006F626A03060061A8
:100530007070656E640302000001030F002E2E2F01
:100540006C69622F6C6973742E7079000401000469
:10055000007400007C00006A01007C01008302003E
:10056000530A4E0002430302001600040303050071
:10057000636F756E740303006F626A030500636F37
:10058000756E740302000001030F002E2E2F6C699C
:10059000622F6C6973742E7079000401000400747A
:1005A00000007C00006A01007C0100830200530A05
:1005B000500002430302001900040303060065789B
:1005C00074656E640303006F626A030600657874E5
:1005D000656E640302000001030F002E2E2F6C696C
:1005E000622F6C6973742E7079000401000400742A
:1005F00000007C00006A01007C0100830200530AB5
:100600004E0002430302001C000403030500696E50
:100610006465780303006F626A030500696E6465B0
:10062000780302000001030F002E2E2F6C69622F49
:100630006C6973742E70790004010004007400006A
:100640007C00006A01007C0100830200530A530011
:1006500003430403001F000403030600696E73656F
:1006600072740303006F626A030600696E73657239
:10067000740302000001030F002E2E2F6C69622FFD
:100680006C6973742E70790004010004007400001A
:100690007C00006A01007C01007C0200830300539F
:1006A0000A72000243030200220004040304004E05
:1006B0006F6E65030300706F700303006F626A035F
:1006C0000300706F7003060000010C010D02030FA0
:1006D000002E2E2F6C69622F6C6973742E70790056
:1006E00004010004007C01006400006B0200721928
:1006F000007401007C00006A020083010053740151
:10070000007C00006A02007C010083020053640048
:1007100000530A50000243030200280004030306AA
:100720000072656D6F76650303006F626A030600F1
:1007300072656D6F76650302000001030F002E2EB7
:100740002F6C69622F6C6973742E7079000401003C
:1007500004007400007C00006A01007C0100830238
:1007600000530004006500005A010064000084008A
:10077000005A02006401008400005A030064020071
:100780008400005A04006403008400005A050064D9
:1007900004008400005A0600640700640500840118
:1007A000005A08006406008400005A090052530BE6
:1007B0000200000A76000243030400430004010320
:1007C0000500636F756E74030A00000106010D01D8
:1007D0000C011101030F002E2E2F6C69622F6C6922
:1007E00073742E7079000403000100000000010101
:1007F00000000004006401007D02007827007C00F6
:1008000000445D1F007D03007C03007C01006B023F
:1008100000720D007C0200640200177D0200710D61
:1008200000710D00577C0200530A5E00024304036E
:10083000004B000402030600617070656E640306DD
:1008400000657874656E6403040000010D01030FF8
:10085000002E2E2F6C69622F6C6973742E707900D4
:100860000401000400781B007C0100445D13007D3E
:1008700002007400007C00007C0200830200017111
:10088000070057640000530B0201000B0302000B2A
:100890000203000B02040000040004006400005A7C
:1008A0000000640100640B00640200840000830007
:1008B00000595A01006403008400005A02006404D5
:1008C000008400005A03006405008400005A0400FC
:1008D0006406008400005A05006407008400005A82
:1008E00006006408008400005A07006409008400C0
:1008F000005A0800640A00530AF502004003000091
:100900000C0004080308005F5F6E616D655F5F03A4
:1009100008005F4175746F626F78030500636C6552
:1009200061720304006B6579730307006861735F8C
:100930006B657903060076616C7565730306007557
:10094000706461746503040064696374030C0006D9
:1009500003130E0918092B0904092B030F002E2E6F
:100960002F6C69622F646963742E707900040A0326
:100970000400646963740308005F4175746F626FFB
:10098000780AD10100420100000F000407030800AB
:100990005F5F6E616D655F5F030A005F5F6D6F642F
:1009A000756C655F5F030500636C6561720304002D
:1009B0006B6579730307006861735F6B6579030684
:1009C0000076616C7565730308005F4175746F6232
:1009D0006F780308000601090309030903030F00E8
:1009E0002E2E2F6C69622F646963742E7079000457
:1009F000040A4B0001430201001000040303050038
:100A0000636C6561720303006F626A030500636CC7
:100A10006561720302000001030F002E2E2F6C6926
:100A2000622F646963742E707900040100040074FD
:100A300000007C00006A0100830100530A490001A4
:100A400043020100130004030304006B6579730380
:100A500003006F626A0304006B6579730302000090
:100A600001030F002E2E2F6C69622F646963742EB0
:100A700070790004010004007400007C00006A0129
:100A800000830100530A52000243030200160004CF
:100A9000030307006861735F6B65790303006F628E
:100AA0006A0307006861735F6B65790302000001E8
:100AB000030F002E2E2F6C69622F646963742E70F1
:100AC000790004010004007400007C00006A010049
:100AD0007C0100830200530A4D000143020100190A
:100AE00000040303060076616C7565730303006FF1
:100AF000626A03060076616C75657303020000018B
:100B0000030F002E2E2F6C69622F646963742E70A0
:100B1000790004010004007400007C00006A0100F8
:100B20008301005304006500005A01006400008442
:100B300000005A02006401008400005A03006402AD
:100B4000008400005A04006403008400005A050079
:100B500052530B0105000B0106000A3C0002430240
:100B60000200600004010307006861735F6B657930
:100B70000302000001030F002E2E2F6C69622F6408
:100B80006963742E70790004010004007C01007C0C
:100B900000006B0600530B0107000B020800000465
:100BA0000004006400005A0000640100640900644D
:100BB0000200840000830000595A0100640300848D
:100BC00000005A02006404008400005A0300640517
:100BD000008400005A04006406008400005A0500E6
:100BE0006407008400005A0600640800530AD60512
:100BF0000040030000120004190303006162730344
:100C0000030063687203030064697203040065767D
:100C1000616C03060066696C746572030700676C9B
:100C20006F62616C7303020069640303006C656E9C
:100C30000306006C6F63616C730303006D617003E6
:100C400003006F7264030300706F77030500726125
:100C50006E676503030073756D0304007479706536
:100C6000030200436F0308005F5F6E616D655F5FA5
:100C70000306006F626A6563740309004578636563
:100C80007074696F6E030E00417373657274696FDF
:100C90006E4572726F72030400636F64650309002E
:100CA00047656E657261746F7203060069736D61EA
:100CB000696E0304005F5F6D640304005F5F626937
:100CC000032E0009050926095B09640904091909AD
:100CD0001B09430915090E0922090409610968095C
:100CE0002509230606130716031602090B16A20987
:100CF0003B030F002E2E2F6C69622F5F5F62692EFF
:100D0000707900041D0A4800014303010012000429
:100D1000010303006162730302000002030F002E4F
:100D20002E2F6C69622F5F5F62692E70790004025A
:100D300000010000000004007C00007C00000B6645
:100D400002007C00006401006B000019530B0109D4
:100D5000000B010A000B030B000A540002430403BA
:100D600000FC00040103060066696C7465720302EE
:100D7000000001030F002E2E2F6C69622F5F5F624F
:100D8000692E70790004010004006700007C0100F6
:100D9000445D18007D02007C00007C02008301009D
:100DA0007207007C02005E0200710700530B000C0A
:100DB000000B010D000B010E000B000F000A970045
:100DC00002430405008C0104030304004E6F6E65AA
:100DD0000303006C656E0303006D6170030C00007B
:100DE00002130306010D0110010E03030F002E2E46
:100DF0002F6C69622F5F5F62692E707900040300B7
:100E00000100000000010100000004006400006710
:100E100001007401007C0100830100147D02006464
:100E200001007D03007828007C0100445D20007DE6
:100E300004007C00007C04008301007C02007C0331
:100E4000003C7C0300640200377D030071200057E2
:100E50007C0200530B0110000A360002430202001C
:100E6000BC010401030300706F770302000001035B
:100E70000F002E2E2F6C69622F5F5F62692E7079D2
:100E80000004010004007C00007C010013530B03EC
:100E900011000B0112000B0113000B0114000303DE
:100EA000005442440306006F626A6563740A50008E
:100EB0000042010000D70204030308005F5F6E6177
:100EC0006D655F5F030A005F5F6D6F64756C655FE2
:100ED0005F0306006F626A65637403020006010324
:100EE0000F002E2E2F6C69622F5F5F62692E707962
:100EF00000040004006500005A0100525303090079
:100F0000457863657074696F6E0A53000042010092
:100F100000DE0204030308005F5F6E616D655F5FC2
:100F2000030A005F5F6D6F64756C655F5F030900A6
:100F3000457863657074696F6E0302000601030FE4
:100F4000002E2E2F6C69622F5F5F62692E70790010
:100F5000040004006500005A01005253030E0041D2
:100F60007373657274696F6E4572726F720A58009E
:100F70000042010000E10204030308005F5F6E61AC
:100F80006D655F5F030A005F5F6D6F64756C655F21
:100F90005F030E00417373657274696F6E45727200
:100FA0006F720302000601030F002E2E2F6C696280
:100FB0002F5F5F62692E70790004000400650000F5
:100FC0005A0100525301E400000003090047656E16
:100FD000657261746F720ADD000042010000EE026A
:100FE00004060308005F5F6E616D655F5F030A00C2
:100FF0005F5F6D6F64756C655F5F0308005F5F69BD
:101000006E69745F5F0304006E6578740304007397
:10101000656E6403090047656E657261746F7203E3
:101020000600060209370904030F002E2E2F6C69F3
:10103000622F5F5F62692E70790004030B02150056
:101040000A4A00014302010027030403030400735A
:10105000656E640304004E6F6E650304006E657870
:10106000740302000001030F002E2E2F6C69622F03
:101070005F5F62692E70790004010004007C00004B
:101080006A0000640000830100530B021600040094
:101090006500005A01006400008400005A020064E8
:1010A00001008400005A03006402008400005A0416
:1010B0000052530B00170000040004006400008479
:1010C00000005A00006401008400005A010064021C
:1010D000008400005A02006403008400005A0300E8
:1010E0006404008400005A04006405008400005A6F
:1010F00005006406008400005A06006407008400AE
:10110000005A07006408008400005A0800640900BF
:101110008400005A0900640A008400005A0A00642E
:101120000B008400005A0B00640C008400005A0C71
:1011300000640D008400005A0D00640E008400005D
:101140005A0E00640F008400005A0F006410005A09
:101150001000641100641C0064120084000083000D
:1011600000595A11006413006511006601006414EF
:1011700000840000830000595A12006415006512B3
:1011800000660100641600840000830000595A13B1
:10119000006417006513005F1400641800651100F7
:1011A000660100641900840000830000595A15008C
:1011B000641A008400005A16006900005A1700647F
:1011C0001B00530A540100400100001600040A03EA
:1011D00006006D6178696E740304006578697403B4
:1011E00002006763030400676574620304006865B6
:1011F000617003040070757462030B0072756E49B0
:101200006E54687265616403040074696D6503045B
:101210000077616974030300737973031000060398
:1012200009230918091A09300921091E0926030E84
:10123000002E2E2F6C69622F7379732E7079000443
:101240000A01FFFFFF7F0B0118000B0019000B00C4
:101250001A000B001B000B011C000B011D000B00F2
:101260001E000A600001430202000301040203049D
:101270000074696D650304007761697403060000FA
:10128000010D011201030E002E2E2F6C69622F73C7
:1012900079732E707900040100040074000083004B
:1012A000007C0000177D01007813007400008300AB
:1012B000007C01006B000072220071100057640076
:1012C00000530004006400005A0000640100840020
:1012D000005A01006402008400005A020064030006
:1012E0008400005A03006404008400005A0400646F
:1012F00005008400005A05006406008400005A06B8
:10130000006407008400005A07006408008400009D
:101310005A0800640900530AA703004003000010A4
:1013200000040B0307005F5F646F635F5F030800E7
:101330005F5F6E616D655F5F0308005F4175746F8D
:10134000626F780306006469676974730309006853
:1013500065786469676974730307006C6574746504
:10136000727303040061746F69030500636F756E27
:101370007403040066696E640304006A6F696E0397
:101380000600737472696E67031200060306031386
:101390000B06010601060709450957093B03110021
:1013A0002E2E2F6C69622F737472696E672E70799E
:1013B00000040E00030600737472696E6703080070
:1013C0005F4175746F626F780A7501004201000019
:1013D000160004060308005F5F6E616D655F5F03C2
:1013E0000A005F5F6D6F64756C655F5F0304006A80
:1013F0006F696E030500636F756E740304006669A0
:101400006E640308005F4175746F626F78030600B5
:101410000601090309030311002E2E2F6C69622FA8
:10142000737472696E672E70790004030A4E0002AD
:1014300043030200170004030304006A6F696E038C
:1014400003006F626A0304006A6F696E03020000A2
:10145000010311002E2E2F6C69622F737472696E56
:10146000672E70790004010004007400007C000005
:101470006A01007C0100830200530A50000243030A
:1014800002001A000403030500636F756E74030302
:10149000006F626A030500636F756E7403020000DB
:1014A000010311002E2E2F6C69622F737472696E06
:1014B000672E70790004010004007400007C0000B5
:1014C0006A01007C0100830200530A4E00024303BC
:1014D00002001D00040303040066696E6403030038
:1014E0006F626A03040066696E6403020000010310
:1014F00011002E2E2F6C69622F737472696E672E25
:1015000070790004010004007400007C00006A018E
:10151000007C01008302005304006500005A0100B2
:101520006400008400005A02006401008400005A34
:1015300003006402008400005A04005253030A00AE
:1015400030313233343536373839031600303132E2
:1015500033343536373839616263646566414243F6
:101560004445460334006162636465666768696A7E
:101570006B6C6D6E6F707172737475767778797A43
:101580004142434445464748494A4B4C4D4E4F50D3
:101590005152535455565758595A0B021F000B02BB
:1015A00020000B022100030100200AB300024303C4
:1015B0000500010104020303006C656E0304006A68
:1015C0006F696E03120000010C010C0104010A0195
:1015D00006010F0112010E010311002E2E2F6C695E
:1015E000622F737472696E672E70790004040001B3
:1015F000000000000300000101000000040074006E
:10160000007C00008301007D02007C020064010078
:101610006B0200721C00640200537C000064010035
:10162000197D03006403007D0400782C007C040015
:101630007C02006B0000725A007C03007C010017E2
:101640007C00007C040019177D03007C0400640307
:1016500000377D0400712F00577C03005300040005
:1016600004006400005A00006401005A0100640292
:1016700000640D00640300840000830000595A02D6
:10168000006404005A03006405005A040064060064
:101690005A05006407008400005A060064080084AC
:1016A00000005A07006409008400005A0800640A18
:1016B00000640B008401005A0900640C00530A1DE9
:1016C000010040020000110004040307005F676589
:1016D00074496D6703030078303403030069706D4B
:1016E00003030069706D0304000939090B030E0040
:1016F0002E2E2F6C69622F69706D2E707900040494
:101700000B0022000B0023000AAE0001430304007B
:10171000550004070307005F676574496D6703029E
:1017200000436F0304006576616C03030078303476
:1017300003050046616C7365030E004173736572A7
:1017400074696F6E4572726F7203030069706D0386
:101750000C000001030409010C010F010B04030E2E
:10176000002E2E2F6C69622F69706D2E7079000427
:1017700001000400782F007400008300007D010048
:101780007401007C01008301007D02007402007C72
:1017900002007C00008302007D03007403008300CC
:1017A000000171030057740400733E007405008249
:1017B0000100640000530004006400008400005A2B
:1017C00000006401008400005A0100690000640206
:1017D000008401005A020064030053FF11241FBE5D
:1017E000CFEFD1E2DEBFCDBF12E0A0E0B2E0E4E691
:1017F000FDE900E00BBF02C007900D92AE3CB107BF
:10180000D9F723E0AEECB2E001C01D92A133B207DC
:10181000E1F70E941C480C94B04E0C94000080919B
:10182000C00087FFFCCF8091C6009091C00094FD5E
:1018300006C09091C00093FD05C090E008958EEF22
:101840009FEF08958FEF9FEF08959091C00095FF4F
:10185000FCCF8093C60080E090E0089580E190E0A6
:101860009093C5008093C40086E08093C20088E115
:101870008093C100E9E2F3E080E092E09583848305
:10188000938382839183808385B5887F85BD85B569
:10189000826085BD81E080936E00789480E0089539
:1018A000E1ECF0E08081877E808385B5887F85BD0F
:1018B00080E008951F920F920FB60F9211240BB67D
:1018C0000F922F933F934F935F936F937F938F93D9
:1018D0009F93AF93BF93EF93FF9380E890E00E94B4
:1018E0005D30FF91EF91BF91AF919F918F917F916B
:1018F0006F915F914F913F912F910F900BBE0F9081
:101900000FBE0F901F9018950F931F93CF93DF93E7
:10191000DB01813099F068F08230C1F4EB0108817D
:101920001981C8010E94A84E0F5F1F4F19830883B9
:101930000EC0ED91FC911197819105C0ED91FC9144
:10194000119784913196ED93FC9301C080E0DF9173
:10195000CF911F910F910895FC018091C00087FFE6
:10196000FCCF9091C000987129F48091C6008083CB
:1019700080E0089582EE08959091C00095FFFCCF1D
:101980008093C60080E00895FC019FB7F8944091D1
:10199000DF025091E0026091E1027091E202408327
:1019A0005183628373839FBF80E00895EF92FF921B
:1019B0000F931F93CF93DF9300D0CDB7DEB71F9265
:1019C0008F938DEB92E09F938F930E94924B809127
:1019D0001E031F928F938AEA92E09F938F930E9437
:1019E000924B80911F031F928F9387E992E09F9300
:1019F0008F930E94924B80912003909121039F939B
:101A00008F9388E892E09F938F930E94924B81E797
:101A100092E00E94BA4BE0912403F09125030281E9
:101A200013810FB6F894DEBF0FBECDBF93E0043034
:101A3000190741F5E0910803F09109030280F38151
:101A4000E02DAE014F5F5F4F6FEF7FEF8481958197
:101A50000E943B43882319F08FE492E040C08981C3
:101A60009A8106969F938F938CE392E09F938F9336
:101A70000E94924B00910603109107030F900F9064
:101A80000F900F9084E3E82E82E0F82E10C0898139
:101A90009A8106969F938F93FF92EF920E94924BAA
:101AA000F801028113810F900F900F900F90011594
:101AB000110599F0D8011496ED91FC9115970280CB
:101AC000F381E02DAE014F5F5F4F6FEF7FEF8481B9
:101AD00095810E943B438823D1F288E292E00E94E4
:101AE000BA4B0F900F90DF91CF911F910F91FF9004
:101AF000EF9008958CEE08958F929F92AF92BF92CF
:101B0000CF92DF92EF92FF9280910D03813009F026
:101B100094C0E0910E03F0910F032181822F8695EE
:101B20008695869590E081309105C9F56281738133
:101B3000848195810E941F494B015C0120E030E0C7
:101B40004AE755E40E94AC496B017C0120E030E09B
:101B500040E85FE30E94E94887FD5EC020E03FEF78
:101B60004FE757E4C701B6010E94A74918160CF0C9
:101B70004EC020E030E040E251E4C501B4010E94D3
:101B8000AC490E94EE4820E931E06115710509F485
:101B900048C0C9010197F1F761507109F6CF02976A
:101BA00009F041C082809380A480B58020E030E0BD
:101BB0004AE755E4C501B4010E94AC496B017C01C0
:101BC00020E030E040E85FE30E94E94887FD24C060
:101BD00020E03FEF4FE757E4C701B6010E94A74955
:101BE0001816ACF420E030E040E251E4C501B40145
:101BF0000E94AC490E94EE4820E931E06115710570
:101C000081F0C9010197F1F761507109F7CFC70160
:101C1000B6010E94EE4802C061E070E0CB0101977E
:101C2000F1F780E001C08DEE2091E7023091E802EB
:101C300030930B0320930A0301C08DEEFF90EF90C9
:101C4000DF90CF90BF90AF909F908F900895CF93EB
:101C5000DF9300D0CDB7DEB7DC0190910D0399235F
:101C600019F0913091F02AC0FA01608170E080E0B3
:101C700090E0AE014F5F5F4F0E94C81329813A8107
:101C800030930B0320930A031AC0E0910E03F091E6
:101C90000F038181282F26952695269530E0213047
:101CA000310561F48091E7029091E80290930B0373
:101CB00080930A0382818C9380E001C08DEE0F90A7
:101CC0000F90DF91CF91089540E250E061E270E023
:101CD00082E290E00C94270E20910D032130D1F484
:101CE000E0910E03F0910F034181242F2695269554
:101CF000269530E02130310569F42281FC012083F2
:101D00008091E7029091E80290930B0380930A037D
:101D100080E008958DEE089581E290E00C946C0EC1
:101D2000EF92FF921F93CF93DF93FC01DB017A01C7
:101D300080910E0390910F03EC016981462F469527
:101D40004695469550E04330510509F0A8C0609192
:101D5000100370911103EB011981412F46954695AF
:101D6000469550E04130510509F099C0EC014A8197
:101D70005B814130510509F094C0EC019E8196349D
:101D800009F46EC078F49334D9F128F49134D1F089
:101D9000923439F186C0943409F444C0953409F47E
:101DA00050C07FC0933661F128F4913659F09236D5
:101DB000C1F077C0953609F444C0A0F1963609F415
:101DC0004FC06FC0109721F082E290E08D939C93FA
:101DD000309721F080E290E09183808381E290E06F
:101DE0001DC0109721F085E290E08D939C93309771
:101DF00021F083E290E09183808384E290E03EC012
:101E0000109721F088E290E08D939C93309721F019
:101E100086E290E09183808387E290E0F7019183EE
:101E200080832FC0109721F08BE290E08D939C93DC
:101E3000309721F089E290E0918380838AE290E0FC
:101E40001DC0109721F08EE290E08D939C93309707
:101E500021F08CE290E0918380838DE290E0DECFF0
:101E6000109721F081E390E08D939C93309721F0BF
:101E70008FE290E09183808380E390E0E701998393
:101E80008883FB0182819381A481B581883091058B
:101E9000A105B10530F4E901888380E003C08DEE2F
:101EA00001C08EEEDF91CF911F91FF90EF900895CA
:101EB000CF93DF9300D000D01F92CDB7DEB78091D3
:101EC0000D038230B1F59E012B5F3F4FAE014F5F96
:101ED0005F4F60E070E0CE0103960E94900E81118A
:101EE00029C0E981FA81908121E030E00D8002C0B3
:101EF000220F331F0A94E2F7209529232083EB81D8
:101F0000FC81208130E00D8002C0359527950A9430
:101F1000E2F720FF05C02091F1023091F20204C0E7
:101F20002091EF023091F00230930B0320930A03CB
:101F300001C08DEE0F900F900F900F900F90DF91DA
:101F4000CF910895CF93DF9300D000D01F92CDB7EB
:101F5000DEB78091E7029091E80290930B038093A3
:101F60000A0380910D03833009F043C09E012B5F6B
:101F70003F4FAE014F5F5F4FBE016D5F7F4F80E00F
:101F800090E00E94900E811135C0E0911203F09113
:101F900013032181822F86958695869590E0813066
:101FA000910511F00F9729F5A981BA814C9181E033
:101FB00090E09C010D8002C0220F331F0A94E2F7CB
:101FC000242B2C9342815381648175813D81EB8167
:101FD000FC81208101C0880F3A95EAF7452B462BFA
:101FE000472B11F0822B02C080958223808380E0F2
:101FF00001C08DEE0F900F900F900F900F90DF911A
:10200000CF910895CF92DF92EF92FF920F931F939B
:10201000CF93DF93CDB7DEB728970FB6F894DEBF26
:102020000FBECDBF81E992E098878F8386E992E069
:102030009A83898342E450E060E087EE92E00E9458
:10204000243E88E080931E03BE016B5F7F4F86E0D5
:1020500090E00E94F9128111F6C0ED81FE81FC83AF
:10206000EB83808191819770986091838083128245
:10207000138214821582F093EA02E093E902BE0112
:102080006B5F7F4F86E090E00E94F9128111DBC008
:10209000ED81FE81FC83EB83808191819770986054
:1020A00091838083C12CD12C7601C394C282D382C8
:1020B000E482F582F093EC02E093EB02BE016B5FE9
:1020C0007F4F86E090E00E94F9128111BCC0ED8143
:1020D000FE81FC83EB83808191819770986091836E
:1020E00080838FEF9FEFDC0182839383A483B5838A
:1020F000F093EE02E093ED02BE016B5F7F4F86E04E
:1021000090E00E94F91281119EC0ED81FE81FC8356
:10211000EB8380819181977098679183808312828D
:10212000138214821582F093F002E093EF02BE0155
:102130006B5F7F4F86E090E00E94F912811183C0AF
:10214000ED81FE81FC83EB8380819181977098679C
:1021500091838083C282D382E482F582F093F2027B
:10216000E093F102BE016B5F7F4F82E090E00E943E
:10217000F912811168C0ED81FE81FC83EB838081BF
:102180009181977091838083F093E802E093E70256
:102190008E010D5F1F4F21E030E040E050E0BE01B6
:1021A000695F7F4F80E00E94984081114CC08B8115
:1021B0009C819093F4028093F30221E030E040E0B0
:1021C00050E0BE016F5F7F4F80E00E949840811118
:1021D0003AC08B819C8190932703809326031092B1
:1021E000F6021092F5028AE190E090930503809345
:1021F000040380910403909105039770906F90936E
:1022000005038093040310920903109208031092AF
:102210000B0310920A0310920C0310920D03C801D5
:102220000E94412B2B813C81309323032093220376
:1022300091E09093F70220EE33E03093FC0220937C
:10224000FB029093030328960FB6F894DEBF0FBEEF
:10225000CDBFDF91CF911F910F91FF90EF90DF9055
:10226000CF9008950F931F93CF93DF93CDB7DEB731
:102270002E970FB6F894DEBF0FBECDBF1E861D860B
:102280008BE992E09C878B8780EA92E09A87898726
:1022900086EA92E098878F831E821D828BEA92E005
:1022A0009A8389838E010B5F1F4F21E030E040E06D
:1022B00050E0BE016F5F7F4F80E00E949840811127
:1022C0006CC0BE016D5F7F4F8D819E810E94D72DB6
:1022D000811163C08B819C810E94462A81E00E940B
:1022E000F11581115AC0EB81FC8184819581909315
:1022F000F6028093F502085F1F4F21E030E040E0D6
:1023000050E0BE01655F7F4F80E00E9498408111E0
:1023100044C04091E7025091E8028091F50290910B
:10232000F6026D857E850E94E344811136C021E06E
:1023300030E040E050E0BE01675F7F4F0E94984070
:1023400081112BC04091EF025091F0028091F50273
:102350009091F6026D857E850E94E34481111DC037
:1023600021E030E040E050E0BE01695F7F4F0E9415
:102370009840811112C04091F1025091F202809177
:10238000F5029091F6026D857E850E94E3448111ED
:1023900004C08B819C810E9489132E960FB6F894FD
:1023A000DEBF0FBECDBFDF91CF911F910F9108957A
:1023B000EF92FF920F931F93CF93DF9300D000D043
:1023C0001F92CDB7DEB77C011C821B828BEA92E0A4
:1023D0009A8389838091F5029091F602892B11F4FA
:1023E0000E9432118E010D5F1F4F21E030E040E06E
:1023F00050E0BE016F5F7F4F80E00E9498408111E6
:1024000017C0BE016B5F7F4F8B819C810E94A4131C
:102410004091F5025091F6026B817C81F701848135
:1024200095810E94E344182F8D810E94A513812F6E
:102430000F900F900F900F900F90DF91CF911F9101
:102440000F91FF90EF900895CF93DF93FC0180816F
:1024500091818C7F4091D6025091D7026091D80231
:102460007091D902480F591F611D711D4093D6020A
:102470005093D7026093D8027093D902A091D402EE
:10248000B091D502109789F4F093D502E093D4026D
:10249000158214821382128232C014962D913C91BF
:1024A00015972115310549F0D9012D913C911197CE
:1024B0002C7F2817390788F309C0158214821596D6
:1024C000FC93EE931497B383A28319C0B583A483BE
:1024D00012968D919C911397938382831296CD913E
:1024E000DC911397209729F4F093D502E093D4025E
:1024F00002C0FD83EC831396FC93EE93129780E069
:10250000DF91CF910895CF92DF92EF92FF92CF9318
:10251000DF93EC016A017B019093CF028093CE029E
:102520004093D0025093D1026093D2027093D302B1
:102530001092D5021092D4021092D6021092D702B5
:102540001092D8021092D902CB01BA012CEF3FEFC2
:1025500040E050E00E9471486830710581059105A6
:1025600080F488819981837099278A609983888310
:10257000CE010E94241228E0C21AD108E108F10815
:1025800028962CEFC2162FEFD206E104F10488F052
:10259000888199818E6F9F6F99838883CE010E9475
:1025A000241224978CEFC81A8FEFD80AE108F1089B
:1025B000E8CF88E0C816D104E104F10480F08881F6
:1025C00099818370992782602CEFC2222CEFC2225E
:1025D000C82AD92AD982C882CE010E9424120E9418
:1025E000804180E0DF91CF91FF90EF90DF90CF901E
:1025F00008958F929F92AF92BF92EF92FF920F93A6
:102600001F93CF93DF937B018D3F27E09207F0F478
:102610008830910510F488E090E08C010D5F1F4F29
:10262000B8016C7FC091D402D091D502209759F0A7
:1026300028813981C9018C7FEC81FD81861797073C
:1026400038F4EF01F3CFF7011182108289EE56C002
:102650008090D6029090D702A090D802B090D90274
:10266000881A990AA108B1088092D6029092D702DE
:10267000A092D802B092D902309721F04A815B81B2
:1026800053834283AA81BB81109729F4F093D5022A
:10269000E093D40204C01596FC93EE931497861B26
:1026A000970B089718F1FE01E60FF71F2081318183
:1026B00023703327226031832083488159814C7FE6
:1026C000461B570B242B352B31832083CF010E94CF
:1026D0002412811113C0888199818170987F0C7FA9
:1026E0001770082B192B1983088304C02D7F3770AE
:1026F00039832883F701D183C08380E0DF91CF91B4
:102700001F910F91FF90EF90BF90AF909F908F908F
:102710000895FC012081318137702260318320834C
:102720000C9424126091D6027091D7028091D80245
:102730009091D90208956091D0027091D102809158
:10274000D2029091D3020895089508950F931F9394
:10275000CF93DF93EC018B0186E090E00E94F912A9
:10276000811111C0D801ED91FC9120813181377028
:102770003860318320834A815B816C817D81428313
:10278000538364837583DF91CF911F910F910895D7
:10279000CF92DF92EF92FF92CF93DF93EA01611520
:1027A00071058105910529F48091E9029091EA0271
:1027B00014C0613071058105910529F48091EB0207
:1027C0009091EC020AC06F3F2FEF720782079207C9
:1027D00039F48091ED029091EE029983888315C0BF
:1027E0006B017C01BA0186E090E00E94F912811130
:1027F0000DC0E881F9818081918197709860918303
:102800008083C282D382E482F58280E0DF91CF911F
:10281000FF90EF90DF90CF900895AB01FC016181B4
:10282000262F26952695269530E02130310531F466
:1028300062817381848195810C94C8138DEE089513
:102840000F931F93AB01FC016181262F26952695DE
:10285000269530E02130310589F482819381A4816D
:10286000B5818C019D0166277727CB01601B710B19
:10287000820B930B1F910F910C94C8138DEE1F9137
:102880000F910895AB01FC016181262F26952695B5
:10289000269530E02130310561F482819381A48155
:1028A000B581BC01CD0160957095809590950C9493
:1028B000C8138DEE0895CF93DF93CDB7DEB72C9775
:1028C0000FB6F894DEBF0FBECDBFFC014181242FAF
:1028D00026952695269530E02130310591F46281C8
:1028E0007381848195812CE0AE014F5F5F4F0E9420
:1028F0003A3E811107C0CE0101960E942E3E80E033
:1029000001C08DEE2C960FB6F894DEBF0FBECDBF82
:10291000DF91CF9108950F931F93CF93DF93CDB79E
:10292000DEB729970FB6F894DEBF0FBECDBFFC010E
:10293000628173818481958101E029E0AE014F5F5E
:102940005F4F0E94DB3E182FCE0101960E942E3E63
:10295000812F29960FB6F894DEBF0FBECDBFDF9151
:10296000CF911F910F9108958F929F92AF92BF9236
:10297000CF92DF92EF92FF92FA01DC0111964C9117
:10298000242F26952695269530E021303105D9F55E
:10299000DB0111964C911197242F269526952695AB
:1029A00030E02130310579F51296CD90DD90ED9033
:1029B000FC901597F7FC29C0DC0112968D909D9034
:1029C000AD90BC90159761E070E080E090E0C1149C
:1029D000D104E104F10461F09B01AC01C501B40133
:1029E0000E944D48B1E0CB1AD108E108F108EFCFC1
:1029F000AF01FF90EF90DF90CF90BF90AF909F908E
:102A00008F900C94C8138DEE01C08EEEFF90EF9066
:102A1000DF90CF90BF90AF909F908F9008954F928E
:102A20005F926F927F928F929F92AF92BF92CF925E
:102A3000DF92EF92FF921F93CF93DF93142FE90160
:102A4000FC014181242F26952695269530E02130E2
:102A5000310509F074C0FB014181242F269526958C
:102A6000269530E02130310509F069C082809380DD
:102A7000A480B58081149104A104B10409F461C05B
:102A8000FC014280538064807580F1E08F169104D0
:102A9000A104B104B9F12FEF82169206A206B20684
:102AA00041F4CC24DD247601C418D508E608F708E3
:102AB0002BC0C301B201A50194010E949348690192
:102AC0007A01A5019401C701B6010E944D48A301F6
:102AD0009201261B370B480B590BDA01C901B9F0DB
:102AE000B501A401482759276A277B2777FF0FC024
:102AF000880D991DAA1DBB1D31E0C31AD108E1083C
:102B0000F10805C07301620180E090E0DC011F3232
:102B100011F06C017D01AE01C701B601DF91CF91CB
:102B20001F91FF90EF90DF90CF90BF90AF909F905C
:102B30008F907F906F905F904F900C94C8138DEEA4
:102B400001C083EEDF91CF911F91FF90EF90DF9056
:102B5000CF90BF90AF909F908F907F906F905F903D
:102B60004F900895CF93DF9300D0CDB7DEB7E091BB
:102B70002203F091230382819381892B29F41092FF
:102B800025031092240325C08091DA028F5F809381
:102B9000DA02E0912203F091230390E02281338155
:102BA0008217930710F01092DA028091220390911D
:102BB00023036091DA0270E0AE014F5F5F4F0E9425
:102BC000CD2A29813A813093250320932403811152
:102BD00003C01092280380E00F900F90DF91CF91F7
:102BE00008952F923F924F925F926F927F928F92B1
:102BF0009F92AF92BF92CF92DF92EF92FF920F938C
:102C00001F93CF93DF93CDB7DEB7C555D1090FB66C
:102C1000F894DEBF0FBECDBF66968FAF66971A865B
:102C2000198618861F821E821D821C821B820E94AA
:102C3000B21581110C94082A10E080912403909120
:102C40002503892B49F466960FAD6697002311F48E
:102C50000C94002A0C942B2A80912803882331F0AD
:102C60000E94B215182F81110C942B2AA0912403D5
:102C7000B0912503E0912403F091250312966D9104
:102C80007C911397695F7F4F0280F381E02D8681ED
:102C90000E94840C90E0FC013197E438F10510F0BB
:102CA0000C94232AEE58FF4F0C94B248E091240371
:102CB000F0912503A281B3811F96ED91FC9150976D
:102CC00032975096FC93EE931F97808191819A875B
:102CD0008987B3CFE0912403F09125030280F3812B
:102CE000E02D0784F089E02D3297808191819A87C9
:102CF0008987E0912403F09125030280F381E02D80
:102D00000784F089E02DA0912403B0912503129649
:102D10000D90BC91A02D1F960D90BC91A02D1497E5
:102D20008D919C91329791838083E0912403F0915F
:102D300025030280F381E02D0784F089E02D898549
:102D40009A8534970C941B2AE0912403F091250373
:102D50000280F381E02D0784F089E02D3297808195
:102D600091819A878987E0912403F091250302805D
:102D7000F381E02D0784F089E02DA0912403B09128
:102D8000250312960D90BC91A02D1F960D90BC911D
:102D9000A02D14978D919C91329791838083E0911F
:102DA0002403F09125030280F381E02D0784F0894C
:102DB000E02DA0912403B091250312960D90BC91B3
:102DC000A02D1F960D90BC91A02D16978D919C91D2
:102DD000349791838083E0912403F091250302804E
:102DE000F381E02D0784F089E02D89859A85369757
:102DF0000C941B2AE0912403F09125030280F381B7
:102E0000E02D0784F089E02D3297808191819A87A7
:102E100089870C940A2AE0912403F091250302800B
:102E2000F381E02D0784F089E02D32978081918134
:102E30009A878987E0912403F09125030280F3812A
:102E4000E02D0784F089E02DA0912403B0912503A3
:102E500012960D90BC91A02D1F960D90BC91A02DA7
:102E600014978D919C91329791838083E0912403F4
:102E7000F09125030280F381E02D0784F089E02D95
:102E8000A0912403B091250312960D90BC91A02D22
:102E90001F960D90BC91A02D16978D919C91349703
:102EA00091838083E0912403F09125030280F381D4
:102EB000E02D0784F089E02DA0912403B091250333
:102EC00012960D90BC91A02D1F960D90BC91A02D37
:102ED00018978D919C91369791838083E09124037C
:102EE000F09125030280F381E02D0784F089E02D25
:102EF00089859A8538970C941B2AE0912403F091D8
:102F000025030280F381E02D0784F089E02D3297BC
:102F10000190F081E02D8181A82EA694A694A6941C
:102F2000B12CAA94AB2811F00C94292A86CEE091FA
:102F30002403F09125030280F381E02D0784F089BA
:102F4000E02D3297BE01695F7F4F808191810E94A1
:102F5000201471C3E0912403F0912503A281B38171
:102F60001F96ED91FC91509732975096FC93EE93FB
:102F70001F97808191819A8789870E94B22EE09164
:102F80002403F0912503A281B3811F96ED91FC915A
:102F90005097882361F0CF01029650969C938E93B0
:102FA0001F978091F1029091F2020C941B2ACF019D
:102FB000029650969C938E931F978091EF0290916A
:102FC000F0020C941B2AE0912403F0912503028067
:102FD000F381E02D0784F089E02D32970190F08194
:102FE000E02D81818695869586958D871E860D8537
:102FF0001E850130110511F00C94292AE09124035B
:10300000F09125030280F381E02D0784F089E02D03
:103010003297BE01695F7F4F808191810E94421487
:103020000AC3E0912403F0912503A0912403B091F9
:1030300025030280F381E02D0784F089E02D32978B
:10304000608171811296ED91FC9113970784F0894C
:10305000E02D3497808191810E94872A182F0C944B
:10306000ED20E0912403F0912503A0912403B09179
:1030700025030280F381E02D0784F089E02D32974B
:10308000608171811296ED91FC9113970784F0890C
:10309000E02D3497AE014B5F5F4F808191810E949C
:1030A000B414D6C5E0912403F09125030280F38186
:1030B000E02D0784F089E02D3297BE01675F7F4FD6
:1030C000808191810E94A13D182F81110C94E229E9
:1030D000E0912403F09125030280F381E02D078421
:1030E000F089E02D89859A850C94F725E0912403D9
:1030F000F09125030280F381E02D0784F089E02D13
:1031000032970190F081E02D818186958695869594
:103110008F87188A0F8518890130110511F00C94DA
:10312000292AE0912403F09125030280F381E02D08
:103130000784F089E02D34970190F081E02D8181A2
:10314000869586958695898B1A8A09891A89013010
:10315000110511F00C94292AE0912403F091250324
:1031600080912403909125030280F381E02D078450
:10317000F089E02D349720813181DC011296ED91A8
:10318000FC9113970784F089E02D32970190F0812C
:10319000E02DD90112962D913D914D915C9115979D
:1031A00062817381848195810E944D484CC5E09174
:1031B0002403F0912503A0912403B09125030280FC
:1031C000F381E02D0784F089E02D329760817181D1
:1031D0001296ED91FC9113970784F089E02D3497B6
:1031E0009E012B5F3F4F4FE21DC0E0912403F09101
:1031F0002503A0912403B09125030280F381E02DE3
:103200000784F089E02D3297608171811296ED91EB
:10321000FC9113970784F089E02D34979E012B5F72
:103220003F4F45E2808191810E940F1511C5E091C9
:103230002403F0912503809124039091250320918C
:103240002403309125030280F381E02D0784F08967
:10325000E02D349740815181DC011296ED91FC9173
:1032600013970784F089E02D329760817181D9012D
:103270001296ED91FC9113970784F089E02D369713
:1032800080819181A4C7E0912403F09125030280FD
:10329000F381E02D0784F089E02D32970190F081D1
:1032A000E02D81818695869586958B8B1C8A0B896E
:1032B0001C890130110509F048C0E0912403F09108
:1032C00025030280F381E02D0784F089E02D3497F7
:1032D0000190F081E02D81818695869586958D8B74
:1032E0001E8A0D891E890130110579F5E0912403AC
:1032F000F091250380912403909125030280F381AE
:10330000E02D0784F089E02D349720813181DC01A4
:103310001296ED91FC9113970784F089E02D329776
:103320000190F081E02DD90112964D915D916D9142
:103330007C91159782819381A481B5818A019B013B
:10334000080F191F2A1F3B1F7CC4E0912403F09132
:1033500025030280F381E02D0784F089E02D329768
:103360000190F081E02D81818695869586958F8BE1
:10337000188E0F89188D0330110511F00C94292A2D
:10338000E0912403F09125030280F381E02D07846E
:10339000F089E02D34970190F081E02D81818695B0
:1033A00086958695898F1A8E098D1A8D03301105A1
:1033B00011F00C94292AE0912403F0912503A091A7
:1033C0002403B09125030280F381E02D0784F08966
:1033D000E02D3297608171811296ED91FC911397E7
:1033E0000784F089E02D3497AE014B5F5F4F8081F9
:1033F00091810E948D412CC4E0912403F09125031A
:103400000280F381E02D0784F089E02D329701904E
:10341000F081E02D81818695869586958B8F1C8E17
:103420000B8D1C8D0130110511F00C94292AE091AF
:103430002403F09125030280F381E02D0784F089B5
:10344000E02D34970190F081E02D8181869586955D
:1034500086958D8F1E8E0D8D1E8D0130110511F0FC
:103460000C94292AE0912403F091250380912403F0
:10347000909125030280F381E02D0784F089E02DEF
:10348000349720813181DC011296ED91FC911397E4
:103490000784F089E02D329740815181F9018281C2
:1034A0009381A481B581FA01028113812481358140
:1034B000BC01CD01601B710B820B930BC4C3E09167
:1034C0002403F09125030280F381E02D0784F08925
:1034D000E02D34970190F081E02D818186958695CD
:1034E00086958F8F18A20F8D18A1E0912403F0917B
:1034F000250303311105E9F4A0912403B0912503BC
:103500000280F381E02D0784F089E02D32976081FD
:1035100071811296ED91FC9113970784F089E02D4B
:103520003497AE014B5F5F4F808191810E946A4565
:103530008FC30280F381E02D0784F089E02D32975C
:103540000190F081E02D818186958695869589A3ED
:103550001AA209A11AA101301105D9F0E0912403A2
:10356000F09125030280F381E02D0784F089E02D9E
:1035700032970190F081E02D818186958695869520
:103580008BA31CA20BA11CA10F30110511F00C94F0
:10359000292AE0912403F09125030280F381E02D94
:1035A0000784F089E02D3497808191819A878987FB
:1035B000E0912403F09125030280F381E02D07843C
:1035C000F089E02D32970190F081E02D62817381C6
:1035D0007C836B83AE014B5F5F4F0E94DE3C38C340
:1035E000E0912403F09125030280F381E02D07840C
:1035F000F089E02D32970190F081E02D8181869550
:10360000869586958DA31EA22DA13EA1E09124034F
:10361000F09125030280F381E02D0784F089E02DED
:1036200032972231310569F4BE01695F7F4F808195
:1036300091810E94C32B182F81110C94E2290C94C4
:10364000EB250190F081E02D818186958695869508
:103650008FA318A64FA158A54330510509F4EDCA10
:10366000E0912403F09125030280F381E02D07848B
:10367000F089E02D32970190F081E02D81818695CF
:103680008695869589A71AA689A59AA5049711F00B
:103690000C94292AD2CAE0912403F09125030280D8
:1036A000F381E02D0784F089E02D34970190F081BB
:1036B000E02D81818695869586958BA71CA60BA506
:1036C0001CA5E0912403F09125030280F381E02DF5
:1036D0000784F089E02D0231110509F05BC03297B3
:1036E0000190F081E02D81818695869586958DA744
:1036F0001EA60DA51EA501301105D9F0E0912403E9
:10370000F09125030280F381E02D0784F089E02DFC
:1037100032970190F081E02D81818695869586957E
:103720008FA718AA0FA518A90F30110511F00C9436
:10373000292AE0912403F09125038091240390919C
:10374000250320912403309125030280F381E02D8D
:103750000784F089E02D369740815181DC01129673
:10376000ED91FC9113970784F089E02D3297019039
:10377000F081E02D62817381D9011296ED91FC9167
:1037800013970784F089E02D3497808191810E94FE
:10379000C82B3EC034970190F081E02D8181869541
:1037A0008695869589AB1AAA09A91AA9033111052C
:1037B00011F00C94292AE0912403F09125038091C3
:1037C0002403909125032091240330912503028046
:1037D000F381E02D0784F089E02D369740815181F7
:1037E000DC011296ED91FC9113970784F089E02D8E
:1037F000329760817181D9011296ED91FC911397F6
:103800000784F089E02D3497808191810E94E34400
:10381000182F81110C94E229E0912403F0912503E3
:103820000280F381E02D87859089069737C5E09166
:103830002403F09125030280F381E02D0784F089B1
:10384000E02D32970190F081E02D8181869586955B
:1038500086958BAB1CAA0BA91CA90130110511F090
:103860000C94292AE0912403F09125030280F3812E
:10387000E02D0784F089E02D34970190F081E02D50
:1038800081818695869586958DAB1EAA0DA91EA968
:103890000130110511F00C94292AE0912403F091D4
:1038A000250380912403909125030280F381E02D6C
:1038B0000784F089E02D349720813181DC01129654
:1038C000ED91FC9113970784F089E02D32974081A8
:1038D0005181F90182819381A481B581BC01CD011F
:1038E000FA01028004C0660F771F881F991F0A948F
:1038F000D2F7A9C1E0912403F09125030280F3815E
:10390000E02D0784F089E02D32970190F081E02DC1
:1039100081818695869586958FAB18AE0FA918ADD7
:103920000130110511F00C94292AE0912403F09143
:1039300025030280F381E02D0784F089E02D349780
:103940000190F081E02D818186958695869589AFDD
:103950001AAE09AD1AAD0130110511F00C94292AE7
:10396000E0912403F0912503809124039091250395
:103970000280F381E02D0784F089E02D34972081C7
:103980003181DC011296ED91FC9113970784F08947
:10399000E02D329740815181F90182819381A48188
:1039A000B581BC01CD01FA01028004C095958795CF
:1039B000779567950A94D2F746C1E0912403F09178
:1039C00025030280F381E02D0784F089E02D3297F2
:1039D0000190F081E02D81818695869586958BAF4B
:1039E0001CAE0BAD1CAD0130110511F00C94292A51
:1039F000E0912403F09125030280F381E02D0784F8
:103A0000F089E02D34970190F081E02D8181869539
:103A1000869586958DAF1EAE0DAD1EAD013011059C
:103A200011F00C94292AE0912403F0912503809150
:103A30002403909125030280F381E02D0784F0890F
:103A4000E02D349720813181DC011296ED91FC91BB
:103A500013970784F089E02D32970190F081E02DD3
:103A6000D90112964D915D916D917C91159782814E
:103A70009381A481B5818A019B01082319232A23FC
:103A80003B23DFC0E0912403F09125030280F38102
:103A9000E02D0784F089E02D32970190F081E02D30
:103AA00081818695869586958FAF21961FAE219749
:103AB00021960EAD1FAD21970130110511F00C9428
:103AC000292AE0912403F09125030280F381E02D5F
:103AD0000784F089E02D34970190F081E02D8181F9
:103AE00086958695869522968FAF229723961FAE50
:103AF000239723960EAD1FAD23970130110511F0CA
:103B00000C94292AE0912403F09125038091240349
:103B1000909125030280F381E02D0784F089E02D48
:103B2000349720813181DC011296ED91FC9113973D
:103B30000784F089E02D32970190F081E02DD901C2
:103B400012964D915D916D917C9115978281938133
:103B5000A481B5818A019B01082719272A273B27C1
:103B600070C0E0912403F09125030280F381E02DE1
:103B70000784F089E02D32970190F081E02D81815A
:103B800086958695869524968FAF249725961FAEA9
:103B9000259725960EAD1FAD25970130110511F023
:103BA0000C94292AE0912403F09125030280F381EB
:103BB000E02D0784F089E02D34970190F081E02D0D
:103BC000818186958695869526968FAF269727962E
:103BD0001FAE279727960EAD1FAD27970130110511
:103BE00011F00C94292AE0912403F091250380918F
:103BF0002403909125030280F381E02D0784F0894E
:103C0000E02D349720813181DC011296ED91FC91F9
:103C100013970784F089E02D32970190F081E02D11
:103C2000D90112964D915D916D917C91159782818C
:103C30009381A481B5818A019B01082B192B2A2B22
:103C40003B2BC901B801AE014B5F5F4F0E94C81307
:103C5000182F81110C94E229E0912403F09125039F
:103C60000280F381E02D878590890297908B87876A
:103C700096C5E0912403F09125030280F381E02DA5
:103C80000184F285E02D8681813099F511110C9423
:103C9000E229A0912403B091250312960D90BC91C6
:103CA000A02D8281938150969C938E931F97A09113
:103CB0002403B091250312960D90BC91A02D848110
:103CC000958118969C938E931797A0912403B09199
:103CD000250312960D90BC91A02D878190851A9690
:103CE0009C938E931997CF010E948913182F0C94DF
:103CF0008029878090848114910441F2F887EF83B2
:103D0000CF010E948913182F81110C94E229F4012C
:103D1000BACFE0912403F0912503A281B3811F96CD
:103D2000ED91FC915097CF01029650969C938E9303
:103D30001F97A0912403B091250312960D90BC917A
:103D4000A02D1B968D919C911C970C941B2AE091A1
:103D50002403F0912503A281B3811F96ED91FC917C
:103D6000509732975096FC93EE931F9780819181E4
:103D700098878F83E0912403F09125030280F381DB
:103D8000E02DFA87E987A0912403B09125031296CC
:103D90000D90BC91A02D12962D913C911397232B41
:103DA00041F4E0912403F0912503148210E00C9477
:103DB000E52940912403509125032091240330915B
:103DC0002503D90112962D913C911397D901129692
:103DD0002D913C911397DA0113963C932E931297F1
:103DE000218920FD13C0E0912403F0912503A281D5
:103DF000B3811F96ED91FC9150979F012E5F3F4F2D
:103E000050963C932E931F979183808389859A8542
:103E10003FC0E0912403F09125030280F381E02D5F
:103E2000818592859A878987E0912403F091250303
:103E3000A0912403B09125030280F381E02D129616
:103E40000D90BC91A02D19960D90BC91A02D1796A8
:103E50002D913C91189732872187E0912403F091AE
:103E600025030280F381E02DDC0112962D913C9117
:103E70001397308B2787E0912403F091250302806C
:103E8000F381E02D14962D913C911597308727836F
:103E90000E94891381110C94E0290C941D16A091A5
:103EA0002403B0912503E0912403F0912503129699
:103EB0006D917C911397695F7F4F0280F381E02DB4
:103EC00086810E94AC2C9C838B83E0912403F0912B
:103ED00025030280F381E02D0480F581E02D02802E
:103EE000F381E02D0480F581E02D0296880F991F63
:103EF000E80FF91F6081718178876F83E091240357
:103F0000F0912503A0912403B09125030280F38151
:103F1000E02D0784F089E02D32974081518112967F
:103F2000ED91FC91139783859485A8C1E0912403BA
:103F3000F0912503A281B3811F96ED91FC915097DA
:103F400032975096FC93EE931F97808191819A87C8
:103F50008987BE016D5F7F4F0E94C03C182FA091E2
:103F60002403B0912503E0912403F09125031296D8
:103F70006D917C911397695F7F4F0280F381E02DF3
:103F80008681112321F00E94AC2C0C94E2290E941E
:103F9000AC2C2B813C818217930711F00C941F2AC3
:103FA0006B817C81615071097C836B8377FF02C0D8
:103FB0000C941C16AE01495F5F4F89859A850E945B
:103FC000DE3C182F81110C94E229E0912403F0913A
:103FD0002503A281B3811F96ED91FC915097CF01EB
:103FE000029650969C938E931F978F81988591830C
:103FF0008083D6CFA0912403B0912503E0912403C0
:10400000F091250312966D917C911397695F7F4F14
:104010000280F381E02D86810E94AC2C9C838B83EF
:10402000E0912403F09125030280F381E02D0784C1
:10403000F089E02D3297BE01695F7F4F80819181C9
:104040000E946A3D182F8F3E09F035C7E091240386
:10405000F09125030280F381E02D878590890297F6
:10406000908B8787E0912403F09125030280F381F0
:10407000E02D278130858B819C81820F931F908753
:1040800087830C941C16A0912403B0912503E09122
:104090002403F091250312966D917C911397695F2B
:1040A0007F4F0280F381E02D86810E94AC2C9C839F
:1040B0008B83E0912403F09125030280F381E02DAE
:1040C0000784F089E02D32970190F081E02D218165
:1040D00026952695269528962FAF289729961FAEC8
:1040E000299729960EAD1FAD29970830110509F1C2
:1040F000E0912403F09125030280F381E02D0784F1
:10410000F089E02D32970190F081E02D21812695F4
:10411000269526952A962FAF2A972B961FAE2B977A
:104120002B960EAD1FAD2B970630110511F00C9498
:10413000212AE0912403F09125030280F381E02DF0
:104140000784F089E02D32970190F081E02DA48161
:10415000B581B887AF8311962C9111972695269536
:1041600026952C962FAF2C972D961FAE2D972D961A
:104170000EAD1FAD2D970331110511F00C94232ABC
:10418000E0912403F09125030280F381E02D048067
:10419000F581E02D0280F381E02D248135810296A6
:1041A000880F991FF901E80FF91F608171817E83E3
:1041B0006D83E0912403F09125030280F381E02DCB
:1041C0000784F089E02D349740815181CD010E9410
:1041D000E344182F81110C94E229E0912403F0911B
:1041E00025030280F381E02D87859089049756C0CE
:1041F000A0912403B0912503E0912403F0912503BD
:1042000012966D917C911397695F7F4F0280F381C5
:10421000E02D86810E94AC2C9C838B83E09124034B
:10422000F09125030280F381E02D0480F581E02DDB
:104230000280F381E02D0480F581E02D0296880F45
:10424000991FE80FF91F6081718178876F83E09172
:104250002403F0912503A0912403B091250302804B
:10426000F381E02D0784F089E02D32974081518160
:104270001296ED91FC911397858596850E94E344F3
:10428000182F81110C94E229E0912403F091250369
:104290000280F381E02D878590890297908B878734
:1042A0000C941D16A0912403B0912503E0912403E2
:1042B000F091250312966D917C911397695F7F4F62
:1042C0000280F381E02D86810E94AC2C9C838B833D
:1042D000E0912403F09125030280F381E02D07840F
:1042E000F089E02D3297208131813A872987E0914A
:1042F0002403F09125030280F381E02D0784F089E7
:10430000E02D34972081318138872F83E091240379
:10431000F09125030280F381E02D0784F089E02DE0
:104320003697208131813E832D83833091059CF027
:10433000E0912403F0912503A281B3811F96ED91B2
:10434000FC915097CF01029650969C938E931F97A5
:104350003183208303C082309105A9F4E0912403C6
:10436000F0912503A281B3811F96ED91FC915097A6
:10437000CF01029650969C938E931F978F819885BC
:104380009183808359C1019711F00C941D1654C17B
:10439000A0912403B0912503E0912403F09125031B
:1043A00012966D917C911397695F7F4F0280F38124
:1043B000E02D86810E94AC2C9C838B83E0912403AA
:1043C000F09125030280F381E02DA785B0899D013E
:1043D0002E5F3F4F308B2787E0912403F091250318
:1043E0000280F381E02D0480F581E02D0280F381CD
:1043F000E02D268137810296F5C5A0912403B09166
:104400002503E0912403F091250312966D917C9190
:104410001397695F7F4F0280F381E02D86810E94B0
:10442000AC2C9C838B83E0912403F09125030280C4
:10443000F381E02D0480F581E02D0280F381E02DF1
:104440000480F581E02D0296880F991FE80FF91F6F
:10445000608171817A876987E0912403F091250357
:104460000280F381E02DAE01495F5F4F8385948523
:104470000E946A45182F883E09F01DC5E09124036B
:10448000F091250369857A850280F381E02DAE01E4
:10449000495F5F4F858596850E946A45182F883E43
:1044A00009F009C58091F5029091F602892B09F077
:1044B000F3C488C7A0912403B0912503E09124039D
:1044C000F091250312966D917C911397695F7F4F50
:1044D0000280F381E02D86810E94AC2C9C838B832B
:1044E000BE01675F7F4F0E944E42182F81116AC73D
:1044F0008B819C819C01AC01440F551FE985FA8595
:10450000E40FF51F21503109329737FD19C0A091F2
:104510002403B091250312964D915C911397DA0113
:104520001F966D917C9150976250710950967C93C3
:104530006E931F97DB014D915C9155834483E2CFCD
:104540009C012150310997FF02C080E090E0F90101
:10455000E81BF90BFC83EB836FC0A0912403B0919F
:104560002503E0912403F091250312966D917C912F
:104570001397695F7F4F0280F381E02D86810E944F
:10458000AC2C9C838B83CE0109960E94412B182F63
:10459000811118C72B813C81215031093C832B8329
:1045A00089859A8537FD36C7BE01645F7F4F0E94BB
:1045B000A413E0912403F09125030280F381E02D00
:1045C0000784F089E02D32974081518160E070E0EE
:1045D00089859A850E94E92A982E8C850E94A513C8
:1045E000911033C7E0912403F09125030280F381F9
:1045F000E02D878590890297908B8787CBCFA091FC
:104600002403B0912503E0912403F0912503129631
:104610006D917C911397695F7F4F0280F381E02D4C
:1046200086810E94AC2C9C838B83CE0109960E94CC
:104630007944182F8111C6C6E0912403F091250317
:10464000A281B3811F96ED91FC915097CF01029604
:1046500050969C938E931F9789859A85ECC6A0915E
:104660002403B0912503E0912403F09125031296D1
:104670006D917C911397695F7F4F0280F381E02DEC
:1046800086810E94AC2C9C838B83E0912403F09163
:1046900025030280F381E02D0784F089E02D329715
:1046A0000190F081E02D21812695269526952E9664
:1046B0002FAF2E972F961FAE2F972F960EAD1FADB3
:1046C0002F970830110501F1E0912403F0912503A3
:1046D0000280F381E02D0784F089E02D329701906C
:1046E000F081E02D218126952695269560962FAFA5
:1046F000609761961FAE619761960EAD1FAD619791
:104700000630110509F09DC6E0912403F0912503C0
:104710000280F381E02D0784F089E02D329701902B
:10472000F081E02DA481B581BA87A98711962C91DB
:10473000119726952695269562962FAF62976396D8
:104740001FAE639763960EAD1FAD639703311105DE
:1047500009F079C6E0912403F09125030280F381EA
:10476000E02D0480F581E02D0280F381E02D24818D
:1047700035810296880F991FF901E80FF91F6081B2
:10478000718178876F83AE014B5F5F4FCD010E94CF
:104790006A45182F883E09F454C6811113C6E0916A
:1047A0002403F09125030280F381E02D0784F08932
:1047B000E02D8D819E811BC2A0912403B091250321
:1047C000E0912403F091250312966D917C9113974B
:1047D000695F7F4F0280F381E02D86810E94AC2CBF
:1047E0009C838B83E0912403F09125030280F38165
:1047F000E02D0784F089E02D32970190F081E02DC3
:10480000218126952695269564962FAF6497659607
:104810001FAE659765960EAD1FAD6597013011050A
:10482000C9F0E0912403F09125030280F381E02D8B
:104830000784F089E02D32970190F081E02D2181ED
:10484000222E269426942694312C1FE02116310422
:1048500009F087C0E0912403F09125030280F381E1
:10486000E02D0784F089E02D34970190F081E02D50
:104870002181422E469446944694512C4A944528D0
:10488000C9F0E0912403F09125030280F381E02D2B
:104890000784F089E02D34970190F081E02D21818B
:1048A000622E669466946694712C3FE063167104E0
:1048B00009F057C0E0912403F09125030280F381B1
:1048C000E02D0784F089E02D34970190F081E02DF0
:1048D0004281538164817581E0912403F091250325
:1048E0000280F381E02D0784F089E02D329701905A
:1048F000F081E02D02811381248135818A30910578
:1049000008F0A1C5FC01EA50FF4F0C94B2484017D3
:104910005107620773070CF4DFC0E3C004171507E3
:10492000260737070CF0D8C0DCC0401751076207D4
:10493000730709F0D6C0D0C040175107620773074C
:1049400009F0CAC0CEC004171507260737070CF4B4
:10495000C3C0C7C040175107620773070CF0BCC043
:10496000C0C08830910540F48630910508F040C001
:104970000297029748F067C58830910509F46DC029
:10498000099709F48AC05FC58091EF029091F00207
:104990009E838D83E0912403F0912503A09124034D
:1049A000B09125030280F381E02D0784F089E02D8A
:1049B0003497608171811296ED91FC911397078471
:1049C000F089E02D3297808191810E94D92E81114A
:1049D00006C08B819C81029709F089C07DC08F3F02
:1049E00009F085C08B819C81039709F080C074C059
:1049F0008091EF029091F0029E838D83E0912403D9
:104A0000F0912503A0912403B09125030280F38146
:104A1000E02D0784F089E02D349760817181129632
:104A2000ED91FC9113970784F089E02D32978081F6
:104A300091810E942E2F182F811106C08B819C819D
:104A4000069709F054C048C08F3F09F0BBC48B8162
:104A50009C81079709F04BC03FC0A0912403B091FF
:104A60002503E0912403F091250312960D90BC914B
:104A7000A02D1F960D90BC91A02D12970280F3815E
:104A8000E02D0784F089E02D34972D913C918081B1
:104A900091812817390729F51FC0A0912403B091EF
:104AA0002503E0912403F091250312960D90BC910B
:104AB000A02D1F960D90BC91A02D12970280F3811E
:104AC000E02D0784F089E02D34972D913C91808171
:104AD00091812817390729F08091F1029091F20213
:104AE00004C08091EF029091F0029E838D83E0914B
:104AF0002403F09125030280F381E02D87859089BE
:104B00000297908B8787E0912403F0912503028020
:104B1000F381E02D0784F089E02D8D819E8132970D
:104B2000918380830C941C16A0912403B0912503DB
:104B3000E0912403F091250312966D917C911397D7
:104B4000695F7F4F0280F381E02D86810E94AC2C4B
:104B50009C838B83E0912403F09125030280F381F1
:104B6000E02D0480F581E02D0280F381E02D0480AA
:104B7000F581E02D0296880F991FE80FF91F8081BB
:104B800091819A878987E0912403F091250302801F
:104B9000F381E02D878590890297908B87876091BC
:104BA0002603709127038091F5029091F602AE01E1
:104BB0004B5F5F4F0E946A45182F811103C46985BE
:104BC0007A85AE01495F5F4F8D819E810E946A4563
:104BD000182F81110EC0E0912403F091250302806B
:104BE000F381E02D0784F089E02D8F81988532973D
:104BF00022C4883E09F0E6C3BE01695F7F4F898504
:104C00009A850E94D72D182F8111DCC3BE01645FE5
:104C10007F4F8F8198850E94A4134F8158856985A5
:104C20007A858D819E810E94E344182F8C850E9495
:104C3000A5131111C7C3E0912403F091250302804D
:104C4000F381E02D0784F089E02D8F8198853297DC
:104C500091838083BE01645F7F4F8F8198850E941E
:104C6000A413BE016B5F7F4F8F8198850E9492468F
:104C7000182F8C850E94A5131111A4C3ED81FE810C
:104C8000A0912403B091250312968D919C911397C6
:104C90009383828381898160818BA0912403B09169
:104CA00025031396FC93EE9312970C941D16A09176
:104CB0002403B0912503E0912403F091250312967B
:104CC0006D917C911397695F7F4F0280F381E02D96
:104CD00086810E94AC2C9C838B83E0912403F0910D
:104CE00025030280F381E02D278130858FC0A091BC
:104CF0002403B0912503E0912403F091250312963B
:104D00006D917C911397695F7F4F0280F381E02D55
:104D100086810E94AC2C9C838B83E0912403F091CC
:104D200025030280F381E02D0784F089E02D32977E
:104D3000808191810E94B22E882311F40C941D165B
:104D400028C0A0912403B0912503E0912403F091A1
:104D5000250312966D917C911397695F7F4F0280B6
:104D6000F381E02D86810E94AC2C9C838B83E091A3
:104D70002403F09125030280F381E02D0784F0895C
:104D8000E02D3297808191810E94B22E81110C9486
:104D90001D16E0912403F09125030280F381E02D9C
:104DA000278130858B819C8131C0A0912403B091F3
:104DB0002503E0912403F091250312966D917C91D7
:104DC0001397695F7F4F0280F381E02D86810E94F7
:104DD000AC2C9C838B83E0912403F0912503A0915C
:104DE0002403B09125030280F381E02D12960D90EB
:104DF000BC91A02D14960D90BC91A02D12960D90F3
:104E0000BC91A02D18962D913C911997820F931F5C
:104E1000908787830C941D16A0912403B0912503DD
:104E2000E0912403F091250312966D917C911397E4
:104E3000695F7F4F0280F381E02D86810E94AC2C58
:104E40009C838B83E0912403F09125030280F381FE
:104E5000E02D0480F581E02D0280F381E02D0480B7
:104E6000F581E02D0296880F991FE80FF91F6081E8
:104E700071817A876987E0912403F091250302808C
:104E8000F381E02DAE01495F5F4F858596850E94D5
:104E90006A45182F883E79F48091F5029091F602C8
:104EA00069857A85AE01495F5F4F0E946A45182F78
:104EB000883E09F4CCC2112309F46FC283C2A091C9
:104EC0002403B0912503E0912403F0912503129669
:104ED0006D917C911397695F7F4F0280F381E02D84
:104EE00086810E94AC2C9C838B83BE016F5F7F4FB9
:104EF00089E090E00E94F912182F811163C2E981C4
:104F0000FA81FA87E987808191819770906D91830A
:104F10008083A0912403B091250312960D90BC913B
:104F2000A02D1F968D919C91509793838283A09181
:104F30002403B091250312960D90BC91A02D1796D5
:104F40002D913C9118978B819C81820F931F9583A3
:104F5000848341E04683A0912403B09125031296F7
:104F60000D90BC91A02D19968D919C911A979087C8
:104F70008783A0912403B091250312960D90BC91D4
:104F8000A02D1A96FC93EE9319970C941D16A091E0
:104F90002403B0912503E0912403F0912503129698
:104FA0006D917C911397695F7F4F0280F381E02DB3
:104FB00086810E94AC2C9C838B83E0912403F0912A
:104FC00025030280F381E02DA785B0899D012E5F26
:104FD0003F4F308B2787E0912403F09125032281F6
:104FE00033810996880F991FF901E80FF91F808115
:104FF00091818D939C930C941D16A0912403B091E4
:105000002503E0912403F091250312966D917C9184
:105010001397695F7F4F0280F381E02D86810E94A4
:10502000AC2C9C838B83E0912403F0912503428177
:105030005381E0912403F0912503A281B3811F964F
:10504000ED91FC91509732975096FC93EE931F97F9
:10505000208131810996880F991FFA01E80FF91F05
:10506000318320830C941D16A0912403B091250355
:10507000E0912403F091250312966D917C91139792
:10508000695F7F4F0280F381E02D86810E94AC2C06
:105090009C838B839C012227232B09F0D4C1E091B0
:1050A0002403F09125030280F381E02D80959095F3
:1050B000880F991F0784F089E02DE80FF91F808180
:1050C00091819A878987BE01645F7F4F0E94A413F4
:1050D000E985FA858181C82EC694C694C694D12CE0
:1050E00058E0C516D10409F005C1A281B38111961B
:1050F0008C911197E82EE694E694E694F12C85E0E5
:10510000E816F10409F076C02B813C8133271B9609
:105110008C9190E02817390709F09BC1BE01695FA7
:105120007F4FCF010E949246182FBE01655F7F4FCF
:105130008F8198850E94A4131111DFC08B819C81FF
:105140009C01AC01440F551FEF81F885E40FF51F5A
:1051500021503109329737FD19C0A0912403B09135
:10516000250312964D915C911397DA011F966D916C
:105170007C9150976250710950967C936E931F9763
:10518000DB014D915C91538B428BE2CF9C0121500E
:10519000310997FF02C080E090E0F901E81BF90BAC
:1051A000FC83EB83E0912403F0912503A281B3817A
:1051B0001F96ED91FC91509732975096FC93EE9389
:1051C0001F97808191819E838D83EF81F885A091C7
:1051D0002403B091250312968D919C91139793838C
:1051E0008283A0912403B09125031396FC93EE9340
:1051F000129783C00CE0E016F10409F07EC08B81A9
:105200009C8180930D039C012150310937FD20C002
:10521000A0912403B091250312968D919C91139730
:10522000DC011F964D915C91509742505109509668
:105230005C934E931F97DA018D919C91D901AA0F2F
:10524000BB1FAF50BD4F5E969C938E935D97DCCF96
:10525000B1E0B0930C03A0912403B0912503129602
:105260000D90BC91A02D1F968D919C915097029707
:1052700050969C938E931F970280F381E02DF887C0
:10528000EF83238134813C832B838091240390918D
:10529000250337FD06C0220F331FF901E65EFD4FDF
:1052A00008C0EE27FF27E21BF30BEE0FFF1FE25FA4
:1052B000FD4F0190F081E02D02960995182F109274
:1052C0000C038B3FC9F0E0912403F0912503A281E8
:1052D000B3811F96ED91FC915097CF0102965096A5
:1052E0009C938E931F9780910A0390910B03918357
:1052F000808303C01DEE01C010E08C850E94A513C1
:10530000111160C00C941C16A0912403B0912503C8
:10531000E0912403F091250312966D917C911397EF
:10532000695F7F4F0280F381E02D86810E94AC2C63
:105330009C838B83A0912403B0912503E0912403E7
:10534000F091250312960D90BC91A02D1D966D91A4
:105350007C911E970280F381E02D0784F089E02D77
:105360003297AE01495F5F4F808191810E94134760
:10537000182F811127C08B819C81181619060CF4F7
:1053800062C0E0912403F09125030280F381E02DB7
:10539000878590890297908B8787E0912403F0910D
:1053A0002503A281B3811F96ED91FC915097CF0107
:1053B000029650969C938E931F978F8198853BC041
:1053C000112319F0812F0E94D60CE0912203F09155
:1053D000230382819381029710F411113CC06091E4
:1053E00024037091250380912203909123030E944E
:1053F0003C2C182F109225031092240381112BC0EE
:105400000E94B215182F882311F40C941C1623C087
:10541000182F21C0E0912403F0912503A281B381CC
:105420001F96ED91FC9150979F012E5F3F4F509634
:105430003C932E931F97918380830C941D161EEE30
:10544000C1CF15EEBFCF1CEEBDCF192DBBCF1AEECD
:10545000B9CF1DEEB7CF812FCB5ADF4F0FB6F894DF
:10546000DEBF0FBECDBFDF91CF911F910F91FF9097
:10547000EF90DF90CF90BF90AF909F908F907F90F4
:105480006F905F904F903F902F9008951F93CF9310
:10549000DF9300D000D000D0CDB7DEB7BE016D5F86
:1054A0007F4F0E949246811125C0BE016A5F7F4FE7
:1054B0008B819C810E94A413BE016F5F7F4F8B8103
:1054C0009C810E942242182F811110C0BE016B5F87
:1054D0007F4F89819A810E94A41380912203909129
:1054E000230369817A810E94872A182F8E810E9466
:1054F000A513812F26960FB6F894DEBF0FBECDBF41
:10550000DF91CF911F910895809328030895EF9222
:10551000FF920F931F93CF93DF931F92CDB7DEB708
:10552000FC014181242F26952695269530E02231D5
:10553000310551F58B017C0182819381892BD9F052
:10554000BE016F5F7F4FF701848195810E94A41394
:10555000B801F701848195810E94D03B182F898181
:105560000E94A51311110EC0F7018281938101964B
:105570009383828307C0CF0104960E94D53B882382
:10558000F9F203C0812F01C08DEE0F90DF91CF9112
:105590001F910F91FF90EF900895FC012181822FC0
:1055A00086958695869590E0429779F482819381DD
:1055B00077FF04C0680F791F77FD09C06817790766
:1055C00030F4848195810C94113B8DEE089587EE23
:1055D0000895CF92DF92EF92FF920F931F93CF9394
:1055E000DF931F92CDB7DEB77C016A01FC012181F8
:1055F000822F86958695869590E04297A9F58281BF
:10560000938177FF06C0680F791F77FF02C060E0C3
:1056100070E08B01861797070CF48C01892BE9F059
:10562000BE016F5F7F4FF701848195810E94A413B3
:10563000A801B601F701848195810E943B3B182F98
:1056400089810E94A513111111C0F70182819381F4
:1056500001969383828380E00AC0C70104960E946A
:10566000D53B8823E9F203C08DEE01C0812F0F9056
:10567000DF91CF911F910F91FF90EF90DF90CF902E
:105680000895CF93DF93EC01BC0186E090E00E9487
:10569000F91281110CC0E881F981208131813770C4
:1056A0003069318320831382128215821482DF9144
:1056B000CF9108957F928F929F92AF92BF92CF9297
:1056C000DF92EF92FF920F931F93CF93DF9300D05F
:1056D0001F92CDB7DEB77C016B015A011A82198285
:1056E000FC012181822F86958695869590E04297D0
:1056F000A1F582809380CA010E94412B811132C0A2
:105700001C141D0474F500E010E0081519050CF5D3
:10571000AE014F5F5F4FB801C7010E94CD2A8111D2
:1057200021C0BE016D5F7F4FF501808191810E9494
:10573000A41369817A81F501808191810E94872A71
:10574000782E8B810E94A513711009C00F5F1F4F27
:10575000DCCFF1E0CF1AD108D3CF8DEE03C0872D77
:1057600001C080E00F900F900F90DF91CF911F91BB
:105770000F91FF90EF90DF90CF90BF90AF909F90F0
:105780008F907F900895AB0161E070E00C945A2BEC
:10579000FC019B01BA014181842F869586958695EF
:1057A00090E0429781F48281938137FF04C0280FF3
:1057B000391F37FD0AC02817390738F4A901848139
:1057C00095810C94F43B8DEE089587EE0895AF9289
:1057D000BF92CF92DF92EF92FF920F931F93CF93DE
:1057E000DF9300D0CDB7DEB7DC011196EC911197B5
:1057F0002E2F26952695269530E02231310561F52C
:1058000012962D913C911397232B41F16A017B0154
:10581000FC01A480B58000E010E0D50112968D91C6
:105820009C91139708171907C8F4AE014F5F5F4F9B
:10583000B801C5010E94113B811111C0B7018981D6
:105840009A810E94D92E811104C0F6011183008330
:1058500006C00F5F1F4FE1CF8DEE01C08EEE0F909F
:105860000F90DF91CF911F910F91FF90EF90DF90FC
:10587000CF90BF90AF9008950F931F93CF93DF9376
:1058800000D0CDB7DEB7FC014181242F26952695A7
:10589000269530E022313105D9F48C01AE014F5FFD
:1058A0005F4F0E94E72B811114C069817A81F80152
:1058B000848195810E94183CF80122813381215016
:1058C000310933832283232B21F41582148201C0F2
:1058D0008DEE0F900F90DF91CF911F910F91089552
:1058E000CF93DF93EC012981822F8695869586954B
:1058F00090E04297D1F48A819B8177FF04C0680FC2
:10590000791F77FD14C06817790788F48C819D8111
:105910000E94183C2A813B81215031093B832A8314
:10592000232B31F41D821C8203C08DEE01C087EE53
:10593000DF91CF910895FC012181822F8695869574
:10594000869590E0429731F4138212821582148278
:1059500080E008958DEE08950F931F93CF93DF930A
:10596000D82F8B010E94840CC82FB8018D2F0E9464
:10597000840C2C2F30E0A901582BCA01DF91CF9164
:105980001F910F910895EF92FF920F931F93CF9362
:10599000DF93182F7B010E94AC2CEC01B701812F03
:1059A0000E94AC2CA0E0B0E0DC0199278827AE0172
:1059B00060E070E08C019D01042B152B262B372B0A
:1059C000C901B801DF91CF911F910F91FF90EF9026
:1059D0000895DF92EF92FF920F931F93CF93DF937F
:1059E000D82E8B017A01E901811119C0DA016D917C
:1059F0007C91A901F801808191810E94E23DD7014B
:105A00008D919C9111978C0F9D1F8D939C93F80104
:105A100080819181C80FD91FD183C08313C0209783
:105A200089F0B7018D2D0E94840CD801ED91FC9175
:105A3000119780838D919C91119701968D939C93E2
:105A40002197EDCFDF91CF911F910F91FF90EF90B4
:105A5000DF900895FF920F931F93CF93DF9300D0B1
:105A6000CDB7DEB7F82E8B01811104C0CB010E94A7
:105A7000ED3D0FC07A836983BE016F5F7F4F8F2D2D
:105A80000E94840C8111F8CF89819A81801B910B2F
:105A900001970F900F90DF91CF911F910F91FF9081
:105AA0000895CF92DF92FF920F931F93CF93DF93CE
:105AB000F42E6901EC018C01060F171FC017D107E6
:105AC00049F0B6018F2D0E94840C99918917B1F38A
:105AD0008FEF01C080E0DF91CF911F910F91FF9078
