:100000000C94ED0E0C940C0F0C940C0F0C940C0F24
:100010000C940C0F0C940C0F0C940C0F0C944F0FB1
:100020000C940C0F0C940C0F0C940C0F0C940C0FE4
:100030000C940C0F0C940C0F0C940C0F0C940C0FD4
:100040000C940C0F0C940C0F0C940C0F0C940C0FC4
:100050000C940C0F0C940C0F0C940C0F0C940C0FB4
:100060000C940C0F0C940C0F0C940C0F0C940C0FA4
:100070000C940C0F0C940C0F0C940C0F0C940C0F94
:100080000C940C0F0C940C0F0C940C0F0C940C0F84
:100090000C940C0F0C940C0F0C940C0F0C940C0F74
:1000A0000C940C0F0C940C0F0C940C0F0C940C0F64
:1000B0000C940C0F0C940C0F0C940C0F0C940C0F54
:1000C0000C940C0F0C940C0F0C940C0F0C940C0F44
:1000D0000C940C0F0C940C0F0C940C0F0C940C0F34
:1000E0000C940C0F0C940C0F0C940C0FEF16EF16D5
:1000F000EF16EF16F716221743177D1743177D17D4
:1001000062186218EF161E186218EF16EF166617BF
:1001100012171A17621862186218621862188E177E
:1001200004186218D1171E1829184C36341D6E1D7C
:10013000C41DD51D4E3F4E3F4E3FF81C471E631E4B
:10014000761EAF1E4E3FD41E4E3F4E3F4E3F221FE7
:100150009B1F1C213A21BE217622D8221C214E3F12
:100160001C214E3F6923BE23BE23BE234E3F4E3F7C
:100170004E3F4E3F4E3F4E3F4E3F4E3F4E3F4E3F17
:100180004E3F4E3F4E3F4E3F4E3F4E3F4E3F4E3F07
:100190004E3F4E3F9121BE2176229B1F1C213A21CA
:1001A00051242D25F1255F26CE263F27B027221F7B
:1001B000441F4E3F3928392873284E3F4E3FF125C2
:1001C0005F26CE263F27B02783284E3F0E292C29B5
:1001D000B2294E3FD029032A4E3F492A8B2AD128E3
:1001E000D22A362B021FF72B1B2D2C2E862EBF2E2C
:1001F000352F6B2FDA2F2E304E3F8430B630A6329B
:1002000090345835B735D73525368736D735253626
:10021000BE364E3F4E3F873603374E3F4E3F4E3F32
:100220006C37A237D0374E3F4E3F4E3FF1379738AD
:10023000D73C4E3F693D263E263E643E80338733A1
:100240008E3395339C33A3335E3F5E3F293449346C
:10025000304523452E451B451B452E452E452E4535
:100260002E452E452E452E452E452E452E45234501
:100270002E452E451B451B4553465B46AC465E4608
:100280006A46844684468446844684468446844638
:1002900084468446AC467346844684466D46704622
:1002A000AC46AC46AC46AC46AC46AC46AC46AC46BE
:1002B000AC46844625640A0046696C654964203072
:1002C0007825303258206C696E65200025733A001D
:1002D00020646574656374656420627920004572EA
:1002E000726F7220636F6465203078253032580059
:1002F000257300202046696C6520222573222C205E
:100300006C696E652025642C20696E2025730A00B7
:10031000202025732829205F5F4E41544956455FB0
:100320005F0A002020556E61626C6520746F206743
:100330006574206E61746976652066756E63206EE3
:10034000616D652E0054726163656261636B202884
:100350006D6F737420726563656E742063616C6C7D
:10036000206669727374293A0057044C04440432BD
:1003700004230414040804FD03F403E803DE03D299
:1003800003C603BC03B103A3039B038D034F766530
:1003900072666C6F774572726F72005761726E6928
:1003A0006E670053746F70497465726174696F6E23
:1003B0000056616C75654572726F72005479706594
:1003C0004572726F720053797374656D4572726F06
:1003D000720053796E7461784572726F72004E616B
:1003E0006D654572726F72004D656D6F7279457201
:1003F000726F72004B65794572726F7200496E645C
:1004000065784572726F7200496D706F72744572D3
:10041000726F7200417474726962757465457272AC
:100420006F7200417373657274696F6E4572726F9B
:1004300072005A65726F4469766973696F6E4572AE
:10044000726F7200496F4572726F720053797374E4
:10045000656D4578697400457863657074696F6E81
:10046000005D0553054C0544053D0534052D052764
:10047000052105180509050205FB04F504EC04E651
:1004800004DC04D604CD04C504BF04BA04B104A935
:1004900004A10495046279746561727261792E63B6
:1004A00000636C6173732E6300666C6F61742E63FE
:1004B000007468726561642E6300706D2E63007352
:1004C00065712E63007475706C652E6300737472B1
:1004D0006F626A2E6300736C692E63007365676CCC
:1004E0006973742E63006F626A2E63006D6F6475AA
:1004F0006C652E63006D656D2E63006D61696E2EF7
:1005000063006C6973742E6300706D7374646C693E
:10051000625F6E61742E6300696E746572702E6323
:1005200000696E742E6300696D672E6300686561F3
:10053000702E6300676C6F62616C2E630066756E6F
:10054000632E63006672616D652E63006469637477
:100550002E6300636F64656F626A2E63003C6E6F8A
:100560002066696C653E000AA60000400400000D8C
:1005700000040603030069706D03030061767203D3
:1005800003004C454403030042544E0303007069CA
:100590006E0304006D61696E0304000C010C01031D
:1005A00008006D61696E2E707900040501FFFFFF80
:1005B000FF000303004C454403030042544E030371
:1005C0000070696E04006400006401006C00005A51
:1005D00000006400006401006C01005A0100650025
:1005E000006A00006903006501006A0200640200FD
:1005F000366501006A0300640300366501006A0481
:10060000006404003683010001640100530ACF0333
:100610000040030000EC0004090307005F5F646F03
:10062000635F5F0303004C65640303004C454403B0
:100630000600427574746F6E03030042544E030B40
:10064000006469676974616C5265616403030070DA
:10065000696E03050064656C61790303006176725D
:10066000030E00060313100C0213080C56091F0991
:100670003D0307006176722E707900040D000303BC
:10068000004C65640AD6010042010000EF00040935
:100690000308005F5F6E616D655F5F030A005F5F67
:1006A0006D6F64756C655F5F0302004F4E0303005E
:1006B0004F46460308005F5F696E69745F5F03031E
:1006C00000736574030600746F67676C650303004D
:1006D0006765740303004C6564030C0006010601A2
:1006E00006020903090309030307006176722E70ED
:1006F00079000406010000000001010000000A4129
:10070000000243020200F300040203060070696E57
:100710005F6E6F0308005F5F696E69745F5F03025D
:100720000000010307006176722E70790004010059
:1007300004007C01007C00005F0000640000530A9C
:1007400049000243030200F600040303030070693A
:100750006E03060070696E5F6E6F0303007365744D
:1007600003020000010307006176722E7079000415
:10077000010004007400007C00006A01007C01009C
:1007800083020001640000530A5600014304010083
:10079000F900040303030070696E03060070696EBC
:1007A0005F6E6F030600746F67676C65030200007D
:1007B000010307006176722E7079000401000400C5
:1007C0007400007C00006A01007400007C00006A74
:1007D00001008301000C83020001640000530A42FF
:1007E000000143020100FC00040303030070696E72
:1007F00003060070696E5F6E6F0303006765740324
:10080000020000010307006176722E707900040176
:100810000004007400007C00006A010083010053A2
:1008200004006500005A01006400005A02006401DF
:10083000005A03006402008400005A0400640300AC
:100840008400005A05006404008400005A06006415
:1008500005008400005A07005253012D00000003D8
:100860000600427574746F6E0AF9000042010000C0
:10087000010104050308005F5F6E616D655F5F0342
:100880000A005F5F6D6F64756C655F5F0308005FF2
:100890005F696E69745F5F030700707265737365EB
:1008A00064030600427574746F6E03040006020947
:1008B000030307006176722E70790004020A41007A
:1008C00002430202000301040203060070696E5F26
:1008D0006E6F0308005F5F696E69745F5F030200FB
:1008E00000010307006176722E7079000401000494
:1008F000007C01007C00005F0000640000530A4798
:100900000001430201000601040303030070696E45
:1009100003060070696E5F6E6F0307007072657387
:1009200073656403020000010307006176722E7094
:10093000790004010004007400007C00006A0100DA
:100940008301000C5304006500005A01006400009C
:100950008400005A02006401008400005A0300521F
:1009600053012E0000000B02FFFF0B02FEFF0B01E4
:10097000FDFF000400040004006400005A0000644D
:100980000100640B00640200840000830000595AD7
:1009900001006501006403008301005A0200640441
:1009A00000640C00640500840000830000595A03B1
:1009B000006503006406008301005A040064070018
:1009C0008400005A05006408008400005A06006490
:1009D00009008400005A0700640A0053FF0A180542
:1009E00000400300001000040A0308005F5F6E610E
:1009F0006D655F5F0308005F4175746F626F780318
:100A00000600617070656E64030500636F756E7437
:100A1000030600657874656E64030500696E64659D
:100A200078030600696E73657274030300706F705B
:100A300003060072656D6F76650304006C6973745C
:100A40000310000602131A091709080905092209EB
:100A5000270937030F002E2E2F6C69622F6C6973E4
:100A6000742E707900040C0304006C69737403081D
:100A7000005F4175746F626F780A330300420200B1
:100A8000001200040B0308005F5F6E616D655F5F1D
:100A9000030A005F5F6D6F64756C655F5F0306003E
:100AA000617070656E64030500636F756E74030694
:100AB00000657874656E64030500696E646578038B
:100AC0000600696E736572740304004E6F6E6503F1
:100AD0000300706F7003060072656D6F7665030822
:100AE000005F4175746F626F78030E0006010903A1
:100AF00009030903090309030C06030F002E2E2F17
:100B00006C69622F6C6973742E70790004080A5046
:100B10000002430302001300040303060061707027
:100B2000656E640303006F626A030600617070659E
:100B30006E640302000001030F002E2E2F6C696209
:100B40002F6C6973742E7079000401000400740026
:100B5000007C00006A01007C0100830200530A4E01
:100B600000024303020016000403030500636F75CF
:100B70006E740303006F626A030500636F756E7421
:100B80000302000001030F002E2E2F6C69622F6CF0
:100B90006973742E70790004010004007400007CF5
:100BA00000006A01007C0100830200530A50000229
:100BB0004303020019000403030600657874656EA0
:100BC000640303006F626A030600657874656E64EF
:100BD0000302000001030F002E2E2F6C69622F6CA0
:100BE0006973742E70790004010004007400007CA5
:100BF00000006A01007C0100830200530A4E0002DB
:100C0000430302001C000403030500696E64657859
:100C10000303006F626A030500696E64657803026E
:100C2000000001030F002E2E2F6C69622F6C697378
:100C3000742E70790004010004007400007C000030
:100C40006A01007C0100830200530A53000343043D
:100C500003001F000403030600696E7365727403CA
:100C600003006F626A030600696E736572740302A3
:100C7000000001030F002E2E2F6C69622F6C697328
:100C8000742E70790004010004007400007C0000E0
:100C90006A01007C01007C0200830300530A720099
:100CA0000243030200220004040304004E6F6E6539
:100CB000030300706F700303006F626A0303007028
:100CC0006F7003060000010C010D02030F002E2EB1
:100CD0002F6C69622F6C6973742E707900040100A7
:100CE00004007C01006400006B02007219007401B2
:100CF000007C00006A0200830100537401007C0044
:100D0000006A02007C010083020053640000530A61
:100D1000500002430302002800040303060072652A
:100D20006D6F76650303006F626A03060072656D7E
:100D30006F76650302000001030F002E2E2F6C69F1
:100D4000622F6C6973742E707900040100040074C2
:100D500000007C00006A01007C0100830200530057
:100D600004006500005A01006400008400005A027B
:100D7000006401008400005A030064020084000043
:100D80005A04006403008400005A050064040084CF
:100D900000005A06006407006405008401005A0838
:100DA000006406008400005A090052530B02000040
:100DB0000A760002430304004300040103050063B4
:100DC0006F756E74030A00000106010D010C01111C
:100DD00001030F002E2E2F6C69622F6C6973742E25
:100DE0007079000403000100000000010100000010
:100DF00004006401007D02007827007C0000445D4F
:100E00001F007D03007C03007C01006B0200720D5B
:100E1000007C0200640200177D0200710D00710D5C
:100E200000577C0200530A5E0002430403004B009B
:100E30000402030600617070656E64030600657845
:100E400074656E6403040000010D01030F002E2E73
:100E50002F6C69622F6C6973742E70790004010025
:100E60000400781B007C0100445D13007D020074C7
:100E700000007C00007C0200830200017107005723
:100E8000640000530B0201000B0302000B0203007D
:100E90000B02040000040004006400005A00006417
:100EA0000100640B00640200840000830000595AB2
:100EB00001006403008400005A02006404008400FE
:100EC000005A03006405008400005A040064060010
:100ED0008400005A05006407008400005A0600647C
:100EE00008008400005A07006409008400005A08C2
:100EF00000640A00530AF50200400300000C0004DD
:100F0000080308005F5F6E616D655F5F0308005F47
:100F10004175746F626F78030500636C65617203DD
:100F200004006B6579730307006861735F6B657913
:100F300003060076616C7565730306007570646165
:100F4000746503040064696374030C000603130EE4
:100F50000918092B0904092B030F002E2E2F6C6989
:100F6000622F646963742E707900040A03040064BC
:100F70006963740308005F4175746F626F780AD10A
:100F80000100420100000F0004070308005F5F6ECC
:100F9000616D655F5F030A005F5F6D6F64756C650F
:100FA0005F5F030500636C6561720304006B657924
:100FB000730307006861735F6B65790306007661F0
:100FC0006C7565730308005F4175746F626F780319
:100FD00008000601090309030903030F002E2E2F41
:100FE0006C69622F646963742E70790004040A4B83
:100FF00000014302010010000403030500636C6557
:1010000061720303006F626A030500636C656172BD
:101010000302000001030F002E2E2F6C69622F6463
:101020006963742E70790004010004007400007C70
:1010300000006A0100830100530A490001430201D4
:1010400000130004030304006B6579730303006F4E
:10105000626A0304006B6579730302000001030FE9
:10106000002E2E2F6C69622F646963742E707900D4
:1010700004010004007400007C00006A0100830188
:1010800000530A5200024303020016000403030740
:10109000006861735F6B65790303006F626A030721
:1010A000006861735F6B65790302000001030F0044
:1010B0002E2E2F6C69622F646963742E7079000480
:1010C000010004007400007C00006A01007C010043
:1010D000830200530A4D000143020100190004037A
:1010E00003060076616C7565730303006F626A0323
:1010F000060076616C7565730302000001030F0042
:101100002E2E2F6C69622F646963742E707900042F
:10111000010004007400007C00006A0100830100EB
:101120005304006500005A01006400008400005A66
:1011300002006401008400005A030064020084007D
:10114000005A04006403008400005A050052530B47
:101150000105000B0106000A3C0002430202006088
:101160000004010307006861735F6B657903020087
:101170000001030F002E2E2F6C69622F64696374C7
:101180002E70790004010004007C01007C00006BDB
:101190000600530B0107000B0208000004000400C6
:1011A0006400005A000064010064090064020084C5
:1011B0000000830000595A01006403008400005AB3
:1011C00002006404008400005A03006405008400E7
:1011D000005A04006406008400005A0500640700F9
:1011E0008400005A0600640800530AD60500400334
:1011F000000012000419030300616273030300631B
:1012000068720303006469720304006576616C030D
:10121000060066696C746572030700676C6F626133
:101220006C7303020069640303006C656E030600BF
:101230006C6F63616C730303006D61700303006F77
:101240007264030300706F7703050072616E676557
:1012500003030073756D0304007479706503020065
:10126000436F0308005F5F6E616D655F5F0306009B
:101270006F626A6563740309004578636570746919
:101280006F6E030E00417373657274696F6E457201
:10129000726F72030400636F646503090047656E33
:1012A000657261746F7203060069736D61696E0324
:1012B00004005F5F6D640304005F5F6269032E00DA
:1012C00009050926095B096409040919091B094371
:1012D0000915090E0922090409610968092509236C
:1012E0000606130716031602090B16A2093B030F85
:1012F000002E2E2F6C69622F5F5F62692E7079005D
:10130000041D0A4800014303010012000401030305
:10131000006162730302000002030F002E2E2F6C87
:1013200069622F5F5F62692E70790004020001001C
:1013300000000004007C00007C00000B6602007CC2
:1013400000006401006B000019530B0109000B0140
:101350000A000B030B000A54000243040300FC00C4
:10136000040103060066696C7465720302000001E3
:10137000030F002E2E2F6C69622F5F5F62692E7043
:10138000790004010004006700007C0100445D183E
:10139000007D02007C00007C0200830100720700D7
:1013A0007C02005E0200710700530B000C000B0171
:1013B0000D000B010E000B000F000A970002430402
:1013C00005008C0104030304004E6F6E65030300E7
:1013D0006C656E0303006D6170030C000002130363
:1013E00006010D0110010E03030F002E2E2F6C6954
:1013F000622F5F5F62692E707900040300010000B4
:101400000000010100000004006400006701007496
:1014100001007C0100830100147D02006401007D55
:1014200003007828007C0100445D20007D04007CDE
:1014300000007C04008301007C02007C03003C7CF3
:101440000300640200377D0300712000577C020016
:10145000530B0110000A36000243020200BC0104D3
:1014600001030300706F770302000001030F002ED9
:101470002E2F6C69622F5F5F62692E707900040104
:101480000004007C00007C010013530B0311000BCF
:101490000112000B0113000B01140003030054425E
:1014A000440306006F626A6563740A5000004201DB
:1014B0000000D70204030308005F5F6E616D655F83
:1014C0005F030A005F5F6D6F64756C655F5F0306A5
:1014D000006F626A6563740302000601030F002E49
:1014E0002E2F6C69622F5F5F62692E707900040095
:1014F00004006500005A0100525303090045786357
:10150000657074696F6E0A53000042010000DE02CC
:1015100004030308005F5F6E616D655F5F030A008F
:101520005F5F6D6F64756C655F5F0309004578638D
:10153000657074696F6E0302000601030F002E2EA2
:101540002F6C69622F5F5F62692E7079000400045E
:10155000006500005A01005253030E004173736589
:101560007274696F6E4572726F720A5800004201A0
:101570000000E10204030308005F5F6E616D655FB8
:101580005F030A005F5F6D6F64756C655F5F030EDC
:1015900000417373657274696F6E4572726F720386
:1015A00002000601030F002E2E2F6C69622F5F5F71
:1015B00062692E707900040004006500005A010081
:1015C000525301E400000003090047656E65726133
:1015D000746F720ADD000042010000EE020406038F
:1015E00008005F5F6E616D655F5F030A005F5F6D9E
:1015F0006F64756C655F5F0308005F5F696E697497
:101600005F5F0304006E65787403040073656E64A5
:1016100003090047656E657261746F720306000608
:101620000209370904030F002E2E2F6C69622F5F09
:101630005F62692E70790004030B0215000A4A00EC
:1016400001430201002703040303040073656E6471
:101650000304004E6F6E650304006E657874030228
:10166000000001030F002E2E2F6C69622F5F5F6256
:10167000692E70790004010004007C00006A0000FB
:10168000640000830100530B021600040065000093
:101690005A01006400008400005A020064010084C2
:1016A00000005A03006402008400005A04005253F0
:1016B0000B00170000040004006400008400005ABE
:1016C00000006401008400005A01006402008400EC
:1016D000005A02006403008400005A0300640400FE
:1016E0008400005A04006405008400005A05006468
:1016F00006008400005A06006407008400005A07B0
:10170000006408008400005A080064090084000096
:101710005A0900640A008400005A0A00640B00841D
:1017200000005A0B00640C008400005A0C00640D89
:10173000008400005A0D00640E008400005A0E0060
:10174000640F008400005A0F006410005A100064F7
:101750001100641C00641200840000830000595AC8
:101760001100641300651100660100641400840018
:1017700000830000595A12006415006512006601CA
:1017800000641600840000830000595A1300641797
:10179000006513005F140064180065110066010005
:1017A000641900840000830000595A1500641A006F
:1017B0008400005A16006900005A1700641B005389
:1017C0000A540100400100001600040A0306006DDF
:1017D0006178696E740304006578697403020067B8
:1017E0006303040067657462030400686561700345
:1017F000040070757462030B0072756E496E546854
:101800007265616403040074696D650304007761A7
:101810006974030300737973031000060309230935
:1018200018091A09300921091E0926030E002E2E57
:101830002F6C69622F7379732E707900040A01FF8F
:10184000FFFF7F0B0118000B0019000B001A000BA3
:10185000001B000B011C000B011D000B001E000AE9
:1018600060000143020200030104020304007469E2
:101870006D650304007761697403060000010D01C2
:101880001201030E002E2E2F6C69622F7379732EB6
:1018900070790004010004007400008300007C00E3
:1018A00000177D01007813007400008300007C01A4
:1018B000006B00007222007110005764000053009A
:1018C00004006400005A00006401008400005A0112
:1018D000006402008400005A0200640300840000D7
:1018E0005A03006404008400005A04006405008464
:1018F00000005A05006406008400005A06006407D0
:10190000008400005A07006408008400005A0800A0
:10191000640900530AA70300400300001000040BF1
:101920000307005F5F646F635F5F0308005F5F6EC4
:10193000616D655F5F0308005F4175746F626F786A
:101940000306006469676974730309006865786455
:1019500069676974730307006C6574746572730357
:10196000040061746F69030500636F756E7403048E
:101970000066696E640304006A6F696E0306007393
:101980007472696E6703120006030603130B0601E7
:101990000601060709450957093B0311002E2E2FA2
:1019A0006C69622F737472696E672E707900040E11
:1019B00000030600737472696E670308005F417567
:1019C000746F626F780A750100420100001600040E
:1019D000060308005F5F6E616D655F5F030A005F6D
:1019E0005F6D6F64756C655F5F0304006A6F696E9D
:1019F000030500636F756E7403040066696E64030B
:101A000008005F4175746F626F7803060006010974
:101A10000309030311002E2E2F6C69622F73747259
:101A2000696E672E70790004030A4E0002430302B8
:101A300000170004030304006A6F696E0303006F5C
:101A4000626A0304006A6F696E03020000010311F9
:101A5000002E2E2F6C69622F737472696E672E7060
:101A6000790004010004007400007C00006A010099
:101A70007C0100830200530A500002430302001A53
:101A8000000403030500636F756E740303006F6247
:101A90006A030500636F756E740302000001031191
:101AA000002E2E2F6C69622F737472696E672E7010
:101AB000790004010004007400007C00006A010049
:101AC0007C0100830200530A4E0002430302001D02
:101AD00000040303040066696E640303006F626A16
:101AE00003040066696E6403020000010311002E06
:101AF0002E2F6C69622F737472696E672E70790075
:101B000004010004007400007C00006A01007C01F4
:101B1000008302005304006500005A0100640000C5
:101B20008400005A02006401008400005A0300642B
:101B300002008400005A04005253030A003031327C
:101B400033343536373839031600303132333435D3
:101B500036373839616263646566414243444546BD
:101B60000334006162636465666768696A6B6C6D03
:101B70006E6F707172737475767778797A414243BB
:101B80004445464748494A4B4C4D4E4F505152539D
:101B90005455565758595A0B021F000B0220000B80
:101BA000022100030100200AB300024303050001E3
:101BB0000104020303006C656E0304006A6F696E22
:101BC00003120000010C010C0104010A0106010FBF
:101BD0000112010E010311002E2E2F6C69622F736A
:101BE0007472696E672E70790004040001000000B1
:101BF00000030000010100000004007400007C00EC
:101C0000008301007D02007C02006401006B020081
:101C1000721C00640200537C0000640100197D0303
:101C2000006403007D0400782C007C04007C02002A
:101C30006B0000725A007C03007C0100177C0000DE
:101C40007C040019177D03007C0400640300377DC9
:101C50000400712F00577C0300530004000400644B
:101C600000005A00006401005A0100640200640D83
:101C700000640300840000830000595A02006404D9
:101C8000005A03006405005A04006406005A050067
:101C90006407008400005A06006408008400005AAB
:101CA00007006409008400005A0800640A00640BFD
:101CB000008401005A0900640C00530A1D01004011
:101CC000020000110004040307005F676574496D9A
:101CD0006703030078303403030069706D03030069
:101CE00069706D0304000939090B030E002E2E2FB5
:101CF0006C69622F69706D2E70790004040B0022EC
:101D0000000B0023000AAE00014303040055000449
:101D1000070307005F676574496D67030200436F3F
:101D20000304006576616C0303007830340305001A
:101D300046616C7365030E00417373657274696F5D
:101D40006E4572726F7203030069706D030C0000C0
:101D500002030409010C010F010B04030E002E2ED7
:101D60002F6C69622F69706D2E7079000401000478
:101D700000782F007400008300007D0100740100D2
:101D80007C01008301007D02007402007C02007C63
:101D900000008302007D03007403008300000171D2
:101DA000030057740400733E007405008201006450
:101DB0000000530004006400008400005A00006426
:101DC00001008400005A01006900006402008401DF
:101DD000005A020064030053FF0011241FBECFEF1E
:101DE000CDBFDFE7DEBF11E4A0E0B0E4E2EEF9ED45
:101DF00000E00BBF02C007900D92AE30B107D9F7DB
:101E000021E4AEE0B1E401C01D92AE3AB207E1F7C1
:101E10000E9419660C94EF6C0C9400008091640889
:101E200087FFFCCF8091600890E0089588ED84BF23
:101E300084E280936800E0EAF4E080E28183168225
:101E400080E4828386898860868BE0E2F4E081E02A
:101E50008583818392E09283E0E6F8E097E29187C0
:101E600090E1908793E0978320EC2683E6EAF1E403
:101E700020E030E42483358322833383208331833D
:101E8000E0E0FAE027E02083918324EF31E026A30D
:101E900037A38287789480E0089580E008951F92A8
:101EA0000F920FB60F9211240BB60F922F933F9300
:101EB0004F935F936F937F938F939F93AF93BF9352
:101EC000EF93FF9385E590E00E947447FF91EF91B7
:101ED000BF91AF919F918F917F916F915F914F9142
:101EE0003F912F910F900BBE0F900FBE0F901F9040
:101EF00018950F931F93CF93DF93DB01813099F0F7
:101F000068F08230C1F4EB0108811981C8010E9498
:101F1000E76C0F5F1F4F088319830EC0ED91FC9192
:101F20001197819105C0ED91FC91119784913196A3
:101F3000ED93FC9301C080E0DF91CF911F910F9151
:101F4000089580916408881F8827881F08958091CC
:101F5000640885FB882780F90895CF93C82F0E94D5
:101F6000A70F8823E1F3C093620880E090E0CF914F
:101F70000895FC018091640887FFFCCF909161086F
:101F8000947429F480916008808380E0089582EE43
:101F90000895CF93C82F0E94A70F8823E1F3C09321
:101FA000620880E0CF910895FC019FB7F8944091BA
:101FB0005241509153416091544170915541408339
:101FC0005183628373839FBF80E008956F927F92F5
:101FD0008F929F92AF92BF92CF92DF92EF92FF9239
:101FE0000F931F93CF93DF93CDB7DEB76697CDBF27
:101FF000DEBF182F85E493E00E94FF69E0919741CE
:10200000F0919841E280F38087E7E81681E4F806D2
:1020100051F5E0917B41F0917C410280F381E02D0C
:10202000AE014B5E5F4F6FEF7FEF848195810E9421
:102030009A53882329F083E293E00E94FF690EC13E
:102040008D899E8906969F938F9380E193E09F935D
:102050008F930E94A769E0907941F0907A410F90A8
:102060000F900F900F90DE0111965D0123EF622E0D
:1020700022E0722EE114F10499F0D7011496ED914B
:10208000FC9115970280F381E02DAE014B5E5F4F0E
:102090006FEF7FEF848195810E949A538823D1F05E
:1020A0008FEF810F813F08F089C0E12FF0E0EE0F44
:1020B000FF1FE755FE4F6591749142E150E08E019C
:1020C0000F5F1F4FC8010E947E691F930F9380EF1F
:1020D00092E078C0D7011496ED91FC91159702809B
:1020E000F381E02D17968D909C90189780859185AF
:1020F000881A990A828593858B8B9C8BBE016D5EB5
:102100007F4F81E00E940043D7011496ED91FC912E
:102110001597A281B3811E96CD90DC901F976B8995
:102120007C899B0140E050E0F901E61BF70BE817C2
:10213000F907F8F4F90104913196400F511D841606
:10214000950688F4EB8BFC8B53968C9153978130DA
:1021500099F41C966D917C911D9742E150E0C50168
:102160000E947E6909C0E4912E5F3F4FCE0ED11CC4
:10217000DBCF2B8B3C8BE8CF8D899E890696D701D0
:102180001496ED91FC9115970280F381E02D23893F
:10219000213019F02485358501C095019F938F93D7
:1021A000DF92CF923F932F937F926F920E94A76905
:1021B000F701E280F380CDBFDEBF5CCF1F921F939B
:1021C0008EED92E09F938F930E94A7690F900F90DE
:1021D0000F900F9080ED92E09F938F930E94A769DC
:1021E000809192410F900F908823D1F0809192417D
:1021F0008A31B0F4E0919241F0E0EE0FFF1FEF5909
:10220000FB4F659174914FE050E08E010F5F1F4FBF
:10221000C8010E947E691F930F938CEC92E006C068
:10222000809192411F928F9388EB92E09F938F93BE
:102230000E94A7690F900F900F900F90809193418B
:10224000909194419F938F9384EB92E09F938F930F
:102250000E94A7690F900F900F900F906696CDBFC8
:10226000DEBFDF91CF911F910F91FF90EF90DF9034
:10227000CF90BF90AF909F908F907F906F90089578
:102280008CEE089580918041882309F46CC0809180
:102290008041833008F067C0E0918141F091824134
:1022A0002181822F86958695869590E0019709F089
:1022B0005AC082819381A481B58181339105A105A2
:1022C000B10508F04EC0E82FE695E695E69520E2C8
:1022D000E29FF0011124FC5F877090918041923061
:1022E00039F5A0918341B091844111969C91119749
:1022F000292F26952695269530E02130310519F0B5
:102300002F30310581F521E030E0082E01C0220F89
:102310000A94EAF7218312964D915D916D917C911B
:102320001597452B462B472B11F0258301C026839B
:10233000208530E0A90102C0559547958A95E2F7BE
:1023400040FF05C0809164419091654104C0809137
:1023500062419091634180937D4190937E4180E002
:1023600008958EEE08958DEE08958F929F92AF920C
:10237000BF92CF92DF92EF92FF92809180418130A5
:1023800009F094C0E0918141F09182412181822F36
:1023900086958695869590E081309105C9F5628194
:1023A0007381848195810E9425674B015C0120E047
:1023B00030E84BEB55E40E94B2676B017C0120E0F2
:1023C00030E040E85FE30E94EF6687FD5EC020E0FA
:1023D0003FEF4FE757E4C701B6010E94AD671816FB
:1023E0000CF04EC020E030E040E251E4C501B40101
:1023F0000E94B2670E94F46628E532E0611571051B
:1024000009F448C0C9010197F1F761507109F6CF8D
:10241000029709F041C082809380A480B58020E0BB
:1024200030E84BEB55E4C501B4010E94B2676B0183
:102430007C0120E030E040E85FE30E94EF6687FD2A
:1024400024C020E03FEF4FE757E4C701B6010E94E8
:10245000AD671816ACF420E030E040E251E4C5016D
:10246000B4010E94B2670E94F46628E532E061156B
:10247000710581F0C9010197F1F761507109F7CF3A
:10248000C701B6010E94F46602C061E070E0CB01B2
:102490000197F1F780E001C08DEE20915A41309113
:1024A0005B4120937D4130937E4101C08DEEFF90D2
:1024B000EF90DF90CF90BF90AF909F908F90089556
:1024C000CF93DF9300D0CDB7DEB7DC019091804190
:1024D000992319F0913091F02CC0FA01608170E0DD
:1024E00080E090E0AE014F5F5F4F0E94AD1A2981FE
:1024F0003A8120937D4130937E411CC0E09181411F
:10250000F0918241E983FA838181282F26952695CF
:10251000269530E02130310561F480915A41909147
:102520005B4180937D4190937E4182818C9380E0DA
:1025300001C08DEE0F900F90DF91CF910895209103
:1025400080412130D1F4E0918141F091824141817B
:10255000242F26952695269530E02130310569F403
:102560002281FC01208380915A4190915B418093AC
:102570007D4190937E4180E008958DEE08950F9304
:102580001F93CF93DF938901E0918141F0918241C4
:102590002181A22FA695A695A695B0E01397B9F52F
:1025A000C0918341D09184412981A22FA695A695FF
:1025B000A695B0E0119759F522813381213031057C
:1025C00041F53681363411F0363619F5611571054D
:1025D00029F024EA34E0FB0120833183009729F0BD
:1025E00028EA34E0FC012083318380EA94E0FA0198
:1025F000808391838A819B81AC81BD8188309105E4
:10260000A105B10530F4F801808380E003C08DEEB0
:1026100001C08EEEDF91CF911F910F910895CF935E
:10262000DF93CDB7DEB72597CDBFDEBF8091804168
:102630008230B1F59E012B5F3F4FAE014F5F5F4F80
:1026400060E070E0CE0103960E94BF12811129C0A4
:10265000E981FA81908121E030E00D8002C0220FF3
:10266000331F0A94E2F7209529232083EB81FC8114
:10267000208130E00D8002C0359527950A94E2F75D
:1026800020FF05C0209164413091654104C0209134
:1026900062413091634120937D4130937E4101C07E
:1026A0008DEE2596CDBFDEBFDF91CF910895CF92FD
:1026B000DF92EF92FF920F931F93CF93DF93CDB7EB
:1026C000DEB76097CDBFDEBF8CE990E48F87988B33
:1026D00081EA90E489879A878AEA90E48F839887D1
:1026E00084EB90E48D839E8389EB90E48B839C83C1
:1026F00083EC90E489839A834CE450E060E08AE5BF
:1027000091E40E94644B88E080939141BE01635F35
:102710007F4F86E090E00E943F1A811142C1ED8513
:10272000FE85EB87FC87808191819770986080831C
:1027300091831282138214821582E0935C41F0939C
:102740005D41BE01635F7F4F86E090E00E943F1ACB
:10275000811127C1ED85FE85EB87FC878081918102
:102760009770986080839183C12CD12C7601C3949B
:10277000C282D382E482F582E0935E41F0935F41AE
:10278000BE01635F7F4F86E090E00E943F1A811197
:1027900008C1ED85FE85EB87FC878081918197706C
:1027A0009860808391838FEF9FEFDC018283938316
:1027B000A483B583E0936041F0936141BE01635F00
:1027C0007F4F86E090E00E943F1A8111EAC0ED85BC
:1027D000FE85EB87FC878081918197709867808365
:1027E00091831282138214821582E0936241F093E6
:1027F0006341BE01635F7F4F86E090E00E943F1A15
:102800008111CFC0ED85FE85EB87FC8780819181AA
:102810009770986780839183C282D382E482F58225
:10282000E0936441F0936541BE01635F7F4F82E0B6
:1028300090E00E943F1A8111B4C0ED85FE85EB87C0
:10284000FC8780819181977080839183E0935A41C6
:10285000F0935B418E01055F1F4F21E030E040E0C7
:1028600050E0BE01615F7F4F80E00E94D24D811138
:1028700098C08B859C85809366419093674121E049
:1028800030E040E050E0BE01675F7F4F80E00E9493
:10289000D24D811186C08B859C8580939941909300
:1028A0009A4121E030E040E050E0BE01695F7F4F97
:1028B00080E00E94D24D811174C08B859C858093ED
:1028C0009B4190939C4121E030E040E050E0BE010C
:1028D0006B5F7F4F80E00E94D24D811162C08B857B
:1028E0009C8580939D4190939E4121E030E040E0A3
:1028F00050E0BE016D5F7F4F80E00E94D24D81119C
:1029000050C08B859C8580939F419093A04121E08E
:1029100030E040E050E0BE016F5F7F4F80E00E94FA
:10292000D24D81113EC08B859C858093A1419093AF
:10293000A24110926841109269418AE190E080932F
:102940007741909378418091774190917841977049
:10295000906F809377419093784110927B411092D1
:102960007C4110927D4110927E4110927F411092E5
:102970008041C8010E9470402B853C852093954181
:102980003093964191E090936A412DED39E0209388
:102990006E4130936F41909376411092A341109213
:1029A000A4416096CDBFDEBFDF91CF911F910F9103
:1029B000FF90EF90DF90CF9008950F931F93CF93E8
:1029C000DF93CDB7DEB72E97CDBFDEBF1D861E8647
:1029D00088EC90E48B879C878DEC90E489879A87BC
:1029E00083ED90E48F8398871D821E8288ED90E4AA
:1029F00089839A838E010B5F1F4F21E030E040E016
:102A000050E0BE016F5F7F4F80E00E94D24D811188
:102A10006CC0BE016D5F7F4F8D819E810E943344EB
:102A2000811163C08B819C810E94783F81E00E946C
:102A3000CA1C81115AC0EB81FC81848195818093ED
:102A4000684190936941085F1F4F21E030E040E00A
:102A500050E0BE01655F7F4F80E00E94D24D811142
:102A600044C040915A4150915B418091684190919E
:102A700069416D857E850E941062811136C021E01A
:102A800030E040E050E0BE01675F7F4F0E94D24DD2
:102A900081112BC040916241509163418091684106
:102AA000909169416D857E850E94106281111DC0E3
:102AB00021E030E040E050E0BE01695F7F4F0E94BE
:102AC000D24D811112C04091644150916541809175
:102AD0006841909169416D857E850E9410628111E7
:102AE00004C08B819C810E94EC182E96CDBFDEBF66
:102AF000DF91CF911F910F910895EF92FF920F9365
:102B00001F93CF93DF93CDB7DEB72597CDBFDEBF41
:102B10007C011B821C8288ED90E489839A838091DA
:102B2000684190916941892B11F40E94DD148E0156
:102B30000D5F1F4F21E030E040E050E0BE016F5FCD
:102B40007F4F80E00E94D24D811117C0BE016B5FA4
:102B50007F4F8B819C810E94751A409168415091F2
:102B600069416B817C81F701848195810E941062AB
:102B7000182F8D810E94881A812F2596CDBFDEBF28
:102B8000DF91CF911F910F91FF90EF900895DC019D
:102B90008D919C9111978C7F4091164150911741D6
:102BA0006091184170911941481B590B61097109D5
:102BB0004093164150931741609318417093194107
:102BC0001496ED91FC911597309731F012968D91F6
:102BD0009C9113978283938312960D90BC91A02DA4
:102BE000109729F4E0931441F093154104C0149612
:102BF000ED93FC93159780E00895CF93DF93FC014C
:102C0000808191818C7F4091164150911741609154
:102C1000184170911941480F591F611D711D409352
:102C20001641509317416093184170931941A09138
:102C30001441B0911541109789F4E0931441F09339
:102C40001541148215821282138232C014962D917E
:102C50003C9115972115310549F0D9012D913C91F1
:102C600011972C7F2817390788F309C01482158221
:102C70001496ED93FC931597A283B38319C0A48394
:102C8000B58312968D919C911397828393831296AC
:102C9000CD91DC911397209729F4E0931441F093A0
:102CA000154102C0EC83FD831296ED93FC931397BC
:102CB00080E0DF91CF910895EF92FF920F931F93E1
:102CC000CF93DF93C0911441D0911541209751F0DB
:102CD000288139812C7F2817390748F40C80DD8141
:102CE000C02DF4CFFB011082118289EE47C07B0119
:102CF0008C01CE010E94C715811140C08881998145
:102D00009C012C7F201B310B2830310520F1FE0166
:102D1000E00FF11F2081318123703327226020834F
:102D20003183488159814C7F401B510B4C7F242BB0
:102D3000352B20833183CF010E94FD1581111EC0E8
:102D4000888199818170987F0C7F1770082B192BCF
:102D50000883198304C08D7F97708883998320919D
:102D60001A4188819981222311F0816001C08E7FF0
:102D700088839983F701C083D18380E0DF91CF916D
:102D80001F910F91FF90EF9008958F929F92AF92B5
:102D9000BF92CF92DF92EF92FF921F93CF93DF9378
:102DA000EC01209709F42EC18881998110911A4174
:102DB000AC0141705527212F30E04217530709F429
:102DC00021C1FC01EF2FFF27E695E695E695EF314F
:102DD000F10508F077C1EA58FF4F0C94B86611234B
:102DE00011F0816001C08E7F888399830BC12A8195
:102DF0003B817901112311F0816001C08E7F8883AE
:102E00009983220F331FC20FD31F81E0E81AF10804
:102E1000F7FCF8C08A819B810E94C51622978823FF
:102E2000A1F351C1112311F0816001C08E7F88830D
:102E3000998370C0112311F0816001C08E7F888357
:102E4000998351C0112311F0816001C08E7F888366
:102E500099838C819D810E94C516811134C18E8118
:102E60009F810E94C51681112EC18B89882321F074
:102E70000888D989C02D95CF8A819B810E94C5166B
:102E80008823B1F320C1112311F0816001C08E7F2E
:102E9000888399838A819B810E94C516811113C101
:102EA0008C819D810E94C51681110DC18E819F81EB
:102EB0000E94C516811107C1888599850E94C51693
:102EC000811101C10A84DB85C02D6BCF112311F064
:102ED000816001C08E7F888399838A819B810E9453
:102EE000C5168111F0C08C819D810E94C51681118B
:102EF000EAC00E80DF81C02D54CF112311F0816014
:102F000001C08E7F888399838A819B810E94C51628
:102F10008111D9C00C80DD81C02D43CF112311F068
:102F2000816001C08E7F88839983EC81FD8102805E
:102F3000F381E02D858985FF07C08C819D810E94EA
:102F4000C5168111C0C007C08A819B810E94C51629
:102F5000882399F3B8C089859A850E94C516811186
:102F6000B2C08B859C850E94C5168111ACC08D8531
:102F70009E850E94C5168111A6C07E0182E1E80EE1
:102F8000F11CF7018F859889E816F906D8F582E0DB
:102F9000E80EF11C808191810E94C516882389F377
:102FA00092C01123E1F1816088839983CA80DB801C
:102FB0000C80DD81C02DE12CF12C28E0A22EB12C5B
:102FC000EC14FD04FCF4C701B5010E9463664C01DA
:102FD000FC013196EE0FFF1FEC0FFD1F80819181E8
:102FE0000E94C51681116FC0C70187709927892B70
:102FF000C1F087E088169104E9F40A88DB89C02DC6
:103000002097C1F480E05FC0112311F0816001C0FE
:103010008E7F888399830F80D885C02DC2CE8E7F06
:10302000C3CF88819981112311F0816001C08E7F07
:10303000888399838FEFE81AF80AC2CF112311F021
:10304000816001C08E7F888399830A80DB81C02DD7
:10305000A8CE112311F0816001C08E7F88839983EF
:1030600080917F41882371F28091794190917A41DA
:103070000E94C516811127C080917B4190917C41AF
:103080000E94C51681111FC080917D4190917E41A3
:103090000E94C516811117C0C0E0D0E08091804128
:1030A00090E0C817D9070CF0ADCFFE01EE0FFF1F5F
:1030B000EC59FE4B858D968D0E94C516811103C07B
:1030C0002196ECCF8CEEDF91CF911F91FF90EF9086
:1030D000DF90CF90BF90AF909F908F900895CF9248
:1030E000DF92EF92FF92CF93DF93EC016A017B01B5
:1030F00080930E4190930F414093104150931141A2
:103100006093124170931341109214411092154133
:1031100010921641109217411092184110921941C5
:1031200010921A4110924C4181E080931B41CB01D7
:10313000BA012CEF3FEF40E050E00E947766683024
:1031400071058105910580F48881998183709927A3
:103150008A6088839983CE010E94FD1528E0C21AF7
:10316000D108E108F10828962CEFC2162FEFD206FD
:10317000E104F10488F0888199818E6F9F6F8883C4
:103180009983CE010E94FD1524978CEFC81A8FEF0A
:10319000D80AE108F108E8CF88E0C816D104E104B4
:1031A000F10480F0888199818370992782602CEFE7
:1031B000C2222CEFC222C82AD92AC882D982CE01C3
:1031C0000E94FD150E94344F80E0DF91CF91FF9067
:1031D000EF90DF90CF900895FC012081318137700E
:1031E0002260208331830C94FD156091164170910B
:1031F00017418091184190911941089560911041B3
:103200007091114180911241909113410895CF9294
:10321000DF92EF92FF920F931F93CF93DF9300D033
:10322000CDB7DEB710911A4181E0182710931A41EB
:1032300080915A4190915B410E94C516811114C141
:1032400080916241909163410E94C51681110CC129
:1032500080916441909165410E94C516811104C11D
:1032600080915C4190915D410E94C5168111FCC026
:1032700080915E4190915F410E94C5168111F4C01A
:1032800080916041909161410E94C5168111ECC00E
:1032900080916641909167410E94C5168111E4C0FA
:1032A00080916841909169410E94C5168111DCC0EE
:1032B00087E791E40E94C5168111D6C0809195419F
:1032C000909196410E94C5168111CEC000E0809178
:1032D0004C41081770F4E02FF0E0EE0FFF1FE45EA2
:1032E000FE4B808191810E94C5168111BDC00F5F88
:1032F000EECFCE0101960E943A4F89819A81892BA7
:1033000009F083C000910E4110910F4120910E41B0
:1033100030910F418091104190911141820F931F84
:103320000817190708F06FC040911A4150E0780162
:10333000F7012081318121FD0FC0B901617077272C
:103340006417750749F4E816F90608F05CC02C7F8D
:103350003770E20EF31EECCFE816F90608F053C002
:103360008701C12CD12CF8018081918181FF0CC093
:103370008C7F8C0D9D1D8D3F9F4F88F5C8010E944D
:10338000C7158823B9F070C020911A4130E0AC0114
:10339000417055274217530711F19C012C7F37705C
:1033A0002C0D3D1D2D3F3F4FD0F497708260F801EA
:1033B00080839183F801808191818C7FC80ED91E12
:1033C000080F191F20910E4130910F41809110413B
:1033D00090911141820F931F0817190720F2F701EE
:1033E00080819181837099278260FCEFCF22C82A67
:1033F000D92AF701C082D182C7010E94FD15882316
:1034000009F484CF31C080E02FC0212F30E0A981A2
:10341000BA81ED91FC911197309709F473CF8081B7
:1034200091818170992782179307C9F084819581D2
:103430008D939C93ECCF8D919C91119781709927DE
:103440002817390759F014968D919C91159784830C
:103450009583A481B581109771F7DF01FD01848107
:103460009581892BB1F74ECF0F900F90DF91CF91BF
:103470001F910F91FF90EF90DF90CF9008950F93E1
:103480001F93CF93DF938B018D3F27E0920710F0BE
:1034900089EE22C08830910510F488E090E0039610
:1034A000EC01CC7FB801CE010E945C16893EA1F4EC
:1034B00080911B41813061F780917F418111E8CF7C
:1034C0000E940719811108C0B801CE01DF91CF9188
:1034D0001F910F910C945C16DF91CF911F910F916A
:1034E000089580931B4180E008959C0190914C4188
:1034F000983168F4FB019083E92FF0E0EE0FFF1F95
:10350000E45EFE4B208331839F5F90934C4108958E
:1035100080934C4108950F931F93CF93DF93EC0159
:103520008B0186E090E00E943F1A811111C0D80102
:10353000ED91FC9120813181377038602083318397
:103540004A815B816C817D8142835383648375836F
:10355000DF91CF911F910F910895CF92DF92EF925B
:10356000FF92CF93DF93EA01611571058105910503
:1035700029F480915C4190915D4114C061307105E6
:103580008105910529F480915E4190915F410AC0C7
:103590006F3F2FEF72078207920739F480916041E5
:1035A000909161418883998315C06B017C01BA01B8
:1035B00086E090E00E943F1A81110DC0E881F981F8
:1035C000808191819770986080839183C282D38239
:1035D000E482F58280E0DF91CF91FF90EF90DF9061
:1035E000CF900895AB01FC016181262F2695269589
:1035F000269530E02130310531F462817381848178
:1036000095810C94AD1A8DEE08950F931F93AB0125
:10361000FC016181262F26952695269530E02130E4
:10362000310589F482819381A481B5818C019D014A
:1036300066277727CB01601B710B820B930B1F91C1
:103640000F910C94AD1A8DEE1F910F910895AB015F
:10365000FC016181262F26952695269530E02130A4
:10366000310561F482819381A481B581BC01CD01D2
:1036700060957095809590950C94AD1A8DEE089597
:10368000CF93DF93CDB7DEB72C97CDBFDEBFFC0164
:103690004181242F26952695269530E0213031054D
:1036A00091F462817381848195812CE0AE014F5F3A
:1036B0005F4F0E947A4B811107C0CE0101960E9494
:1036C0006E4B80E001C08DEE2C96CDBFDEBFDF914A
:1036D000CF9108950F931F93CF93DF93CDB7DEB7AC
:1036E0002997CDBFDEBFFC01628173818481958102
:1036F00001E029E0AE014F5F5F4F0E94154C182F8B
:10370000CE0101960E946E4B812F2996CDBFDEBF60
:10371000DF91CF911F910F9108958F929F92AF9259
:10372000BF92CF92DF92EF92FF92FA01DC011196E5
:103730004C91242F26952695269530E02130310591
:10374000D9F5DB0111964C911197242F26952695DA
:10375000269530E02130310579F51296CD90DD9037
:10376000ED90FC901597F7FC29C0DC0112968D9026
:103770009D90AD90BC90159761E070E080E090E086
:10378000C114D104E104F10461F09B01AC01C50155
:10379000B4010E945366B1E0CB1AD108E108F108E8
:1037A000EFCFAF01FF90EF90DF90CF90BF90AF9041
:1037B0009F908F900C94AD1A8DEE01C08EEEFF900D
:1037C000EF90DF90CF90BF90AF909F908F90089533
:1037D0004F925F926F927F928F929F92AF92BF9221
:1037E000CF92DF92EF92FF921F93CF93DF93142F2C
:1037F000E901FC014181242F26952695269530E08C
:103800002130310509F074C0FB014181242F269538
:103810002695269530E02130310509F069C0828077
:103820009380A480B58081149104A104B10409F4AB
:1038300061C0FC014280538064807580F1E08F1686
:103840009104A104B104B9F12FEF82169206A206E9
:10385000B20641F4CC24DD247601C418D508E6086C
:10386000F7082BC0C301B201A50194010E9499661B
:1038700069017A01A5019401C701B6010E9453664E
:10388000A3019201261B370B480B590BDA01C90122
:10389000B9F0B501A401482759276A277B2777FF8C
:1038A0000FC0880D991DAA1DBB1D31E0C31AD10898
:1038B000E108F10805C07301620180E090E0DC01DD
:1038C0001F3211F06C017D01AE01C701B601DF911D
:1038D000CF911F91FF90EF90DF90CF90BF90AF906E
:1038E0009F908F907F906F905F904F900C94AD1A47
:1038F0008DEE01C083EEDF91CF911F91FF90EF908D
:10390000DF90CF90BF90AF909F908F907F906F90FF
:103910005F904F900895CF93DF9300D0CDB7DEB77F
:10392000E0919541F091964182819381892B29F410
:10393000109297411092984125C080914D418F5F20
:1039400080934D41E0919541F091964190E0228124
:1039500033818217930710F010924D418091954169
:103960009091964160914D4170E0AE014F5F5F4F85
:103970000E94FC3F29813A812093974130939841DE
:10398000811103C01092A54180E00F900F90DF914C
:10399000CF9108952F923F924F925F926F927F92B4
:1039A0008F929F92AF92BF92CF92DF92EF92FF924F
:1039B0000F931F93CF93DF93CDB7DEB7C25AD109D0
:1039C000CDBFDEBFCF55DF4F8883C15AD0401986A7
:1039D0001A861F8218861D821E821B821C820E94EC
:1039E0008B1C81110C94353F10E066246394712C7C
:1039F0008091974190919841892B59F4CF55DF4F91
:103A0000C880C15AD040CC2011F40C942D3F0C94A6
:103A1000603F8091A541882331F00E948B1C182FB4
:103A200081110C94603FA0919741B0919841E09131
:103A30009741F091984112966D917C911397695F2F
:103A40007F4F0280F381E02D86810E94790F082F3D
:103A500090E0FC013197E938F10510F00C944E3FED
:103A6000EB56FF4F0C94B866E0919741F091984166
:103A70000280F381E02D0784F089E02D3297808168
:103A8000918189879A87E0919741F09198410280CE
:103A9000F381E02D0784F089E02DA0919741B0914A
:103AA000984112960D90BC91A02D1F960D90BC913F
:103AB000A02D14978D919C91329780839183E091F2
:103AC0009741F09198410280F381E02D0784F089BD
:103AD000E02D89859A8534970C94483FE091974171
:103AE000F09198410280F381E02D0784F089E02D68
:103AF00032978081918189879A87E0919741F091EF
:103B000098410280F381E02D0784F089E02DA09197
:103B10009741B091984112960D90BC91A02D1F969F
:103B20000D90BC91A02D14978D919C91329780831C
:103B30009183E0919741F09198410280F381E02DCB
:103B40000784F089E02DA0919741B0919841129699
:103B50000D90BC91A02D1F960D90BC91A02D169795
:103B60008D919C91349780839183E0919741F0915E
:103B700098410280F381E02D0784F089E02D89854A
:103B80009A8536970C94483FE0919741F09198417F
:103B90000280F381E02D0784F089E02D3297808147
:103BA000918189879A870C94373FE0919741F091F2
:103BB00098410280F381E02D0784F089E02D32974F
:103BC0008081918189879A87E0919741F09198410E
:103BD0000280F381E02D0784F089E02DA0919741C8
:103BE000B091984112960D90BC91A02D1F960D900A
:103BF000BC91A02D14978D919C91329780839183D5
:103C0000E0919741F09198410280F381E02D078483
:103C1000F089E02DA0919741B091984112960D90B6
:103C2000BC91A02D1F960D90BC91A02D16978D9143
:103C30009C91349780839183E0919741F0919841D2
:103C40000280F381E02D0784F089E02DA091974157
:103C5000B091984112960D90BC91A02D1F960D9099
:103C6000BC91A02D18978D919C913697808391835C
:103C7000E0919741F09198410280F381E02D078413
:103C8000F089E02D89859A8538970C94483FE0911A
:103C90009741F09198410280F381E02D0784F089EB
:103CA000E02D32970190F081E02D818186958695F7
:103CB00086958D871E862D853E852130310511F034
:103CC0000C945E3F95CEE0919741F091984102802F
:103CD000F381E02D0784F089E02D3297BE01695F02
:103CE0007F4F808191810E94051BD5C5E09197414E
:103CF000F0919841A281B3811F96ED91FC9150976C
:103D000032971F96ED93FC9350978081918189871C
:103D10009A870E940B45E0919741F0919841A281CA
:103D2000B3811F96ED91FC915097882361F0CF01EC
:103D300002961F968D939C93509780916441909129
:103D400065410C94483FCF0102961F968D939C933A
:103D5000509780916241909163410C94483FE0916B
:103D60009741F09198410280F381E02D0784F0891A
:103D7000E02D3297BE016B5F7F4F808191810E9461
:103D8000B746182F81110C94593FE0919741F0915B
:103D900098410280F381E02D0784F089E02D8D8128
:103DA0009E8132970C94483FE0919741F091984161
:103DB0000280F381E02D0784F089E02D3297019095
:103DC000F081E02D81818695869586958F87188A6A
:103DD0004F8558894130510511F00C945E3FE091B8
:103DE0009741F09198410280F381E02D0784F0899A
:103DF000E02D3297BE01695F7F4F808191810E94E3
:103E0000271B49C5E0919741F0919841A0919741B6
:103E1000B09198410280F381E02D0784F089E02D74
:103E20003297608171811296ED91FC91139707840E
:103E3000F089E02D3497808191810E94B63F182F40
:103E40000C94102DE0919741F0919841A0919741E9
:103E5000B09198410280F381E02D0784F089E02D34
:103E60003297608171811296ED91FC9113970784CE
:103E7000F089E02D3497AE014B5F5F4F80819181D7
:103E80000E948D1B0C942728E0919741F091984156
:103E90000280F381E02D0784F089E02D32970190B4
:103EA000F081E02D8181869586958695898B1A8A89
:103EB00069897A8969307105D9F460919D41709161
:103EC0009E41E0919741F09198410280F381E02D6D
:103ED0000784F089E02D3297AE01475F5F4F808104
:103EE00091810E94A45F81110C945E3F10E080CD0F
:103EF000E0919741F09198410280F381E02D078491
:103F0000F089E02D3297BE01675F7F4F80819181FC
:103F10000E94E14A182F81110C94593FE09197417A
:103F2000F09198410280F381E02D0784F089E02D23
:103F300089859A8536CFE0919741F091984102802A
:103F4000F381E02D0784F089E02D32970190F08114
:103F5000E02D81818695869586958B8B1C8A8B8931
:103F60009C89019709F044C0E0919741F0919841F4
:103F70000280F381E02D0784F089E02D34970190D1
:103F8000F081E02D81818695869586958D8B1E8AA0
:103F9000AD89BE89119761F5E0919741F091984103
:103FA00080919741909198410280F381E02D0784A0
:103FB000F089E02D349720813181DC011296ED915A
:103FC000FC9113970784F089E02D32970190F081DE
:103FD000E02DD90112962D913D914D915C9115974F
:103FE00062817381848195810E9453660C9422289A
:103FF000E0919741F09198410280F381E02D078490
:10400000F089E02D32970190F081E02D8181869535
:10401000869586958F8B188EEF89F88D319709F0EC
:1040200044C0E0919741F09198410280F381E02DE6
:104030000784F089E02D34970190F081E02D818193
:10404000869586958695898F1A8E098D1A8D0231EF
:10405000110559F5E0919741F09198410280F38163
:10406000E02D0784F089E02D32970190F081E02D5A
:10407000828193818B839C8397FF02C01B821C8269
:10408000E0919741F09198416B817C810280F381AE
:10409000E02D0784F089E02D3497AE014B5F5F4F30
:1040A000808191810E948940D2C7E0919741F0912F
:1040B00098410280F381E02D0784F089E02D32974A
:1040C0000190F081E02D81818695869586958B8F74
:1040D0001C8E2B8D3C8D2130310509F044C0E091C0
:1040E0009741F09198410280F381E02D0784F08997
:1040F000E02D34970190F081E02D818186958695A1
:1041000086958D8F1E8E4D8D5E8D4430510559F5EF
:10411000E0919741F09198410280F381E02D07846E
:10412000F089E02D32970190F081E02D828193811A
:104130008B839C8397FF02C01B821C82E091974176
:10414000F09198416B817C810280F381E02D07849E
:10415000F089E02D3497AE014B5F5F4F80819181F4
:104160000E943C5374C7E0919741F09198410280BE
:10417000F381E02D0784F089E02D32970190F081E2
:10418000E02D81818695869586958F8F18A26F8DFB
:1041900078A16130710511F00C945E3FE091974178
:1041A000F09198410280F381E02D0784F089E02DA1
:1041B00034970190F081E02D8181869586958695D2
:1041C00089A31AA289A19AA1039711F00C945E3FCA
:1041D000E0919741F09198410280F381E02D0784AE
:1041E000F089E02D32970190F081E02D828193815A
:1041F0008B839C8397FF02C01B821C82E0919741B6
:10420000F09198410280F381E02D0784F089E02D40
:1042100034978081918106968F8398872B813C818A
:104220008E010B5F1F4F40E050E0BE01695F7F4F82
:1042300080E00E94D24D0BC7E0919741F0919841E8
:10424000A0919741B09198410280F381E02D0784BD
:10425000F089E02D3297608171811296ED91FC9189
:1042600013970784F089E02D34979E012B5F3F4F11
:104270004FE252C0E0919741F09198410280F38162
:10428000E02D0784F089E02D34970190F081E02D36
:1042900081818695869586958BA31CA2ABA1BCA136
:1042A000E0919741F09198411397E9F4A0919741DB
:1042B000B09198410280F381E02D0784F089E02DD0
:1042C0003297608171811296ED91FC91139707846A
:1042D000F089E02D3497AE014B5F5F4F8081918173
:1042E0000E94D34FB4C6A0919741B09198410280EB
:1042F000F381E02D0784F089E02D32976081718190
:104300001296ED91FC9113970784F089E02D349774
:104310009E012B5F3F4F45E2808191810E94E81B07
:1043200096C6E0919741F091984180919741909184
:10433000984120919741309198410280F381E02D7E
:104340000784F089E02D349740815181DC01129679
:10435000ED91FC9113970784F089E02D32976081ED
:104360007181D9011296ED91FC9113970784F08920
:10437000E02D3697808191810C940D2DE09197412D
:10438000F09198410280F381E02D0784F089E02DBF
:1043900032970190F081E02D8181869586958695F2
:1043A0008DA31EA2EDA1FEA1319709F048C0E091B6
:1043B0009741F09198410280F381E02D0784F089C4
:1043C000E02D34970190F081E02D818186958695CE
:1043D00086958FA318A60FA118A50130110579F5B0
:1043E000E0919741F0919841809197419091984147
:1043F0000280F381E02D0784F089E02D349720813D
:104400003181DC011296ED91FC9113970784F089BC
:10441000E02D32970190F081E02DD90112964D9157
:104420005D916D917C91159782819381A481B58175
:104430008A019B01080F191F2A1F3B1F01C6E0912B
:104440009741F09198410280F381E02D0784F08933
:10445000E02D32970190F081E02D8181869586953F
:10446000869589A71AA629A53AA52330310511F00A
:104470000C945E3FE0919741F09198410280F38166
:10448000E02D0784F089E02D34970190F081E02D34
:1044900081818695869586958BA71CA64BA55CA5E4
:1044A0004330510511F00C945E3FE0919741F0913B
:1044B0009841A0919741B09198410280F381E02DFD
:1044C0000784F089E02D3297608171811296ED9119
:1044D000FC9113970784F089E02D3497AE014B5F70
:1044E0005F4F808191810E94414FB1C5E09197411A
:1044F000F09198410280F381E02D0784F089E02D4E
:1045000032970190F081E02D818186958695869580
:104510008DA71EA66DA57EA56130710511F00C94C6
:104520005E3FE0919741F09198410280F381E02D48
:104530000784F089E02D34970190F081E02D81818E
:104540008695869586958FA718AA8FA598A9019715
:1045500011F00C945E3FE0919741F0919841809169
:104560009741909198410280F381E02D0784F08972
:10457000E02D349720813181DC011296ED91FC9180
:1045800013970784F089E02D329740815181F9011A
:1045900082819381A481B581FA01028113812481F2
:1045A0003581BC01CD01601B710B820B930B4AC599
:1045B000E0919741F09198410280F381E02D0784CA
:1045C000F089E02D34970190F081E02D818186956E
:1045D0008695869589AB1AAA09A91AA9E0919741EF
:1045E000F091984103311105E9F4A0919741B09100
:1045F00098410280F381E02D0784F089E02D329705
:10460000608171811296ED91FC9113970784F08976
:10461000E02D3497AE014B5F5F4F808191810E9406
:10462000976215C50280F381E02D0784F089E02DA3
:1046300032970190F081E02D81818695869586954F
:104640008BAB1CAA2BA93CA921303105D9F0E091F4
:104650009741F09198410280F381E02D0784F08921
:10466000E02D32970190F081E02D8181869586952D
:1046700086958DAB1EAA4DA95EA94F30510511F04C
:104680000C945E3FE0919741F09198410280F38154
:10469000E02D0784F089E02D34978081918189870E
:1046A0009A87E0919741F09198410280F381E02D43
:1046B0000784F089E02D32970190F081E02D62812E
:1046C00073816B837C83AE014B5F5F4F0E941F4AF7
:1046D000BEC4E0919741F09198410280F381E02DB2
:1046E0000784F089E02D32970190F081E02D8181DF
:1046F0008695869586958FAB18AE6FA978ADE091BB
:104700009741F09198410280F381E02D0784F08970
:10471000E02D32976231710541F4BE01695F7F4F30
:10472000808191810E94F240B6C00190F081E02D1D
:10473000818186958695869589AF1AAE89AD9AADA9
:10474000039709F455C9E0919741F091984102808F
:10475000F381E02D0784F089E02D32970190F081FC
:10476000E02D81818695869586958BAF1CAEABAD8D
:10477000BCAD149711F00C945E3F3AC960915C4156
:1047800070915D4140915A4150915B4120915E4151
:1047900030915F41E0919741F09198410280F3811F
:1047A000E02D0784F089E02D3297803229F08132A4
:1047B000F9F06081718102C040815181E09197419F
:1047C000F09198410280F381E02D0784F089E02D7B
:1047D00034978081918189879A87E0919741F09100
:1047E00098410280F381E02D87859089029728C047
:1047F00040815181E0919741F09198410280F3818D
:10480000E02D0784F089E02D349760817181E0917B
:104810009741F09198410280F381E02D0784F0895F
:10482000E02D36978081918189879A87E091974121
:10483000F09198410280F381E02D8785908904975B
:104840008787908B89859A85DC011196EC91EE2EF5
:10485000E694E694E694F12CB4E0EB16F104B1F0A2
:10486000E2E1EE16F10461F0F3E0EF16F10411F06D
:104870000C945E3F8E01095F1F4F0E9499510BC03F
:104880008E01095F1F4F0E942C4205C08E01095FF7
:104890001F4F0E94FB53182F81110C94593F0C9409
:1048A000E834E0919741F09198410280F381E02D46
:1048B0000784F089E02D34970190F081E02D81810B
:1048C0008695869586958DAF1EAE0DAD1EADE09199
:1048D0009741F09198410280F381E02D0784F0899F
:1048E000E02D0231110509F065C032970190F08189
:1048F000E02D81818695869586958FAF21961FAE96
:10490000219721962EAD3FAD21972130310509F138
:10491000E0919741F09198410280F381E02D078466
:10492000F089E02D32970190F081E02D818186950C
:104930008695869522968FAF229723961FAE239752
:1049400023964EAD5FAD23974F30510511F00C9477
:104950005E3FE0919741F09198418091974190910D
:10496000984120919741309198410280F381E02D48
:104970000784F089E02D369740815181DC01129641
:10498000ED91FC9113970784F089E02D3297019007
:10499000F081E02D62817381D9011296ED91FC9135
:1049A00013970784F089E02D3497808191810E94CC
:1049B000F74043C034970190F081E02D81818695C6
:1049C0008695869524968FAF249725961FAE2597BA
:1049D0002596EEADFFAD2597739711F00C945E3FD1
:1049E000E0919741F0919841809197419091984141
:1049F00020919741309198410280F381E02D078406
:104A0000F089E02D369740815181DC011296ED91BD
:104A1000FC9113970784F089E02D329760817181B2
:104A2000D9011296ED91FC9113970784F089E02D3E
:104A30003497808191810E941062182F81110C940B
:104A4000593FE0919741F09198410280F381E02D28
:104A50008785908906970C94822EE0919741F0917A
:104A600098410280F381E02D0784F089E02D34978E
:104A70000190F081E02D8181869586958695269618
:104A80008FAF269727961FAE27972796EEADFFADDF
:104A90002797729709F040C0E0919741F0919841B3
:104AA0000280F381E02D0784F089E02D3297019098
:104AB000F081E02D818186958695869528968FAF29
:104AC000289729961FAE299729960EAD1FAD2997D5
:104AD0000130110509F5E0919741F0919841A091BD
:104AE0009741B09198410280F381E02D0784F089CD
:104AF000E02D32970190F081E02D62817381129652
:104B0000ED91FC9113970784F089E02D3497808113
:104B100091810E949F415FC0E0919741F09198413F
:104B20000280F381E02D0784F089E02D3497019015
:104B3000F081E02D81818695869586952A968FAFA6
:104B40002A972B961FAE2B972B962EAD3FAD2B970A
:104B50002331310511F00C945E3FE0919741F091C3
:104B600098410280F381E02D0784F089E02D32978F
:104B70000190F081E02D81818695869586952C9611
:104B80008FAF2C972D961FAE2D972D964EAD5FAD06
:104B90002D974231510510F00C945E3FE091974102
:104BA000F0919841A0919741B09198410280F38192
:104BB000E02D0784F089E02D329760817181129693
:104BC000ED91FC9113970784F089E02D3497808153
:104BD00091810E94E962182F882309F421C70C945F
:104BE000593FE0919741F09198410280F381E02D87
:104BF0000784F089E02D32970190F081E02D8181CA
:104C00008695869586952E968FAF2E972F961FAEFA
:104C10002F972F966EAD7FAD2F976130710511F0F4
:104C20000C945E3FE0919741F09198410280F381AE
:104C3000E02D0784F089E02D34970190F081E02D7C
:104C4000818186958695869560968FAF60976196EF
:104C50001FAE619761968EAD9FAD6197019711F080
:104C60000C945E3FE0919741F0919841809197417B
:104C7000909198410280F381E02D0784F089E02D26
:104C8000349720813181DC011296ED91FC911397CC
:104C90000784F089E02D329740815181F9018281AA
:104CA0009381A481B581BC01CD01FA01028004C0C9
:104CB000660F771F881F991F0A94D2F7C3C1E0912E
:104CC0009741F09198410280F381E02D0784F089AB
:104CD000E02D32970190F081E02D818186958695B7
:104CE000869562968FAF629763961FAE63976396C1
:104CF0000EAD1FAD63970130110511F00C945E3FAE
:104D0000E0919741F09198410280F381E02D078472
:104D1000F089E02D34970190F081E02D8181869516
:104D20008695869564968FAF649765961FAE659756
:104D300065962EAD3FAD65972130310511F00C948D
:104D40005E3FE0919741F091984180919741909119
:104D500098410280F381E02D0784F089E02D34979B
:104D600020813181DC011296ED91FC91139707842B
:104D7000F089E02D329740815181F9018281938140
:104D8000A481B581BC01CD01FA01028004C09595D2
:104D90008795779567950A94D2F754C1E09197412A
:104DA000F09198410280F381E02D0784F089E02D95
:104DB00032970190F081E02D8181869586958695C8
:104DC00066968FAF669767961FAE679767960EAD2C
:104DD0001FAD67970130110511F00C945E3FE09113
:104DE0009741F09198410280F381E02D0784F0898A
:104DF000E02D34970190F081E02D81818695869594
:104E0000869568968FAF689769961FAE6997699681
:104E10002EAD3FAD69972130310511F00C945E3F06
:104E2000E0919741F09198418091974190919841FC
:104E30000280F381E02D0784F089E02D34972081F2
:104E40003181DC011296ED91FC9113970784F08972
:104E5000E02D32970190F081E02DD90112964D910D
:104E60005D916D917C91159782819381A481B5812B
:104E70008A019B01082319232A233B23E1C0E091E7
:104E80009741F09198410280F381E02D0784F089E9
:104E9000E02D32970190F081E02D818186958695F5
:104EA00086956A968FAF6A976B961FAE6B976B96D7
:104EB0002EAD3FAD6B972130310511F00C945E3F64
:104EC000E0919741F09198410280F381E02D0784B1
:104ED000F089E02D34970190F081E02D8181869555
:104EE000869586956C968FAF6C976D961FAE6D9775
:104EF0006D964EAD5FAD6D974130510511F00C943C
:104F00005E3FE0919741F091984180919741909157
:104F100098410280F381E02D0784F089E02D3497D9
:104F200020813181DC011296ED91FC911397078469
:104F3000F089E02D32970190F081E02DD901129691
:104F40004D915D916D917C91159782819381A481A2
:104F5000B5818A019B01082719272A273B2770C0A2
:104F6000E0919741F09198410280F381E02D078410
:104F7000F089E02D32970190F081E02D81818695B6
:104F8000869586956E968FAF6E976F961FAE6F97CC
:104F90006F962EAD3FAD6F972130310511F00C9417
:104FA0005E3FE0919741F09198410280F381E02DBE
:104FB0000784F089E02D34970190F081E02D818104
:104FC000869586958695A0968FAFA097A1961FAEE1
:104FD000A197A1964EAD5FADA1974130510511F05B
:104FE0000C945E3FE0919741F091984180919741F8
:104FF000909198410280F381E02D0784F089E02DA3
:10500000349720813181DC011296ED91FC91139748
:105010000784F089E02D32970190F081E02DD901CD
:1050200012964D915D916D917C911597828193813E
:10503000A481B5818A019B01082B192B2A2B3B2BBC
:10504000C901B801AE014B5F5F4F0E94AD1A182F26
:1050500081110C94593FE0919741F0919841028061
:10506000F381E02D8785908902978787908B0C9438
:10507000C51E8091A34181111CC081E08093A34192
:10508000E0919741F091984161E0063409F060E0C9
:105090000280F381E02D0784F089E02D329740E013
:1050A000808191810E942A46182F81110C94593FCA
:1050B0000AC0073411F780E20E94C90F182F81112E
:1050C0000C94593FDACFE0919741F09198410280DA
:1050D000F381E02D8785908902978787908B06342E
:1050E00011F00C94761F1092A3418091A441882363
:1050F00011F40C94D33C8AE00E94C90F182F10922F
:10510000A4410C94D33CE0919741F09198410280E6
:10511000F381E02D0184F285E02D8681813089F5CF
:1051200011110C94593FA0919741B091984112965A
:105130000D90BC91A02D828193811F968D939C939D
:105140005097A0919741B091984112960D90BC91C3
:10515000A02D8481958117968D939C931897A0918B
:105160009741B091984112960D90BC91A02D8781E6
:10517000908519968D939C931A97CF010E94EC18F5
:105180004AC0C780D084C114D10451F2EF83F8879C
:10519000CF010E94EC18182F81110C94593FF60191
:1051A000BCCFA0919741B0919841E0919741F09187
:1051B000984112966D917C911397695F7F4F0280A1
:1051C000F381E02D86810E9400438B839C83E091D4
:1051D0009741F09198410280F381E02D0480F581A0
:1051E000E02D0280F381E02D0480F581E02D029610
:1051F000880F991FE80FF91F608171816F8378878D
:10520000E0919741F09198410280F381E02D8385F0
:1052100094850E94E962182F0C94D33CE091974149
:10522000F0919841A281B3811F96ED91FC91509726
:10523000CF0102961F968D939C935097A091974112
:10524000B091984112960D90BC91A02D1B968D9116
:105250009C911C970C94483FE0919741F0919841A4
:10526000A281B3811F96ED91FC91509732971F96C2
:10527000ED93FC935097808191818F839887E09183
:105280009741F09198410280F381E02DE987FA87F8
:10529000A0919741B091984112960D90BC91A02D8C
:1052A00012962D913C911397232B41F4E091974155
:1052B000F0919841148210E00C94123F4091974174
:1052C000509198412091974130919841D90112967F
:1052D0002D913C911397D90112962D913C911397E2
:1052E000DA0112962D933C931397A481B5811296FF
:1052F0000D90BC91A02D55962C9125FF0EC0E091EC
:105300009741F09198419281838199878A87EF81B3
:10531000F885692F782F0C94F73E218921FF0AC068
:1053200020915A4130915B418217930711F00C9400
:105330005E3F15C020FD13C0E0919741F091984168
:10534000A281B3811F96ED91FC9150979F012E5F32
:105350003F4F1F962D933C9350978083918389856F
:105360009A8590C0E0919741F0919841A091974122
:10537000B09198410280F381E02D0784F089E02DFF
:1053800032970190F081E02D648175811296ED9144
:10539000FC91139741E0838594850E948B63A4C49C
:1053A000E0919741F0919841A281B3811F96ED91D0
:1053B000FC91509732971F96ED93FC935097808104
:1053C000918189879A87E0919741F0919841028075
:1053D000F381E02D218921FF02C00C945E3FE09112
:1053E0009741F0919841A0919741B09198411296C0
:1053F0000D90BC91A02D12962D913C911397228374
:1054000033830C94373FE0919741F09198410280AB
:10541000F381E02D8185928589879A87E091974174
:10542000F0919841A0919741B09198410280F38109
:10543000E02D12960D90BC91A02D19960D90BC9167
:10544000A02D17962D913C91189721873287E091D6
:105450009741F09198410280F381E02DDC01129692
:105460002D913C9113972787308BE0919741F091D4
:1054700098410280F381E02D14962D913C9115976F
:10548000278330870E94EC1881110C94AE3E0C9457
:10549000F81CE0919741F09198418091974190914B
:1054A000984120919741309198410280F381E02DFD
:1054B0000784F089E02D369740815181DC011296F6
:1054C000ED91FC9113970784F089E02D349760816A
:1054D0007181D9011296ED91FC9113970784F0899F
:1054E000E02D32979E01295F3F4F808191810E947C
:1054F000BC5E182F81110C94593FE0919741F091B7
:1055000098410280F381E02D8785908904978787F1
:10551000908B0C94E834A0919741B0919841E09120
:105520009741F091984112966D917C911397695F24
:105530007F4F0280F381E02D86810E9400438B83A0
:105540009C83E0919741F09198410280F381E02D96
:105550000480F581E02D0280F381E02D0480F58147
:10556000E02D0296880F991FE80FF91F6081718165
:105570006F837887E0919741F0919841A09197418E
:10558000B09198410280F381E02D0784F089E02DED
:105590003297408151811296ED91FC91139783854A
:1055A0009485A0C3E0919741F0919841A281B38185
:1055B0001F96ED91FC91509732971F96ED93FC93B7
:1055C00050978081918189879A87BE016D5F7F4F57
:1055D0000E94014A182FA0919741B0919841E09103
:1055E0009741F091984112966D917C911397695F64
:1055F0007F4F0280F381E02D8681112321F00E94EC
:1056000000430C94593F0E9400432B813C81821738
:10561000930711F00C94503F6B817C8161507109AC
:105620006B837C8377FF02C00C94761FAE01495FC9
:105630005F4F89859A850E941F4A182F81110C940B
:10564000593FE0919741F0919841A281B3811F9613
:10565000ED91FC915097CF0102961F968D939C93EC
:1056600050978F81988580839183D6CFA091974161
:10567000B0919841E0919741F091984112966D91C7
:105680007C911397695F7F4F0280F381E02D8681C3
:105690000E9400438B839C83E0919741F091984155
:1056A0000280F381E02D0784F089E02D329701908C
:1056B000F081E02D8181869586958695A2968FAFA3
:1056C000A297A3961FAEA397A396EEADFFADA397A7
:1056D000399709F055C060919D4170919E41E091CC
:1056E0009741F09198410280F381E02D0784F08981
:1056F000E02D3297AE01475F5F4F808191810E941C
:10570000A45F182F81110C94593FE0919741F091BB
:1057100098410280F381E02D0784F089E02D3297D3
:10572000808191818F839887E0919741F091984192
:10573000A281B3811F96ED91FC915097CF01029603
:105740001F968D939C93509789859A85808391832A
:10575000E0919741F0919841A281B3811F96ED911C
:10576000FC915097CF0102961F968D939C93509772
:105770008F819885808391836B827C820C94CD3A53
:10578000E0919741F09198410280F381E02D0784E8
:10579000F089E02D3297BE01695F7F4F8081918152
:1057A0000E94AA4A182F8F3EE9F4E0919741F091A8
:1057B00098410280F381E02D878590890297878741
:1057C000908BE0919741F09198410280F381E02D18
:1057D000278130858B819C81820F931F87839087DF
:1057E0000C94761F81110C940D3F0C94133EA091E4
:1057F0009741B0919841E0919741F091984112966C
:105800006D917C911397695F7F4F0280F381E02D4A
:1058100086810E9400438B839C83E0919741F091A5
:1058200098410280F381E02D0784F089E02D3297C2
:105830000190F081E02D2181269526952695A4964C
:105840002FAFA497A5961FAEA597A5960EAD1FAD39
:10585000A59708301105F9F0E0919741F091984132
:105860000280F381E02D0784F089E02D32970190CA
:10587000F081E02D2181269526952695A6962FAFBD
:10588000A697A7961FAEA797A7962EAD3FADA79751
:105890002630310579F4E0919741F09198410280EA
:1058A000F381E02D0784F089E02D32970190F0819B
:1058B000E02D4FC0E0919741F09198410280F38133
:1058C000E02D0784F089E02D32970190F081E02DE2
:1058D0002181269526952695A8962FAFA897A9965B
:1058E0001FAEA997A9964EAD5FADA997E0919741DC
:1058F000F09198410280F381E02D0784F089E02D3A
:1059000032970190F081E02D4730510519F4228142
:10591000338144C02181269526952695AA962FAFDE
:10592000AA97AB961FAEAB97AB966EAD7FADAB971C
:10593000E0919741F09198410280F381E02D078436
:10594000F089E02D32970190F081E02D69307105EA
:1059500019F42481358122C021812695269526952A
:10596000AC962FAFAC97AD961FAEAD97AD96AEADE2
:10597000BFADAD97519711F00C944C3FE09197411A
:10598000F09198410280F381E02D0784F089E02DA9
:1059900032970190F081E02D268137812F8338875F
:1059A000AF81B88511962C9111972695269526954D
:1059B000AE962FAFAE97AF961FAEAF97AF96EEAD48
:1059C000FFADAF97739711F00C944E3FE091974164
:1059D000F09198410280F381E02D0480F581E02D63
:1059E0000280F381E02D0480F581E02D0296880F7E
:1059F000991FE80FF91F608171816D837E83E091AB
:105A00009741F09198410280F381E02D0784F0895D
:105A1000E02D349740815181CD010E941062DBC896
:105A2000E0919741F09198410280F381E02D8785C4
:105A30009089049767C1A0919741B0919841E091F6
:105A40009741F091984112966D917C911397695FFF
:105A50007F4F0280F381E02D86810E9400438B837B
:105A60009C83E0919741F09198410280F381E02D71
:105A70000784F089E02D32970190F081E02D21819B
:105A8000269526952695E0962FAFE097E1961FAED6
:105A9000E197E1960EAD1FADE19708301105F9F0E1
:105AA000E0919741F09198410280F381E02D0784C5
:105AB000F089E02D32970190F081E02D218126952B
:105AC00026952695E2962FAFE297E3961FAEE397D1
:105AD000E3962EAD3FADE3972630310579F4E091A2
