:100000000C94D90C0C94F80C0C94F80C0C94F80C7F
:100010000C94F80C0C94F80C0C94F80C0C94380D0F
:100020000C94F80C0C94F80C0C94F80C0C94F80C40
:100030000C94F80C0C94F80C0C94F80C0C94F80C30
:100040000C94F80C0C94F80C0C94F80C0C94F80C20
:100050000C94F80C0C94F80C0C94F80C0C94F80C10
:100060000C94F80C0C94F80C0C94F80C0C94F80C00
:100070000C94F80C0C94F80C0C94F80C0C94F80CF0
:100080000C94F80C0C94F80C0C94F80C0C94F80CE0
:100090000C94F80C0C94F80C0C94F80C0C94F80CD0
:1000A0000C94F80C0C94F80C0C94F80C0C94F80CC0
:1000B0000C94F80C0C94F80C0C94F80C0C94F80CB0
:1000C0000C94F80C0C94F80C0C94F80C0C94F80CA0
:1000D0000C94F80C0C94F80C0C94F80C0C94F80C90
:1000E0000C94F80C0C94F80C0C94F80CC312C3127A
:1000F000C312C312CB12F612171351131713511355
:1001000036143614C312F2133614C312C3123A1340
:10011000E612EE1236143614361436143614621300
:10012000D8133614A513F213FD1320300817421705
:100130009817A917223922392239CC161B183718DB
:100140004A1883182239A818223922392239F61878
:100150006F19F01A0E1B921B4A1CAC1CF01A2239A4
:10016000F01A22393D1D921D921D921D223922390D
:1001700022392239223922392239223922392239A7
:100180002239223922392239223922392239223997
:1001900022392239651B921B4A1C6F19F01A0E1B5B
:1001A000251E011FC51F3320A22013218421F6180C
:1001B000181922390D220D22472222392239C51F52
:1001C0003320A2201321842157222239E222002346
:1001D00086232239A423D72322391D245F24A52274
:1001E000A6240A25D618CB25EF2600285A289328BE
:1001F00009293F29AE29022A2239582A8A2A7A2C2B
:10020000642E2C2F8B2FAB2FF92F5B30AB2FF92FB8
:100210009230223922395B30D730223922392239C3
:1002200040317631A431223922392239C5316B323D
:10023000AB3622393D37FA37FA373838542D5B2D33
:10024000622D692D702D772D32393239FD2D1D2EFD
:10025000043FF73E023FEF3EEF3E023F023F023FC8
:10026000023F023F023F023F023F023F023FF73E92
:10027000023F023FEF3EEF3E27402F40804032409A
:100280003E405840584058405840584058405840C8
:1002900058405840804047405840584041404440B2
:1002A000804080408040804080408040804080404E
:1002B0008040584025640A0046696C6549642030D6
:1002C0007825303258206C696E65200025733A001D
:1002D00020646574656374656420627920004572EA
:1002E000726F7220636F6465203078253032580059
:1002F000257300202046696C6520222573222C205E
:100300006C696E652025642C20696E2025730A00B7
:10031000202025732829205F5F4E41544956455FB0
:100320005F0A002020556E61626C6520746F206743
:100330006574206E61746976652066756E63206EE3
:10034000616D652E0054726163656261636B202884
:100350006D6F737420726563656E742063616C6C7D
:10036000206669727374293A0057044C04440432BD
:1003700004230414040804FD03F403E803DE03D299
:1003800003C603BC03B103A3039B038D034F766530
:1003900072666C6F774572726F72005761726E6928
:1003A0006E670053746F70497465726174696F6E23
:1003B0000056616C75654572726F72005479706594
:1003C0004572726F720053797374656D4572726F06
:1003D000720053796E7461784572726F72004E616B
:1003E0006D654572726F72004D656D6F7279457201
:1003F000726F72004B65794572726F7200496E645C
:1004000065784572726F7200496D706F72744572D3
:10041000726F7200417474726962757465457272AC
:100420006F7200417373657274696F6E4572726F9B
:1004300072005A65726F4469766973696F6E4572AE
:10044000726F7200496F4572726F720053797374E4
:10045000656D4578697400457863657074696F6E81
:10046000005D0553054C0544053D0534052D052764
:10047000052105180509050205FB04F504EC04E651
:1004800004DC04D604CD04C504BF04BA04B104A935
:1004900004A10495046279746561727261792E63B6
:1004A00000636C6173732E6300666C6F61742E63FE
:1004B000007468726561642E6300706D2E63007352
:1004C00065712E63007475706C652E6300737472B1
:1004D0006F626A2E6300736C692E63007365676CCC
:1004E0006973742E63006F626A2E63006D6F6475AA
:1004F0006C652E63006D656D2E63006D61696E2EF7
:1005000063006C6973742E6300706D7374646C693E
:10051000625F6E61742E6300696E746572702E6323
:1005200000696E742E6300696D672E6300686561F3
:10053000702E6300676C6F62616C2E630066756E6F
:10054000632E63006672616D652E63006469637477
:100550002E6300636F64656F626A2E63003C6E6F8A
:100560002066696C653E000A4D0000400200000DE7
:1005700000040203030069706D0304006D61696E7D
:100580000302000C020308006D61696E2E70790091
:10059000040201FFFFFFFF0004006400006401008B
:1005A0006C00005A00006500006A00008300000132
:1005B00064010053FF0A1805004003000010000406
:1005C0000A0308005F5F6E616D655F5F0308005F8F
:1005D0004175746F626F78030600617070656E64B8
:1005E000030500636F756E74030600657874656EAD
:1005F00064030500696E646578030600696E7365BF
:100600007274030300706F7003060072656D6F767D
:10061000650304006C6973740310000602131A0961
:100620001709080905092209270937030F002E2E8B
:100630002F6C69622F6C6973742E707900040C033F
:1006400004006C6973740308005F4175746F626F16
:10065000780A330300420200001200040B03080072
:100660005F5F6E616D655F5F030A005F5F6D6F6462
:10067000756C655F5F030600617070656E640305ED
:1006800000636F756E74030600657874656E6403AD
:100690000500696E646578030600696E736572749F
:1006A0000304004E6F6E65030300706F7003060055
:1006B00072656D6F76650308005F4175746F626FD8
:1006C00078030E000601090309030903090309035E
:1006D0000C06030F002E2E2F6C69622F6C69737449
:1006E0002E70790004080A50000243030200130030
:1006F0000403030600617070656E640303006F629B
:100700006A030600617070656E64030200000103F5
:100710000F002E2E2F6C69622F6C6973742E707906
:100720000004010004007400007C00006A01007CE9
:100730000100830200530A4E000243030200160028
:100740000403030500636F756E740303006F626A30
:10075000030500636F756E740302000001030F0050
:100760002E2E2F6C69622F6C6973742E70790004C1
:10077000010004007400007C00006A01007C01009C
:10078000830200530A5000024303020019000403CD
:10079000030600657874656E640303006F626A0384
:1007A0000600657874656E640302000001030F00A3
:1007B0002E2E2F6C69622F6C6973742E7079000471
:1007C000010004007400007C00006A01007C01004C
:1007D000830200530A4E0002430302001C0004037C
:1007E000030500696E6465780303006F626A0305A0
:1007F00000696E6465780302000001030F002E2E6D
:100800002F6C69622F6C6973742E7079000401007B
:1008100004007400007C00006A01007C0100830277
:1008200000530A530003430403001F00040303069C
:1008300000696E736572740303006F626A030600D9
:10084000696E736572740302000001030F002E2E9F
:100850002F6C69622F6C6973742E7079000401002B
:1008600004007400007C00006A01007C01007C022E
:1008700000830300530A72000243030200220004B3
:10088000040304004E6F6E65030300706F70030372
:10089000006F626A030300706F7003060000010CB2
:1008A000010D02030F002E2E2F6C69622F6C6973ED
:1008B000742E70790004010004007C0100640000C3
:1008C0006B02007219007401007C00006A02008350
:1008D0000100537401007C00006A02007C01008367
:1008E000020053640000530A500002430302002830
:1008F00000040303060072656D6F76650303006FE5
:10090000626A03060072656D6F766503020000017E
:10091000030F002E2E2F6C69622F6C6973742E707A
:10092000790004010004007400007C00006A0100EA
:100930007C0100830200530004006500005A01009E
:100940006400008400005A02006401008400005A20
:1009500003006402008400005A0400640300840061
:10096000005A05006404008400005A060064070071
:100970006405008401005A08006406008400005ADF
:10098000090052530B0200000A76000243030400E0
:1009900043000401030500636F756E74030A0000D1
:1009A0000106010D010C011101030F002E2E2F6C09
:1009B00069622F6C6973742E707900040300010062
:1009C000000000010100000004006401007D02003D
:1009D0007827007C0000445D1F007D03007C03003D
:1009E0007C01006B0200720D007C020064020017A3
:1009F0007D0200710D00710D00577C0200530A5EEC
:100A00000002430403004B000402030600617070FF
:100A1000656E64030600657874656E640304000007
:100A2000010D01030F002E2E2F6C69622F6C69736C
:100A3000742E7079000401000400781B007C010012
:100A4000445D13007D02007400007C00007C020005
:100A50008302000171070057640000530B0201007C
:100A60000B0302000B0203000B020400000400044D
:100A7000006400005A0000640100640B006402007E
:100A8000840000830000595A0100640300840000C0
:100A90005A02006404008400005A030064050084C4
:100AA00000005A04006406008400005A0500640730
:100AB000008400005A06006408008400005A070001
:100AC0006409008400005A0800640A00530AF50211
:100AD00000400300000C0004080308005F5F6E6123
:100AE0006D655F5F0308005F4175746F626F780327
:100AF0000500636C6561720304006B65797303071D
:100B0000006861735F6B657903060076616C7565DB
:100B1000730306007570646174650304006469639F
:100B200074030C000603130E0918092B0904092B82
:100B3000030F002E2E2F6C69622F646963742E7070
:100B40007900040A030400646963740308005F41C8
:100B500075746F626F780AD10100420100000F00C6
:100B600004070308005F5F6E616D655F5F030A0045
:100B70005F5F6D6F64756C655F5F030500636C6537
:100B800061720304006B6579730307006861735F2A
:100B90006B657903060076616C7565730308005F09
:100BA0004175746F626F7803080006010903090339
:100BB0000903030F002E2E2F6C69622F6469637482
:100BC0002E70790004040A4B00014302010010005A
:100BD0000403030500636C6561720303006F626ABE
:100BE000030500636C6561720302000001030F00DE
:100BF0002E2E2F6C69622F646963742E7079000445
:100C0000010004007400007C00006A010083010000
:100C1000530A4900014302010013000403030400C6
:100C20006B6579730303006F626A0304006B657977
:100C3000730302000001030F002E2E2F6C69622F38
:100C4000646963742E70790004010004007400006C
:100C50007C00006A0100830100530A520002430332
:100C60000200160004030307006861735F6B657977
:100C70000303006F626A0307006861735F6B657945
:100C80000302000001030F002E2E2F6C69622F64F7
:100C90006963742E70790004010004007400007C04
:100CA00000006A01007C0100830200530A4D00012C
:100CB000430201001900040303060076616C7565A8
:100CC000730303006F626A03060076616C756573D7
:100CD0000302000001030F002E2E2F6C69622F64A7
:100CE0006963742E70790004010004007400007CB4
:100CF00000006A01008301005304006500005A01EE
:100D0000006400008400005A0200640100840000B6
:100D10005A03006402008400005A04006403008443
:100D200000005A050052530B0105000B0106000A92
:100D30003C000243020200600004010307006861F6
:100D4000735F6B65790302000001030F002E2E2FE5
:100D50006C69622F646963742E7079000401000469
:100D6000007C01007C00006B0600530B0107000BA8
:100D700002080000040004006400005A000064013E
:100D800000640900640200840000830000595A01D5
:100D9000006403008400005A020064040084000020
:100DA0005A03006405008400005A040064060084AD
:100DB00000005A05006407008400005A0600640819
:100DC00000530AD605004003000012000419030373
:100DD0000061627303030063687203030064697255
:100DE0000304006576616C03060066696C746572C5
:100DF000030700676C6F62616C7303020069640330
:100E000003006C656E0306006C6F63616C73030313
:100E1000006D61700303006F7264030300706F77ED
:100E200003050072616E676503030073756D03044B
:100E30000074797065030200436F0308005F5F6E02
:100E4000616D655F5F0306006F626A656374030925
:100E500000457863657074696F6E030E00417373AB
:100E6000657274696F6E4572726F72030400636F0E
:100E7000646503090047656E657261746F720306ED
:100E80000069736D61696E0304005F5F6D64030444
:100E9000005F5F6269032E0009050926095B09648A
:100EA00009040919091B09430915090E0922090436
:100EB00009610968092509230606130716031602A6
:100EC000090B16A2093B030F002E2E2F6C69622F0F
:100ED0005F5F62692E707900041D0A4800014303B8
:100EE00001001200040103030061627303020000A9
:100EF00002030F002E2E2F6C69622F5F5F62692E36
:100F0000707900040200010000000004007C000071
:100F10007C00000B6602007C00006401006B000096
:100F200019530B0109000B010A000B030B000A54B3
:100F3000000243040300FC00040103060066696C20
:100F40007465720302000001030F002E2E2F6C69DE
:100F5000622F5F5F62692E707900040100040067F0
:100F600000007C0100445D18007D02007C00007CD4
:100F700002008301007207007C02005E020071071C
:100F800000530B000C000B010D000B010E000B00B9
:100F90000F000A970002430405008C0104030304B8
:100FA000004E6F6E650303006C656E0303006D6198
:100FB00070030C000002130306010D0110010E0363
:100FC000030F002E2E2F6C69622F5F5F62692E70F7
:100FD000790004030001000000000101000000048A
:100FE000006400006701007401007C0100830100BF
:100FF000147D02006401007D03007828007C01005C
:10100000445D20007D04007C00007C04008301001E
:101010007C02007C03003C7C0300640200377D03FB
:1010200000712000577C0200530B0110000A3600AB
:101030000243020200BC010401030300706F770346
:1010400002000001030F002E2E2F6C69622F5F5FDC
:1010500062692E70790004010004007C00007C01AC
:101060000013530B0311000B0112000B0113000BB3
:101070000114000303005442440306006F626A65D2
:1010800063740A50000042010000D7020403030801
:10109000005F5F6E616D655F5F030A005F5F6D6F8C
:1010A00064756C655F5F0306006F626A6563740355
:1010B00002000601030F002E2E2F6C69622F5F5F66
:1010C00062692E707900040004006500005A010076
:1010D0005253030900457863657074696F6E0A5353
:1010E000000042010000DE0204030308005F5F6E9F
:1010F000616D655F5F030A005F5F6D6F64756C65AE
:101100005F5F030900457863657074696F6E030261
:10111000000601030F002E2E2F6C69622F5F5F62A5
:10112000692E707900040004006500005A01005225
:1011300053030E00417373657274696F6E4572726A
:101140006F720A58000042010000E1020403030824
:10115000005F5F6E616D655F5F030A005F5F6D6FCB
:1011600064756C655F5F030E00417373657274692B
:101170006F6E4572726F720302000601030F002E3C
:101180002E2F6C69622F5F5F62692E7079000400F8
:1011900004006500005A0100525301E400000003FE
:1011A000090047656E657261746F720ADD00004266
:1011B000010000EE0204060308005F5F6E616D65CA
:1011C0005F5F030A005F5F6D6F64756C655F5F034F
:1011D00008005F5F696E69745F5F0304006E657885
:1011E0007403040073656E6403090047656E6572DD
:1011F00061746F72030600060209370904030F00C9
:101200002E2E2F6C69622F5F5F62692E7079000449
:10121000030B0215000A4A000143020100270304E0
:101220000303040073656E640304004E6F6E650370
:1012300004006E6578740302000001030F002E2E77
:101240002F6C69622F5F5F62692E70790004010064
:1012500004007C00006A0000640000830100530B5E
:1012600002160004006500005A01006400008400BA
:10127000005A02006401008400005A030064020066
:101280008400005A040052530B00170000040004AD
:10129000006400008400005A000064010084000023
:1012A0005A01006402008400005A020064030084B2
:1012B00000005A03006404008400005A040064051E
:1012C000008400005A05006406008400005A0600ED
:1012D0006407008400005A07006408008400005A74
:1012E00008006409008400005A0900640A008400B0
:1012F000005A0A00640B008400005A0B00640C00C2
:101300008400005A0C00640D008400005A0D006433
:101310000E008400005A0E00640F008400005A0F73
:10132000006410005A1000641100641C0064120074
:10133000840000830000595A1100641300651100F5
:10134000660100641400840000830000595A1200F2
:1013500064150065120066010064160084000083B5
:101360000000595A13006417006513005F140064ED
:1013700018006511006601006419008400008300F4
:1013800000595A1500641A008400005A16006900BA
:10139000005A1700641B00530A540100400100006A
:1013A0001600040A0306006D6178696E7403040078
:1013B00065786974030200676303040067657462FB
:1013C0000304006865617003040070757462030BA8
:1013D0000072756E496E546872656164030400742E
:1013E000696D6503040077616974030300737973A1
:1013F000031000060309230918091A0930092109F5
:101400001E0926030E002E2E2F6C69622F7379732E
:101410002E707900040A01FFFFFF7F0B0118000BFB
:101420000019000B001A000B001B000B011C000B25
:10143000011D000B001E000A6000014302020003B0
:1014400001040203040074696D6503040077616997
:101450007403060000010D011201030E002E2E2F51
:101460006C69622F7379732E707900040100040097
:101470007400008300007C0000177D0100781300D9
:101480007400008300007C01006B00007222007178
:10149000100057640000530004006400005A00006C
:1014A0006401008400005A01006402008400005AB4
:1014B00002006403008400005A03006404008400F6
:1014C000005A04006405008400005A050064060008
:1014D0008400005A06006407008400005A07006474
:1014E00008008400005A0800640900530AA703009A
:1014F000400300001000040B0307005F5F646F638C
:101500005F5F0308005F5F6E616D655F5F030800EA
:101510005F4175746F626F78030600646967697470
:101520007303090068657864696769747303070069
:101530006C65747465727303040061746F690305EC
:1015400000636F756E7403040066696E64030400C3
:101550006A6F696E030600737472696E6703120026
:1015600006030603130B0601060106070945095782
:10157000093B0311002E2E2F6C69622F7374726960
:101580006E672E707900040E000306007374726992
:101590006E670308005F4175746F626F780A7501AA
:1015A0000042010000160004060308005F5F6E6140
:1015B0006D655F5F030A005F5F6D6F64756C655FEB
:1015C0005F0304006A6F696E030500636F756E74D4
:1015D00003040066696E640308005F4175746F62FE
:1015E0006F780306000601090309030311002E2E7C
:1015F0002F6C69622F737472696E672E70790004A4
:10160000030A4E0002430302001700040303040010
:101610006A6F696E0303006F626A0304006A6F6990
:101620006E03020000010311002E2E2F6C69622F41
:10163000737472696E672E7079000401000400747F
:1016400000007C00006A01007C0100830200530A54
:10165000500002430302001A000403030500636FF5
:10166000756E740303006F626A030500636F756E25
:101670007403020000010311002E2E2F6C69622FEB
:10168000737472696E672E7079000401000400742F
:1016900000007C00006A01007C0100830200530A04
:1016A0004E0002430302001D0004030304006669A8
:1016B0006E640303006F626A03040066696E64036C
:1016C000020000010311002E2E2F6C69622F73742B
:1016D00072696E672E7079000401000400740000C6
:1016E0007C00006A01007C01008302005304006555
:1016F00000005A01006400008400005A02006401E6
:10170000008400005A03006402008400005A0400B0
:101710005253030A00303132333435363738390307
:10172000160030313233343536373839616263640C
:101730006566414243444546033400616263646523
:10174000666768696A6B6C6D6E6F707172737475C1
:10175000767778797A4142434445464748494A4B2F
:101760004C4D4E4F505152535455565758595A0B91
:10177000021F000B0220000B022100030100200ABF
:10178000B3000243030500010104020303006C657A
:101790006E0304006A6F696E03120000010C010CF5
:1017A0000104010A0106010F0112010E01031100DB
:1017B0002E2E2F6C69622F737472696E672E70798A
:1017C000000404000100000000030000010100000B
:1017D0000004007400007C00008301007D02007C96
:1017E00002006401006B0200721C00640200537C62
:1017F0000000640100197D03006403007D0400788B
:101800002C007C04007C02006B0000725A007C03F8
:10181000007C0100177C00007C040019177D030088
:101820007C0400640300377D0400712F00577C03A3
:10183000005300040004006400005A00006401002A
:101840005A0100640200640D0064030084000083F8
:101850000000595A02006404005A03006405005A4B
:1018600004006406005A05006407008400005A065C
:10187000006408008400005A070064090084000026
:101880005A0800640A00640B008401005A090064CD
:101890000C00530A1D010040020000110004040363
:1018A00007005F676574496D670303007830340390
:1018B000030069706D03030069706D03040009394A
:1018C000090B030E002E2E2F6C69622F69706D2E8E
:1018D00070790004040B0022000B0023000AAE0004
:1018E0000143030400550004070307005F676574A4
:1018F000496D67030200436F0304006576616C0362
:10190000030078303403050046616C7365030E00F4
:10191000417373657274696F6E4572726F720303FF
:101920000069706D030C000001030409010C010F34
:10193000010B04030E002E2E2F6C69622F69706D4F
:101940002E7079000401000400782F0074000083D9
:1019500000007D01007401007C01008301007D0214
:10196000007402007C02007C00008302007D030002
:101970007403008300000171030057740400733E78
:10198000007405008201006400005300040064003C
:10199000008400005A00006401008400005A010025
:1019A0006900006402008401005A020064030053CD
:1019B000FF0011241FBECFEFCDBFDFE7DEBF11E474
:1019C000A0E0B0E4ECE2FFEC00E00BBF02C0079047
:1019D0000D92A830B107D9F721E4A8E0B1E401C025
:1019E0001D92A83AB207E1F70E94ED610C9494674A
:1019F0000C9400008091640887FFFCCF8091600800
:101A000090E008958CE080936800E0EAF4E080E2E2
:101A10008183168280E4828386898860868BE0E2F7
:101A2000F4E081E08583818382E08283E0E6F8E070
:101A300086E0818782E8808723E0278380EC8683A5
:101A4000E0EAF1E480E090E48483958382839383E9
:101A500080839183E0E0FAE087E08083218384EF54
:101A600091E086A397A3789480E0089580E008959C
:101A70001F920F920FB60F9211240BB60F922F9355
:101A80003F934F935F936F937F938F939F93AF9306
:101A9000BF93EF93FF9380E092E00E944841FF9153
:101AA000EF91BF91AF919F918F917F916F915F91D6
:101AB0004F913F912F910F900BBE0F900FBE0F9043
:101AC0001F9018950F931F93CF93DF93DB01813005
:101AD00099F068F08230C1F4EB0108811981C801E6
:101AE0000E948C670F5F1F4F088319830EC0ED9112
:101AF000FC911197819105C0ED91FC911197849112
:101B00003196ED93FC9301C080E0DF91CF911F915E
:101B10000F91089580916408881F8827881F089571
:101B20008091640885FB882780F90895CF93C82F9A
:101B30000E94900D8823E1F3C093620880E090E05A
:101B4000CF910895FC018091640887FFFCCF9091AC
:101B50006108947429F480916008808380E008957E
:101B600082EE0895CF93C82F0E94900D8823E1F351
:101B7000C093620880E0CF910895FC019FB7F8946C
:101B800040914C4150914D4160914E4170914F4177
:101B900040835183628373839FBF80E008956F9277
:101BA0007F928F929F92AF92BF92CF92DF92EF92ED
:101BB000FF920F931F93CF93DF93CDB7DEB7669756
:101BC000CDBFDEBF182F85E493E00E94A464E091AE
:101BD0009141F0919241E280F38081E7E81681E43F
:101BE000F80651F5E0917541F09176410280F3815C
:101BF000E02DAE014B5E5F4F6FEF7FEF84819581EB
:101C00000E946E4D882329F083E293E00E94A46431
:101C10000EC18D899E8906969F938F9380E193E0F4
:101C20009F938F930E944C64E0907341F0907441B5
:101C30000F900F900F900F90DE0111965D0123EF32
:101C4000622E22E0722EE114F10499F0D70114966D
:101C5000ED91FC9115970280F381E02DAE014B5E72
:101C60005F4F6FEF7FEF848195810E946E4D8823D7
:101C7000D1F08FEF810F813F08F089C0E12FF0E0B4
:101C8000EE0FFF1FE755FE4F6591749142E150E062
:101C90008E010F5F1F4FC8010E9423641F930F9393
:101CA00080EF92E078C0D7011496ED91FC911597E2
:101CB0000280F381E02D17968D909C901897808577
:101CC0009185881A990A828593858B8B9C8BBE019E
:101CD0006D5E7F4F81E00E94D43CD7011496ED9158
:101CE000FC911597A281B3811E96CD90DC901F9731
:101CF0006B897C899B0140E050E0F901E61BF70B02
:101D0000E817F907F8F4F90104913196400F511DD5
:101D10008416950688F4EB8BFC8B53968C91539725
:101D2000813099F41C966D917C911D9742E150E0B1
:101D3000C5010E94236409C0E4912E5F3F4FCE0E7F
:101D4000D11CDBCF2B8B3C8BE8CF8D899E890696EF
:101D5000D7011496ED91FC9115970280F381E02D47
:101D60002389213019F02485358501C095019F9381
:101D70008F93DF92CF923F932F937F926F920E9427
:101D80004C64F701E280F380CDBFDEBF5CCF1F92D1
:101D90001F938EED92E09F938F930E944C640F905F
:101DA0000F900F900F9080ED92E09F938F930E9481
:101DB0004C6480918C410F900F908823D1F08091DA
:101DC0008C418A31B0F4E0918C41F0E0EE0FFF1FBE
:101DD000EF59FB4F659174914FE050E08E010F5F1A
:101DE0001F4FC8010E9423641F930F938CEC92E055
:101DF00006C080918C411F928F9388EB92E09F9355
:101E00008F930E944C640F900F900F900F908091D1
:101E10008D4190918E419F938F9384EB92E09F939D
:101E20008F930E944C640F900F900F900F906696C6
:101E3000CDBFDEBFDF91CF911F910F91FF90EF904B
:101E4000DF90CF90BF90AF909F908F907F906F90DA
:101E500008958CEE0895CF92DF92EF92FF920F9348
:101E60001F93CF93DF93CDB7DEB76097CDBFDEBFB3
:101E700086E990E48F87988B8BE990E489879A872D
:101E800084EA90E48F8398878EEA90E48D839E8322
:101E900083EB90E48B839C838DEB90E489839A831E
:101EA0004CE450E060E084E591E40E94384588E02D
:101EB00080938B41BE01635F7F4F86E090E00E947C
:101EC0001316811142C1ED85FE85EB87FC87808169
:101ED000918197709860808391831282138214821B
:101EE0001582E0935641F0935741BE01635F7F4FE7
:101EF00086E090E00E941316811127C1ED85FE85D2
:101F0000EB87FC87808191819770986080839183B3
:101F1000C12CD12C7601C394C282D382E482F58293
:101F2000E0935841F0935941BE01635F7F4F86E0D3
:101F300090E00E941316811108C1ED85FE85EB87A4
:101F4000FC878081918197709860808391838FEF67
:101F50009FEFDC0182839383A483B583E0935A418E
:101F6000F0935B41BE01635F7F4F86E090E00E948B
:101F700013168111EAC0ED85FE85EB87FC87808111
:101F80009181977098678083918312821382148263
:101F90001582E0935C41F0935D41BE01635F7F4F2A
:101FA00086E090E00E9413168111CFC0ED85FE857A
:101FB000EB87FC87808191819770986780839183FC
:101FC000C282D382E482F582E0935E41F0935F4166
:101FD000BE01635F7F4F82E090E00E941316811183
:101FE000B4C0ED85FE85EB87FC8780819181977079
:101FF00080839183E0935441F09355418E01055FB6
:102000001F4F21E030E040E050E0BE01615F7F4FB4
:1020100080E00E94A647811198C08B859C858093A3
:1020200060419093614121E030E040E050E0BE012A
:10203000675F7F4F80E00E94A647811186C08B8535
:102040009C85809393419093944121E030E040E05F
:1020500050E0BE01695F7F4F80E00E94A64781117A
:1020600074C08B859C85809395419093964121E027
:1020700030E040E050E0BE016B5F7F4F80E00E94A7
:10208000A647811162C08B859C8580939741909370
:10209000984121E030E040E050E0BE016D5F7F4FAD
:1020A00080E00E94A647811150C08B859C8580935B
:1020B000994190939A4121E030E040E050E0BE0128
:1020C0006F5F7F4F80E00E94A64781113EC08B85E5
:1020D0009C8580939B4190939C4110926241109209
:1020E00063418AE190E080937141909372418091C5
:1020F0007141909172419770906F8093714190936C
:10210000724110927541109276411092774110926F
:1021100078411092794110927A41C8010E94443A64
:102120002B853C8520938F413093904191E0909393
:10213000644125EB35E020936841309369419093E9
:10214000704110929D4110929E416096CDBFDEBFBE
:10215000DF91CF911F910F91FF90EF90DF90CF9083
:1021600008950F931F93CF93DF93CDB7DEB72E97CC
:10217000CDBFDEBF1D861E8682EC90E48B879C87D8
:1021800087EC90E489879A878DEC90E48F83988719
:102190001D821E8282ED90E489839A838E010B5FFB
:1021A0001F4F21E030E040E050E0BE016F5F7F4F05
:1021B00080E00E94A64781116CC0BE016D5F7F4F19
:1021C0008D819E810E94073E811163C08B819C811D
:1021D0000E944C3981E00E949E1681115AC0EB8109
:1021E000FC81848195818093624190936341085F73
:1021F0001F4F21E030E040E050E0BE01655F7F4FBF
:1022000080E00E94A647811144C040915441509102
:10221000554180916241909163416D857E850E9418
:10222000E45B811136C021E030E040E050E0BE01C7
:10223000675F7F4F0E94A64781112BC040915C4190
:1022400050915D4180916241909163416D857E85A1
:102250000E94E45B81111DC021E030E040E050E0CD
:10226000BE01695F7F4F0E94A647811112C0409155
:102270005E4150915F4180916241909163416D85D3
:102280007E850E94E45B811104C08B819C810E9449
:10229000C0142E96CDBFDEBFDF91CF911F910F915D
:1022A0000895EF92FF920F931F93CF93DF93CDB7D3
:1022B000DEB72597CDBFDEBF7C011B821C8282ED7D
:1022C00090E489839A838091624190916341892B44
:1022D00011F40E94B1108E010D5F1F4F21E030E01C
:1022E00040E050E0BE016F5F7F4F80E00E94A64754
:1022F000811117C0BE016B5F7F4F8B819C810E9453
:10230000491640916241509163416B817C81F70194
:10231000848195810E94E45B182F8D810E945C1658
:10232000812F2596CDBFDEBFDF91CF911F910F91F9
:10233000FF90EF900895DC018D919C9111978C7F17
:10234000409110415091114160911241709113419F
:10235000481B590B61097109409310415093114179
:1023600060931241709313411496ED91FC9115976F
:10237000309731F012968D919C91139782839383BD
:1023800012960D90BC91A02D109729F4E0930E4168
:10239000F0930F4104C01496ED93FC93159780E0E1
:1023A0000895CF93DF93FC01808191818C7F4091D0
:1023B0001041509111416091124170911341480FA9
:1023C000591F611D711D409310415093114160933D
:1023D000124170931341A0910E41B0910F4110979B
:1023E00089F4E0930E41F0930F411482158212821A
:1023F000138232C014962D913C9115972115310509
:1024000049F0D9012D913C9111972C7F281739075C
:1024100088F309C0148215821496ED93FC931597E6
:10242000A283B38319C0A483B58312968D919C9126
:102430001397828393831296CD91DC911397209703
:1024400029F4E0930E41F0930F4102C0EC83FD8329
:102450001296ED93FC93139780E0DF91CF9108954E
:10246000EF92FF920F931F93CF93DF93C0910E4192
:10247000D0910F41209751F0288139812C7F281766
:10248000390748F40C80DD81C02DF4CFFB011082A8
:10249000118289EE47C07B018C01CE010E949B1105
:1024A000811140C0888199819C012C7F201B310BB8
:1024B0002830310520F1FE01E00FF11F208131812C
:1024C00023703327226020833183488159814C7FD8
:1024D000401B510B4C7F242B352B20833183CF01A4
:1024E0000E94D11181111EC0888199818170987FCD
:1024F0000C7F1770082B192B0883198304C08D7F5C
:10250000977088839983209114418881998122232F
:1025100011F0816001C08E7F88839983F701C083A9
:10252000D18380E0DF91CF911F910F91FF90EF90C9
:1025300008958F929F92AF92BF92CF92DF92EF92C7
:10254000FF921F93CF93DF93EC01209709F42EC1E4
:102550008881998110911441AC0141705527212F38
:1025600030E04217530709F421C1FC01EF2FFF2788
:10257000E695E695E695EF31F10508F077C1EA5862
:10258000FF4F0C948C62112311F0816001C08E7F8B
:10259000888399830BC12A813B817901112311F032
:1025A000816001C08E7F88839983220F331FC20F01
:1025B000D31F81E0E81AF108F7FCF8C08A819B81FB
:1025C0000E94991222978823A1F351C1112311F07F
:1025D000816001C08E7F8883998370C0112311F0C0
:1025E000816001C08E7F8883998351C0112311F0CF
:1025F000816001C08E7F888399838C819D810E9438
:102600009912811134C18E819F810E94991281118A
:102610002EC18B89882321F00888D989C02D95CFB8
:102620008A819B810E9499128823B1F320C11123D2
:1026300011F0816001C08E7F888399838A819B819C
:102640000E949912811113C18C819D810E9499125F
:1026500081110DC18E819F810E949912811107C144
:10266000888599850E949912811101C10A84DB85B0
:10267000C02D6BCF112311F0816001C08E7F888344
:1026800099838A819B810E9499128111F0C08C816B
:102690009D810E9499128111EAC00E80DF81C02DB8
:1026A00054CF112311F0816001C08E7F88839983FC
:1026B0008A819B810E9499128111D9C00C80DD8191
:1026C000C02D43CF112311F0816001C08E7F88831C
:1026D0009983EC81FD810280F381E02D858985FF5E
:1026E00007C08C819D810E9499128111C0C007C0D2
:1026F0008A819B810E949912882399F3B8C08985A9
:102700009A850E9499128111B2C08B859C850E9486
:1027100099128111ACC08D859E850E9499128111FC
:10272000A6C07E0182E1E80EF11CF7018F85988931
:10273000E816F906D8F582E0E80EF11C8081918157
:102740000E949912882389F392C01123E1F18160DC
:1027500088839983CA80DB800C80DD81C02DE12CC9
:10276000F12C28E0A22EB12CEC14FD04FCF4C701DE
:10277000B5010E9437624C01FC013196EE0FFF1F3C
:10278000EC0FFD1F808191810E94991281116FC011
:10279000C70187709927892BC1F087E088169104BB
:1027A000E9F40A88DB89C02D2097C1F480E05FC07E
:1027B000112311F0816001C08E7F888399830F807F
:1027C000D885C02DC2CE8E7FC3CF88819981112339
:1027D00011F0816001C08E7F888399838FEFE81AA2
:1027E000F80AC2CF112311F0816001C08E7F888367
:1027F00099830A80DB81C02DA8CE112311F081605E
:1028000001C08E7F8883998380917941882371F2FA
:1028100080917341909174410E949912811127C057
:1028200080917541909176410E94991281111FC04B
:1028300080917741909178410E949912811117C03F
:10284000C0E0D0E080917A4190E0C817D9070CF041
:10285000ADCFFE01EE0FFF1FE25AFE4B858D968D28
:102860000E949912811103C02196ECCF8CEEDF916A
:10287000CF911F91FF90EF90DF90CF90BF90AF90DE
:102880009F908F900895CF92DF92EF92FF92CF9317
:10289000DF93EC016A017B01809308419093094129
:1028A00040930A4150930B4160930C4170930D414A
:1028B00010920E4110920F4110921041109211414E
:1028C00010921241109213411092144110924641FD
:1028D00081E080931541CB01BA012CEF3FEF40E03E
:1028E00050E00E944B62683071058105910580F4CB
:1028F00088819981837099278A6088839983CE0122
:102900000E94D11128E0C21AD108E108F1082896E6
:102910002CEFC2162FEFD206E104F10488F0888173
:1029200099818E6F9F6F88839983CE010E94D11108
:1029300024978CEFC81A8FEFD80AE108F108E8CF86
:1029400088E0C816D104E104F10480F088819981FF
:102950008370992782602CEFC2222CEFC222C82AF2
:10296000D92AC882D982CE010E94D1110E94084979
:1029700080E0DF91CF91FF90EF90DF90CF900895AE
:10298000FC012081318137702260208331830C94D7
:10299000D11160911041709111418091124190913B
:1029A0001341089560910A4170910B4180910C414F
:1029B00090910D410895CF92DF92EF92FF920F9385
:1029C0001F93CF93DF9300D0CDB7DEB710911441A2
:1029D00081E0182710931441809154419091554102
:1029E0000E949912811114C180915C4190915D41C6
:1029F0000E94991281110CC180915E4190915F41BA
:102A00000E949912811104C18091564190915741C1
:102A10000E9499128111FCC08091584190915941B6
:102A20000E9499128111F4C080915A4190915B41AA
:102A30000E9499128111ECC0809160419091614196
:102A40000E9499128111E4C080916241909163418A
:102A50000E9499128111DCC081E791E40E949912D1
:102A60008111D6C080918F41909190410E9499121E
:102A70008111CEC000E080914641081770F4E02F2C
:102A8000F0E0EE0FFF1FEA5EFE4B808191810E9415
:102A900099128111BDC00F5FEECFCE0101960E9449
:102AA0000E4989819A81892B09F083C000910841E0
:102AB00010910941209108413091094180910A41CA
:102AC00090910B41820F931F0817190708F06FC0F0
:102AD0004091144150E07801F7012081318121FDBE
:102AE0000FC0B901617077276417750749F4E816BC
:102AF000F90608F05CC02C7F3770E20EF31EECCFB5
:102B0000E816F90608F053C08701C12CD12CF80152
:102B10008081918181FF0CC08C7F8C0D9D1D8D3F2C
:102B20009F4F88F5C8010E949B118823B9F070C09F
:102B30002091144130E0AC014170552742175307F2
:102B400011F19C012C7F37702C0D3D1D2D3F3F4F07
:102B5000D0F497708260F80180839183F8018081BE
:102B600091818C7FC80ED91E080F191F2091084132
:102B70003091094180910A4190910B41820F931F3E
:102B80000817190720F2F701808191818370992736
:102B90008260FCEFCF22C82AD92AF701C082D182F5
:102BA000C7010E94D111882309F484CF31C080E08D
:102BB0002FC0212F30E0A981BA81ED91FC911197AE
:102BC000309709F473CF80819181817099278217A2
:102BD0009307C9F0848195818D939C93ECCF8D915F
:102BE0009C911197817099272817390759F01496ED
:102BF0008D919C91159784839583A481B5811097BD
:102C000071F7DF01FD0184819581892BB1F74ECFEA
:102C10000F900F90DF91CF911F910F91FF90EF9048
:102C2000DF90CF9008950F931F93CF93DF938B0185
:102C30008D3F27E0920710F089EE22C08830910581
:102C400010F488E090E00396EC01CC7FB801CE014F
:102C50000E943012893EA1F480911541813061F7C4
:102C6000809179418111E8CF0E94DB14811108C065
:102C7000B801CE01DF91CF911F910F910C943012CA
:102C8000DF91CF911F910F9108958093154180E0BE
:102C900008959C0190914641983168F4FB0190831E
:102CA000E92FF0E0EE0FFF1FEA5EFE4B2083318339
:102CB0009F5F909346410895809346410895CF9336
:102CC000DF9300D0CDB7DEB7E0918F41F091904116
:102CD00082819381892B29F4109291411092924123
:102CE00025C0809147418F5F80934741E0918F419C
:102CF000F091904190E0228133818217930710F088
:102D00001092474180918F4190919041609147414D
:102D100070E0AE014F5F5F4F0E94D03929813A8148
:102D20002093914130939241811103C010929F41B1
:102D300080E00F900F90DF91CF9108952F923F92F6
:102D40004F925F926F927F928F929F92AF92BF92BB
:102D5000CF92DF92EF92FF920F931F93CF93DF9367
:102D6000CDB7DEB7C25AD109CDBFDEBFCF55DF4FD9
:102D70008883C15AD04019861A861F8218861D8200
:102D80001E821B821C820E945F1681110C940939DD
:102D900010E066246394712C80919141909192414E
:102DA000892B59F4CF55DF4FC880C15AD040CC2071
:102DB00011F40C9401390C94343980919F4188238B
:102DC00031F00E945F16182F81110C943439A091B4
:102DD0009141B0919241E0919141F09192411296CE
:102DE0006D917C911397695F7F4F0280F381E02D95
:102DF00086810E94620D082F90E0FC013197E9382E
:102E0000F10510F00C942239EB56FF4F0C948C62B4
:102E1000E0919141F09192410280F381E02D07848D
:102E2000F089E02D32978081918189879A87E0919E
:102E30009141F09192410280F381E02D0784F08965
:102E4000E02DA0919141B091924112960D90BC91CC
:102E5000A02D1F960D90BC91A02D14978D919C9143
:102E6000329780839183E0919141F0919241028069
:102E7000F381E02D0784F089E02D89859A853497C8
:102E80000C941C39E0919141F09192410280F381C0
:102E9000E02D0784F089E02D329780819181898728
:102EA0009A87E0919141F09192410280F381E02D67
:102EB0000784F089E02DA0919141B0919241129642
:102EC0000D90BC91A02D1F960D90BC91A02D149734
:102ED0008D919C91329780839183E0919141F09103
:102EE00092410280F381E02D0784F089E02DA091CA
:102EF0009141B091924112960D90BC91A02D1F96D8
:102F00000D90BC91A02D16978D919C913497808344
:102F10009183E0919141F09192410280F381E02D03
:102F20000784F089E02D89859A8536970C941C39A1
:102F3000E0919141F09192410280F381E02D07846C
:102F4000F089E02D32978081918189879A870C944E
:102F50000B39E0919141F09192410280F381E02D93
:102F60000784F089E02D32978081918189879A8743
:102F7000E0919141F09192410280F381E02D07842C
:102F8000F089E02DA0919141B091924112960D905F
:102F9000BC91A02D1F960D90BC91A02D14978D91E2
:102FA0009C91329780839183E0919141F09192417D
:102FB0000280F381E02D0784F089E02DA0919141FA
:102FC000B091924112960D90BC91A02D1F960D903C
:102FD000BC91A02D16978D919C91349780839183FD
:102FE000E0919141F09192410280F381E02D0784BC
:102FF000F089E02DA0919141B091924112960D90EF
:10300000BC91A02D1F960D90BC91A02D18978D916D
:103010009C91369780839183E0919141F091924108
:103020000280F381E02D0784F089E02D89859A855F
:1030300038970C941C39E0919141F09192410280B3
:10304000F381E02D0784F089E02D32970190F08123
:10305000E02D81818695869586958D871E862D85A6
:103060003E852130310511F00C94323995CEE09136
:103070009141F09192410280F381E02D0784F08923
:10308000E02D3297BE01695F7F4F808191810E9460
:103090006760D5C5E0919141F0919241A281B381E1
:1030A0001F96ED91FC91509732971F96ED93FC93EC
:1030B00050978081918189879A870E94DF3EE091B5
:1030C0009141F0919241A281B3811F96ED91FC91C3
:1030D0005097882361F0CF0102961F968D939C93A1
:1030E000509780915E4190915F410C941C39CF01C3
:1030F00002961F968D939C93509780915C4190917E
:103100005D410C941C39E0919141F0919241028013
:10311000F381E02D0784F089E02D3297BE016B5FCB
:103120007F4F808191810E948B40182F81110C94D8
:103130002D39E0919141F09192410280F381E02D8F
:103140000784F089E02D8D819E8132970C941C3983
:10315000E0919141F09192410280F381E02D07844A
:10316000F089E02D32970190F081E02D81818695E4
:10317000869586958F87188A4F85588941305105E5
:1031800011F00C943239E0919141F091924102801A
:10319000F381E02D0784F089E02D3297BE01695F4D
:1031A0007F4F808191810E94896049C5E091914162
:1031B000F0919241A0919141B09192410280F381AE
:1031C000E02D0784F089E02D32976081718112969D
:1031D000ED91FC9113970784F089E02D349780815D
:1031E00091810E948A39182F0C94E426E091914134
:1031F000F0919241A0919141B09192410280F3816E
:10320000E02D0784F089E02D32976081718112965C
:10321000ED91FC9113970784F089E02D3497AE016E
:103220004B5F5F4F808191810E94EF600C94FB2186
:10323000E0919141F09192410280F381E02D078469
:10324000F089E02D32970190F081E02D8181869503
:1032500086958695898B1A8A69897A89693071057C
:10326000D9F46091974170919841E0919141F0912A
:1032700092410280F381E02D0784F089E02D32979E
:10328000AE01475F5F4F808191810E947859811123
:103290000C94323910E080CDE0919141F09192414F
:1032A0000280F381E02D0784F089E02D3297BE0182
:1032B000675F7F4F808191810E94B544182F8111F3
:1032C0000C942D39E0919141F09192410280F3816B
:1032D000E02D0784F089E02D89859A8536CFE0912D
:1032E0009141F09192410280F381E02D0784F089B1
:1032F000E02D32970190F081E02D818186958695B1
:1033000086958B8B1C8A8B899C89019709F044C018
:10331000E0919141F09192410280F381E02D078488
:10332000F089E02D34970190F081E02D8181869520
:10333000869586958D8B1E8AAD89BE89119761F51C
:10334000E0919141F091924180919141909192410F
:103350000280F381E02D0784F089E02D34972081ED
:103360003181DC011296ED91FC9113970784F0896D
:10337000E02D32970190F081E02DD90112962D9128
:103380003D914D915C911597628173818481958106
:103390000E9427620C94F621E0919141F0919241B4
:1033A0000280F381E02D0784F089E02D32970190AF
:1033B000F081E02D81818695869586958F8B188E7C
:1033C000EF89F88D319709F044C0E0919141F09177
:1033D00092410280F381E02D0784F089E02D34973B
:1033E0000190F081E02D8181869586958695898F63
:1033F0001A8E098D1A8D0231110559F5E09191410E
:10340000F09192410280F381E02D0784F089E02D54
:1034100032970190F081E02D828193818B839C8390
:1034200097FF02C01B821C82E0919141F091924172
:103430006B817C810280F381E02D0784F089E02D8F
:103440003497AE014B5F5F4F808191810E945D3A5E
:10345000D2C7E0919141F09192410280F381E02D39
:103460000784F089E02D32970190F081E02D818171
:103470008695869586958B8F1C8E2B8D3C8D213065
:10348000310509F044C0E0919141F09192410280F0
:10349000F381E02D0784F089E02D34970190F081CD
:1034A000E02D81818695869586958D8F1E8E4D8D1A
:1034B0005E8D4430510559F5E0919141F091924172
:1034C0000280F381E02D0784F089E02D329701908E
:1034D000F081E02D828193818B839C8397FF02C0D2
:1034E0001B821C82E0919141F09192416B817C8121
:1034F0000280F381E02D0784F089E02D3497AE013E
:103500004B5F5F4F808191810E94104D74C7E091A5
:103510009141F09192410280F381E02D0784F0897E
:10352000E02D32970190F081E02D8181869586957E
:1035300086958F8F18A26F8D78A16130710511F07B
:103540000C943239E0919141F09192410280F381E3
:10355000E02D0784F089E02D34970190F081E02D73
:10356000818186958695869589A31AA289A19AA1BB
:10357000039711F00C943239E0919141F09192410E
:103580000280F381E02D0784F089E02D32970190CD
:10359000F081E02D828193818B839C8397FF02C011
:1035A0001B821C82E0919141F09192410280F38153
:1035B000E02D0784F089E02D349780819181069673
:1035C0008F8398872B813C818E010B5F1F4F40E0DA
:1035D00050E0BE01695F7F4F80E00E94A6470BC7A5
:1035E000E0919141F0919241A0919141B09192412D
:1035F0000280F381E02D0784F089E02D329760810D
:1036000071811296ED91FC9113970784F089E02D5A
:1036100034979E012B5F3F4F4FE252C0E0919141A2
:10362000F09192410280F381E02D0784F089E02D32
:1036300034970190F081E02D81818695869586955D
:103640008BA31CA2ABA1BCA1E0919141F09192414E
:103650001397E9F4A0919141B09192410280F381D6
:10366000E02D0784F089E02D3297608171811296F8
:10367000ED91FC9113970784F089E02D3497AE010A
:103680004B5F5F4F808191810E94A749B4C6A09192
:103690009141B09192410280F381E02D0784F0893D
:1036A000E02D3297608171811296ED91FC91139714
:1036B0000784F089E02D34979E012B5F3F4F45E250
:1036C000808191810E944A6196C6E0919141F0917A
:1036D00092418091914190919241209191413091FC
:1036E00092410280F381E02D0784F089E02D349728
:1036F00040815181DC011296ED91FC911397078472
:10370000F089E02D329760817181D9011296ED9197
:10371000FC9113970784F089E02D36978081918181
:103720000C94E126E0919141F09192410280F38165
:10373000E02D0784F089E02D32970190F081E02D93
:1037400081818695869586958DA31EA2EDA1FEA109
:10375000319709F048C0E0919141F0919241028087
:10376000F381E02D0784F089E02D34970190F081FA
:10377000E02D81818695869586958FA318A60FA149
:1037800018A50130110579F5E0919141F091924130
:1037900080919141909192410280F381E02D0784C4
:1037A000F089E02D349720813181DC011296ED9172
:1037B000FC9113970784F089E02D32970190F081F6
:1037C000E02DD90112964D915D916D917C911597E7
:1037D00082819381A481B5818A019B01080F191F01
:1037E0002A1F3B1F01C6E0919141F0919241028056
:1037F000F381E02D0784F089E02D32970190F0816C
:10380000E02D818186958695869589A71AA629A59A
:103810003AA52330310511F00C943239E0919141F1
:10382000F09192410280F381E02D0784F089E02D30
:1038300034970190F081E02D81818695869586955B
:103840008BA71CA64BA55CA54330510511F00C9429
:103850003239E0919141F0919241A0919141B09122
:1038600092410280F381E02D0784F089E02D3297A8
:10387000608171811296ED91FC9113970784F08914
:10388000E02D3497AE014B5F5F4F808191810E94A4
:103890001549B1C5E0919141F09192410280F381C7
:1038A000E02D0784F089E02D32970190F081E02D22
:1038B00081818695869586958DA71EA66DA57EA588
:1038C0006130710511F00C943239E0919141F09121
:1038D00092410280F381E02D0784F089E02D349736
:1038E0000190F081E02D81818695869586958FA740
:1038F00018AA8FA598A9019711F00C943239E0917C
:103900009141F09192418091914190919241028038
:10391000F381E02D0784F089E02D349720813181F7
:10392000DC011296ED91FC9113970784F089E02D4C
:10393000329740815181F90182819381A481B581BF
:10394000FA010281138124813581BC01CD01601B04
:10395000710B820B930B4AC5E0919141F09192411A
:103960000280F381E02D0784F089E02D34970190E7
:10397000F081E02D818186958695869589AB1AAA7E
:1039800009A91AA9E0919141F091924103311105E1
:10399000E9F4A0919141B09192410280F381E02D30
:1039A0000784F089E02D3297608171811296ED9144
:1039B000FC9113970784F089E02D3497AE014B5F9B
:1039C0005F4F808191810E946B5C15C50280F381FD
:1039D000E02D0784F089E02D32970190F081E02DF1
:1039E00081818695869586958BAB1CAA2BA93CA9CF
:1039F00021303105D9F0E0919141F091924102805E
:103A0000F381E02D0784F089E02D32970190F08159
:103A1000E02D81818695869586958DAB1EAA4DA950
:103A20005EA94F30510511F00C943239E09191416B
:103A3000F09192410280F381E02D0784F089E02D1E
:103A400034978081918189879A87E0919141F091A3
:103A500092410280F381E02D0784F089E02D3297B6
:103A60000190F081E02D628173816B837C83AE01D4
:103A70004B5F5F4F0E94F343BEC4E0919141F091D0
:103A800092410280F381E02D0784F089E02D329786
:103A90000190F081E02D81818695869586958FAB8A
:103AA00018AE6FA978ADE0919141F09192410280FA
:103AB000F381E02D0784F089E02D329762317105A2
:103AC00041F4BE01695F7F4F808191810E94C63AB7
:103AD000B6C00190F081E02D81818695869586950E
:103AE00089AF1AAE89AD9AAD039709F455C9E09133
:103AF0009141F09192410280F381E02D0784F08999
:103B0000E02D32970190F081E02D81818695869598
:103B100086958BAF1CAEABADBCAD149711F00C9479
:103B200032393AC9609156417091574140915441A0
:103B3000509155412091584130915941E091914126
:103B4000F09192410280F381E02D0784F089E02D0D
:103B50003297803229F08132F9F06081718102C0A0
:103B600040815181E0919141F09192410280F38135
:103B7000E02D0784F089E02D349780819181898739
:103B80009A87E0919141F09192410280F381E02D7A
:103B900087859089029728C040815181E0919141A9
:103BA000F09192410280F381E02D0784F089E02DAD
:103BB000349760817181E0919141F091924102804E
:103BC000F381E02D0784F089E02D36978081918183
:103BD00089879A87E0919141F09192410280F38127
:103BE000E02D8785908904978787908B89859A85B2
:103BF000DC011196EC91EE2EE694E694E694F12C1D
:103C0000B4E0EB16F104B1F0E2E1EE16F10461F07C
:103C1000F3E0EF16F10411F00C9432398E01095FD4
:103C20001F4F0E946D4B0BC08E01095F1F4F0E94FA
:103C3000003C05C08E01095F1F4F0E94CF4D182F19
:103C400081110C942D390C94BC2EE0919141F0918E
:103C500092410280F381E02D0784F089E02D3497B2
:103C60000190F081E02D81818695869586958DAFB6
:103C70001EAE0DAD1EADE0919141F09192410280DA
:103C8000F381E02D0784F089E02D0231110509F060
:103C900065C032970190F081E02D818186958695EF
:103CA00086958FAF21961FAE219721962EAD3FAD01
:103CB00021972130310509F1E0919141F091924134
:103CC0000280F381E02D0784F089E02D3297019086
:103CD000F081E02D818186958695869522968FAF1D
:103CE000229723961FAE239723964EAD5FAD239761
:103CF0004F30510511F00C943239E0919141F0911F
:103D000092418091914190919241209191413091C5
:103D100092410280F381E02D0784F089E02D3697EF
:103D200040815181DC011296ED91FC91139707843B
:103D3000F089E02D32970190F081E02D628173814E
:103D4000D9011296ED91FC9113970784F089E02D2B
:103D50003497808191810E94CB3A43C0349701907F
:103D6000F081E02D818186958695869524968FAF8A
:103D7000249725961FAE25972596EEADFFAD259786
:103D8000739711F00C943239E0919141F091924186
:103D90008091914190919241209191413091924135
:103DA0000280F381E02D0784F089E02D3697408171
:103DB0005181DC011296ED91FC9113970784F089F3
:103DC000E02D329760817181D9011296ED91FC91BD
:103DD00013970784F089E02D3497808191810E94A8
:103DE000E45B182F81110C942D39E0919141F091F1
:103DF00092410280F381E02D8785908906970C948B
:103E00005628E0919141F09192410280F381E02D9A
:103E10000784F089E02D34970190F081E02D8181B5
:103E200086958695869526968FAF269727961FAE00
:103E300027972796EEADFFAD2797729709F040C000
:103E4000E0919141F09192410280F381E02D07844D
:103E5000F089E02D32970190F081E02D81818695E7
:103E60008695869528968FAF289729961FAE299715
:103E700029960EAD1FAD29970130110509F5E09186
:103E80009141F0919241A0919141B0919241028073
:103E9000F381E02D0784F089E02D32970190F081C5
:103EA000E02D628173811296ED91FC911397078446
:103EB000F089E02D3497808191810E94733B5FC02F
:103EC000E0919141F09192410280F381E02D0784CD
:103ED000F089E02D34970190F081E02D8181869565
:103EE000869586952A968FAF2A972B961FAE2B978D
:103EF0002B962EAD3FAD2B972331310511F00C944D
:103F00003239E0919141F09192410280F381E02DAC
:103F10000784F089E02D32970190F081E02D8181B6
:103F20008695869586952C968FAF2C972D961FAEED
:103F30002D972D964EAD5FAD2D974231510510F066
:103F40000C943239E0919141F0919241A0919141CC
:103F5000B09192410280F381E02D0784F089E02D39
:103F60003297608171811296ED91FC9113970784CD
:103F7000F089E02D3497808191810E94BD5C182FDB
:103F8000882309F421C70C942D39E0919141F091D7
:103F900092410280F381E02D0784F089E02D329771
:103FA0000190F081E02D81818695869586952E96EB
:103FB0008FAF2E972F961FAE2F972F966EAD7FAD9A
:103FC0002F976130710511F00C943239E0919141D5
:103FD000F09192410280F381E02D0784F089E02D79
:103FE00034970190F081E02D8181869586958695A4
:103FF00060968FAF609761961FAE619761968EADA8
:104000009FAD6197019711F00C943239E091914185
:10401000F091924180919141909192410280F3817F
:10402000E02D0784F089E02D349720813181DC0177
:104030001296ED91FC9113970784F089E02D329749
:1040400040815181F90182819381A481B581BC01B4
:10405000CD01FA01028004C0660F771F881F991FE7
:104060000A94D2F7C3C1E0919141F091924102804C
:10407000F381E02D0784F089E02D32970190F081E3
:10408000E02D818186958695869562968FAF6297A1
:1040900063961FAE639763960EAD1FAD63970130B5
:1040A000110511F00C943239E0919141F091924157
:1040B0000280F381E02D0784F089E02D3497019090
:1040C000F081E02D818186958695869564968FAFE7
:1040D000649765961FAE659765962EAD3FAD659763
:1040E0002130310511F00C943239E0919141F09179
:1040F000924180919141909192410280F381E02D13
:104100000784F089E02D349720813181DC011296FB
:10411000ED91FC9113970784F089E02D329740814F
:104120005181F90182819381A481B581BC01CD01C6
:10413000FA01028004C095958795779567950A9452
:10414000D2F754C1E0919141F09192410280F38104
:10415000E02D0784F089E02D32970190F081E02D69
:10416000818186958695869566968FAF66976796C8
:104170001FAE679767960EAD1FAD679701301105AB
:1041800011F00C943239E0919141F091924102800A
:10419000F381E02D0784F089E02D34970190F081C0
:1041A000E02D818186958695869568968FAF689774
:1041B00069961FAE699769962EAD3FAD699721301C
:1041C000310511F00C943239E0919141F091924116
:1041D00080919141909192410280F381E02D07847A
:1041E000F089E02D349720813181DC011296ED9128
:1041F000FC9113970784F089E02D32970190F081AC
:10420000E02DD90112964D915D916D917C9115979C
:1042100082819381A481B5818A019B01082319239E
:104220002A233B23E1C0E0919141F0919241028029
:10423000F381E02D0784F089E02D32970190F08121
:10424000E02D81818695869586956A968FAF6A97CF
:104250006B961FAE6B976B962EAD3FAD6B97213073
:10426000310511F00C943239E0919141F091924175
:104270000280F381E02D0784F089E02D34970190CE
:10428000F081E02D81818695869586956C968FAF1D
:104290006C976D961FAE6D976D964EAD5FAD6D9739
:1042A0004130510511F00C943239E0919141F09177
:1042B000924180919141909192410280F381E02D51
:1042C0000784F089E02D349720813181DC0112963A
:1042D000ED91FC9113970784F089E02D32970190BE
:1042E000F081E02DD90112964D915D916D917C91F7
:1042F000159782819381A481B5818A019B0108274A
:1043000019272A273B2770C0E0919141F0919241F3
:104310000280F381E02D0784F089E02D329701902F
:10432000F081E02D81818695869586956E968FAF7A
:104330006E976F961FAE6F976F962EAD3FAD6F97CE
:104340002130310511F00C943239E0919141F09116
:1043500092410280F381E02D0784F089E02D3497AB
:104360000190F081E02D8181869586958695A096B5
:104370008FAFA097A1961FAEA197A1964EAD5FAD4E
:10438000A1974130510511F00C943239E0919141DF
:10439000F091924180919141909192410280F381FC
:1043A000E02D0784F089E02D349720813181DC01F4
:1043B0001296ED91FC9113970784F089E02D3297C6
:1043C0000190F081E02DD90112964D915D916D9192
:1043D0007C91159782819381A481B5818A019B018B
:1043E000082B192B2A2B3B2BC901B801AE014B5FBF
:1043F0005F4F0E940F60182F81110C942D39E091AE
:104400009141F09192410280F381E02D878590895E
:1044100002978787908B0C94991880919D41811108
:104420001CC081E080939D41E0919141F0919241C7
:1044300061E0063409F060E00280F381E02D07843A
:10444000F089E02D329740E0808191810E94FE3F0B
:10445000182F81110C942D390AC0073411F780E20E
:104460000E94B20D182F81110C942D39DACFE091F2
:104470009141F09192410280F381E02D87859089EE
:1044800002978787908B063411F00C944A1910928A
:104490009D4180919E41882311F40C94A7368AE0B7
:1044A0000E94B20D182F10929E410C94A736E091F5
:1044B0009141F09192410280F381E02D0184F285D7
:1044C000E02D8681813089F511110C942D39A09150
:1044D0009141B091924112960D90BC91A02D828194
:1044E00093811F968D939C935097A0919141B09189
:1044F000924112960D90BC91A02D848195811796C2
:104500008D939C931897A0919141B09192411296EE
:104510000D90BC91A02D8781908519968D939C93C9
:104520001A97CF010E94C0144AC0C780D084C1141A
:10453000D10451F2EF83F887CF010E94C014182FE5
:1045400081110C942D39F601BCCFA0919141B0910D
:104550009241E0919141F091924112966D917C913E
:104560001397695F7F4F0280F381E02D86810E945F
:10457000D43C8B839C83E0919141F09192410280E5
:10458000F381E02D0480F581E02D0280F381E02DA0
:104590000480F581E02D0296880F991FE80FF91F1E
:1045A000608171816F837887E0919141F0919241B0
:1045B0000280F381E02D838594850E94BD5C182FD5
:1045C0000C94A736E0919141F0919241A281B38180
:1045D0001F96ED91FC915097CF0102961F968D93F7
:1045E0009C935097A0919141B091924112960D9059
:1045F000BC91A02D1B968D919C911C970C941C39FD
:10460000E0919141F0919241A281B3811F96ED9189
:10461000FC91509732971F96ED93FC9350978081B1
:1046200091818F839887E0919141F091924102802E
:10463000F381E02DE987FA87A0919141B0919241F1
:1046400012960D90BC91A02D12962D913C9113972E
:10465000232B41F4E0919141F0919241148210E0BA
:104660000C94E638409191415091924120919141B2
:1046700030919241D90112962D913C911397D90115
:1046800012962D913C911397DA0112962D933C933B
:104690001397A481B58112960D90BC91A02D5596CB
:1046A0002C9125FF0EC0E0919141F09192419281B1
:1046B000838199878A87EF81F885692F782F0C94F9
:1046C000CB38218921FF0AC02091544130915541B6
:1046D0008217930711F00C94323915C020FD13C0D6
:1046E000E0919141F0919241A281B3811F96ED91A9
:1046F000FC9150979F012E5F3F4F1F962D933C9347
:1047000050978083918389859A8590C0E0919141EB
:10471000F0919241A0919141B09192410280F38138
:10472000E02D0784F089E02D32970190F081E02D93
:10473000648175811296ED91FC91139741E0838518
:1047400094850E945F5DA4C4E0919141F0919241F3
:10475000A281B3811F96ED91FC91509732971F96DD
:10476000ED93FC9350978081918189879A87E0919E
:104770009141F09192410280F381E02D218921FF46
:1047800002C00C943239E0919141F0919241A09194
:104790009141B091924112960D90BC91A02D12962C
:1047A0002D913C911397228333830C940B39E09124
:1047B0009141F09192410280F381E02D81859285B3
:1047C00089879A87E0919141F0919241A09191411E
:1047D000B09192410280F381E02D12960D90BC9130
:1047E000A02D19960D90BC91A02D17962D913C915E
:1047F000189721873287E0919141F0919241028090
:10480000F381E02DDC0112962D913C9113972787BF
:10481000308BE0919141F09192410280F381E02D43
:1048200014962D913C911597278330870E94C014D0
:1048300081110C9482380C94CC16E0919141F09146
:10484000924180919141909192412091914130917A
:1048500092410280F381E02D0784F089E02D3697A4
:1048600040815181DC011296ED91FC9113970784F0
:10487000F089E02D349760817181D9011296ED9114
:10488000FC9113970784F089E02D32979E01295FF0
:104890003F4F808191810E949058182F81110C9474
:1048A0002D39E0919141F09192410280F381E02D08
:1048B0008785908904978787908B0C94BC2EA09154
:1048C0009141B0919241E0919141F09192411296C3
:1048D0006D917C911397695F7F4F0280F381E02D8A
:1048E00086810E94D43C8B839C83E0919141F0911E
:1048F00092410280F381E02D0480F581E02D028059
:10490000F381E02D0480F581E02D0296880F991F38
:10491000E80FF91F608171816F837887E091914181
:10492000F0919241A0919141B09192410280F38126
:10493000E02D0784F089E02D329740815181129655
:10494000ED91FC91139783859485A0C3E0919141EB
:10495000F0919241A281B3811F96ED91FC91509705
:1049600032971F96ED93FC935097808191818987B0
:104970009A87BE016D5F7F4F0E94D543182FA0918B
:104980009141B0919241E0919141F0919241129602
:104990006D917C911397695F7F4F0280F381E02DC9
:1049A0008681112321F00E94D43C0C942D390E9461
:1049B000D43C2B813C818217930711F00C9424394D
:1049C0006B817C81615071096B837C8377FF02C0AE
:1049D0000C944A19AE01495F5F4F89859A850E9400
:1049E000F343182F81110C942D39E0919141F091EE
:1049F0009241A281B3811F96ED91FC915097CF0116
:104A000002961F968D939C9350978F8198858083F3
:104A10009183D6CFA0919141B0919241E091914183
:104A2000F091924112966D917C911397695F7F4F3F
:104A30000280F381E02D86810E94D43C8B839C838D
:104A4000E0919141F09192410280F381E02D078441
:104A5000F089E02D32970190F081E02D81818695DB
:104A600086958695A2968FAFA297A3961FAEA39721
:104A7000A396EEADFFADA397399709F055C06091AD
:104A8000974170919841E0919141F091924102805B
:104A9000F381E02D0784F089E02D3297AE01475F66
:104AA0005F4F808191810E947859182F81110C9459
:104AB0002D39E0919141F09192410280F381E02DF6
:104AC0000784F089E02D3297808191818F839887C8
:104AD000E0919141F0919241A281B3811F96ED91B5
:104AE000FC915097CF0102961F968D939C935097FF
:104AF00089859A8580839183E0919141F0919241DB
:104B0000A281B3811F96ED91FC915097CF0102963F
:104B10001F968D939C9350978F8198858083918366
:104B20006B827C820C94A134E0919141F09192418E
:104B30000280F381E02D0784F089E02D3297BE01D9
:104B4000695F7F4F808191810E947E44182F8F3E44
:104B5000E9F4E0919141F09192410280F381E02DDE
:104B60008785908902978787908BE0919141F0919A
:104B700092410280F381E02D278130858B819C81D9
:104B8000820F931F878390870C944A1981110C948C
:104B9000E1380C94E737A0919141B0919241E091B6
:104BA0009141F091924112966D917C911397695FBA
:104BB0007F4F0280F381E02D86810E94D43C8B835D
:104BC0009C83E0919141F09192410280F381E02D2C
:104BD0000784F089E02D32970190F081E02D21814A
:104BE000269526952695A4962FAFA497A5961FAE39
:104BF000A597A5960EAD1FADA59708301105F9F044
:104C0000E0919141F09192410280F381E02D07847F
:104C1000F089E02D32970190F081E02D21812695D9
:104C200026952695A6962FAFA697A7961FAEA7976F
:104C3000A7962EAD3FADA7972630310579F4E091C8
:104C40009141F09192410280F381E02D0784F08937
:104C5000E02D32970190F081E02D4FC0E09191411D
:104C6000F09192410280F381E02D0784F089E02DDC
:104C700032970190F081E02D218126952695269589
:104C8000A8962FAFA897A9961FAEA997A9964EAD43
:104C90005FADA997E0919141F09192410280F3813B
:104CA000E02D0784F089E02D32970190F081E02D0E
:104CB0004730510519F42281338144C02181269562
:104CC00026952695AA962FAFAA97AB961FAEAB97BF
:104CD000AB966EAD7FADAB97E0919141F091924173
:104CE0000280F381E02D0784F089E02D3297019056
:104CF000F081E02D6930710519F42481358122C0DD
:104D00002181269526952695AC962FAFAC97AD962A
:104D10001FAEAD97AD96AEADBFADAD97519711F04B
:104D20000C942039E0919141F09192410280F381FD
:104D3000E02D0784F089E02D32970190F081E02D7D
:104D4000268137812F833887AF81B88511962C91C2
:104D50001197269526952695AE962FAFAE97AF96CE
:104D60001FAEAF97AF96EEADFFADAF97739711F053
:104D70000C942239E0919141F09192410280F381AB
:104D8000E02D0480F581E02D0280F381E02D048088
:104D9000F581E02D0296880F991FE80FF91F6081B9
:104DA00071816D837E83E0919141F0919241028007
:104DB000F381E02D0784F089E02D34974081518103
:104DC000CD010E94E45BDBC8E0919141F0919241FA
:104DD0000280F381E02D87859089049767C1A091B7
:104DE0009141B0919241E0919141F091924112969E
:104DF0006D917C911397695F7F4F0280F381E02D65
:104E000086810E94D43C8B839C83E0919141F091F8
:104E100092410280F381E02D0784F089E02D3297E2
:104E20000190F081E02D2181269526952695E0962A
:104E30002FAFE097E1961FAEE197E1960EAD1FAD63
:104E4000E19708301105F9F0E0919141F09192411C
:104E50000280F381E02D0784F089E02D32970190E4
:104E6000F081E02D2181269526952695E2962FAF9B
:104E7000E297E3961FAEE397E3962EAD3FADE3973F
:104E80002630310579F4E0919141F0919241028010
:104E9000F381E02D0784F089E02D32970190F081B5
:104EA000E02D4FC0E0919141F09192410280F38159
:104EB000E02D0784F089E02D32970190F081E02DFC
:104EC0002181269526952695E4962FAFE497E596C1
:104ED0001FAEE597E5964EAD5FADE597E091914148
:104EE000F09192410280F381E02D0784F089E02D5A
:104EF00032970190F081E02D4730510519F422815D
:104F0000338144C02181269526952695E6962FAFBC
:104F1000E697E7961FAEE797E7966EAD7FADE7970A
:104F2000E0919141F09192410280F381E02D07845C
:104F3000F089E02D32970190F081E02D6930710504
:104F400019F42481358122C0218126952695269544
:104F5000E8962FAFE897E9961FAEE997E996AEADD0
:104F6000BFADE997519711F00C942039E091914130
:104F7000F09192410280F381E02D0784F089E02DC9
:104F800032970190F081E02D268137812F83388779
:104F9000AF81B88511962C91119726952695269567
:104FA000EA962FAFEA97EB961FAEEB97EB96EEAD36
:104FB000FFADEB97739711F00C942239E09191417A
:104FC000F09192410280F381E02D0480F581E02D83
:104FD0000280F381E02D248135810296FC01EE0FE1
:104FE000FF1FE20FF31F608171816D837E83CD010E
:104FF0000E94BD5C182F883E09F04BC00C942039EC
:10500000A0919141B0919241E0919141F0919241F2
:1050100012966D917C911397695F7F4F0280F381A7
:10502000E02D86810E94D43C8B839C83E09191414A
:10503000F09192410280F381E02D0480F581E02D12
:105040000280F381E02D0480F581E02D0296880F27
:10505000991FE80FF91F608171816F837887E09154
:105060009141F0919241A0919141B0919241028081
:10507000F381E02D0784F089E02D32974081518142
:105080001296ED91FC911397858596850E94E45BBD
:10509000182F11110C942D39E0919141F09192410A
:1050A0000280F381E02D8785908902978787908B16
:1050B0000C94CC16A0919141B0919241E091914114
:1050C000F091924112966D917C911397695F7F4F99
:1050D0000280F381E02D86810E94D43C8B839C83E7
:1050E000E0919141F09192410280F381E02D0480A2
:1050F000F581E02D0280F381E02D0480F581E02D23
:105100000296880F991FE80FF91F608171816F83E4
:105110007887E0919141F09192410280F381E02DF6
:10512000858596854ACAA0919141B0919241E091BE
:105130009141F091924112966D917C911397695F24
:105140007F4F0280F381E02D86810E94D43C8B83C7
:105150009C83E0919141F09192410280F381E02D96
:105160000784F089E02D32972081318129873A87A1
:10517000E0919141F09192410280F381E02D07840A
:10518000F089E02D3497208131812F833887E09199
:105190009141F09192410280F381E02D0784F089E2
:1051A000E02D3697208131812D833E838330910518
:1051B0009CF0E0919141F0919241A281B3811F96C0
:1051C000ED91FC915097CF0102961F968D939C9381
:1051D00050972083318303C082309105A9F4E09178
:1051E0009141F0919241A281B3811F96ED91FC9182
:1051F0005097CF0102961F968D939C9350978F8165
:1052000098858083918372C1019711F00C94CC161C
:105210006DC1A0919141B0919241E0919141F09185
:10522000924112966D917C911397695F7F4F028036
:10523000F381E02D86810E94D43C8B839C83E09196
:105240009141F09192410280F381E02DA785B089D0
:105250009D012E5F3F4F2787308BE0919141F09168
:1052600092410280F381E02D0480F581E02D0280DF
:10527000F381E02D2681378102960C946B31A09149
:105280009141B0919241E0919141F09192411296F9
:105290006D917C911397695F7F4F0280F381E02DC0
:1052A00086810E94D43C8B839C83E0919141F09154
:1052B00092410280F381E02D0480F581E02D02808F
:1052C000F381E02D0480F581E02D0296880F991F6F
:1052D000E80FF91F6081718169877A87E0919141B8
:1052E000F09192410280F381E02DAE01495F5F4F62
:1052F000838594850E946B5C182F883E09F053C704
:10530000E0919141F091924169857A850280F38123
:10531000E02DAE01495F5F4F858596850E946B5CED
:10532000182F883E09F03FC78091624190916341F8
:10533000892B11F40C94E338809162419091634180
:1053400069857A85AE01495F5F4F0E946B5C182FBB
:10535000883E09F028C71AEE0C94E338A0919141D9
:10536000B0919241E0919141F091924112966D91EC
:105370007C911397695F7F4F0280F381E02D8681D6
:105380000E94D43C8B839C83BE01675F7F4F0E9449
:10539000814C182F81110C942D398B819C819C019B
:1053A000AC01440F551FE985FA85E40FF51F215024
:1053B0003109329737FD19C0A0919141B0919241C6
:1053C00012964D915C911397DA011F966D917C9125
:1053D0005097625071091F966D937C935097DB0133
:1053E0004D915C9144835583E2CF9C01215031095A
:1053F00097FF02C080E090E0F901E81BF90BEB8316
:10540000FC8374C0A0919141B0919241E09191418F
:10541000F091924112966D917C911397695F7F4F45
:105420000280F381E02D86810E94D43C8B839C8393
:10543000CE0109960E94443A182F81110C942D39FF
:105440002B813C81215031092B833C8389859A85AE
:1054500037FF02C00C940B39BE01645F7F4F0E947E
:105460004916E0919141F09192410280F381E02D43
:105470000784F089E02D32974081518160E070E02F
:1054800089859A850E94EC39082F8C850E945C16CC
:1054900001110C942C39E0919141F09192410280DC
:1054A000F381E02D8785908902978787908BC8CFFD
:1054B000A0919141B0919241E0919141F09192413E
:1054C00012966D917C911397695F7F4F0280F381F3
:1054D000E02D86810E94D43C8B839C83CE0109966B
:1054E0000E947A5B182F81110C942D39E091914123
:1054F000F0919241A281B3811F96ED91FC9150975A
:10550000CF0102961F968D939C93509789859A851B
:105510000C941C39A0919141B0919241E09191413C
:10552000F091924112966D917C911397695F7F4F34
:105530000280F381E02D86810E94D43C8B839C8382
:10554000E0919141F09192410280F381E02D078436
:10555000F089E02D32970190F081E02D2181269590
:1055600026952695EC962FAFEC97ED961FAEED970E
:10557000ED960EAD1FADED9708301105F9F0E091F5
:105580009141F09192410280F381E02D0784F089EE
:10559000E02D32970190F081E02D2181269526950E
:1055A0002695EE962FAFEE97EF961FAEEF97EF96FC
:1055B0002EAD3FADEF972630310579F4E091914162
:1055C000F09192410280F381E02D0784F089E02D73
:1055D00032970190F081E02D5BC0E0919141F09114
:1055E00092410280F381E02D0784F089E02D32970B
:1055F0000190F081E02D2181269526952695C158B0
:10560000DF4F2883CF57D040C058DF4F1882C05893
:10561000D040C158DF4F48815981CF57D040E091E9
:105620009141F09192410280F381E02D0784F0894D
:10563000E02D32970190F081E02D4730510519F4AB
:105640002281338150C02181269526952695CF57FA
:10565000DF4F2883C158D040CE57DF4F1882C25841
:10566000D040CF57DF4F68817981C158D040E09159
:105670009141F09192410280F381E02D0784F089FD
:10568000E02D32970190F081E02D6930710519F419
:105690002481358128C02181269526952695CD57D0
:1056A000DF4F2883C358D040CC57DF4F1882C458EF
:1056B000D040CD57DF4FA881B981C358D040519712
:1056C00011F00C942039E0919141F09192410280C7
:1056D000F381E02D0784F089E02D32970190F0816D
:1056E000E02D2681378129873A87A985BA851196C9
:1056F0002C911197269526952695CB57DF4F288319
:10570000C558D040CA57DF4F1882C658D040CB5733
:10571000DF4FE881F981C558D040739711F00C94A0
:105720002239E0919141F09192410280F381E02D84
:105730000480F581E02D0280F381E02D0480F58165
:10574000E02D0296880F991FE80FF91F6081718183
:105750006F837887AE014B5F5F4FCD010E946B5C1A
:10576000182F883E09F065C0E0919141F091924177
:105770000280F381E02D0784F089E02D32970190BB
:10578000F081E02D8181869586958695C957DF4FFA
:105790008883C758D040C857DF4F1882C858D040B8
:1057A000C957DF4F08811981C758D040073011050C
:1057B00039F1E0919141F09192410280F381E02D25
:1057C0000784F089E02D32970190F081E02D8181EE
:1057D000869586958695C757DF4F8883C958D040F0
:1057E000C657DF4F1882CA58D040C757DF4F2881AD
:1057F0003981C958D0402930310511F00C94203935
:10580000E0919141F09192416F8178850280F3811E
:10581000E02D0784F089E02D3297AE014B5F5F4F9A
:10582000808191810E947859182F883E11F40C9440
:10583000203911110C942D39E0919141F091924150
:105840000280F381E02D0784F089E02D32970190EA
:10585000F081E02D8181869586958695C557DF4F2D
:105860008883CB58D040C457DF4F1882CC58D040E3
:10587000C557DF4F48815981CB58D0404930510539
:1058800011F00C9499186D817E81DB0111968C9139
:10589000869586958695C357DF4F8883CD58D0402F
:1058A000C257DF4F1882CE58D040C357DF4FE88130
:1058B000F981CD58D040389711F00C9499186F8326
:1058C0007887E0919141F09192410280F381E02D3F
:1058D0000784F089E02D3297AE014B5F5F4F8081E6
:1058E00091810E942959882311F40C949918182F3A
:1058F0000C942D39A0919141B0919241E091914148
:10590000F091924112966D917C911397695F7F4F50
:105910000280F381E02D86810E94D43C8B839C839E
:10592000E0919141F09192410280F381E02D078452
:10593000F089E02D32970190F081E02D21812695AC
:1059400026952695C157DF4F2883CF58D040C057A2
:10595000DF4F1882C059D040C157DF4F08811981ED
:10596000CF58D0400130110531F1E0919141F091D3
:1059700092410280F381E02D0784F089E02D329777
:105980000190F081E02D2181269526952695CF5610
:10599000DF4F2883C159D040CE56DF4F1882C259FD
:1059A000D040CF56DF4F28813981C159D0402F30A8
:1059B000310509F0A3C0E0919141F091924102803C
:1059C000F381E02D0784F089E02D34970190F08178
:1059D000E02D2181269526952695CD56DF4F2883EB
:1059E000C359D040CC56DF4F1882C459D040CD5651
:1059F000DF4F48815981C359D0404130510531F1C1
:105A0000E0919141F09192410280F381E02D078471
:105A1000F089E02D34970190F081E02D21812695C9
:105A200026952695CB56DF4F2883C559D040CA56B8
:105A3000DF4F1882C659D040CB56DF4F688179813D
:105A4000C559D0406F30710509F058C0E0919141BF
:105A5000F09192410280F381E02D0784F089E02DDE
:105A600034970190F081E02D0281138124813581EA
:105A7000E0919141F09192410280F381E02D078401
:105A8000F089E02D32970190F081E02D4281538121
:105A9000648175818A30910510F00C942239FC01E3
:105AA000E25EFE4F0C948C62041715072607370739
:105AB0000CF4E2C0E6C040175107620773070CF010
:105AC000DBC0DFC0041715072607370709F0D9C068
:105AD000D3C0041715072607370709F0CDC0D1C07A
